:100000000C94A7000C94D8000C94D8000C94D80041
:100010000C94D8000C94D8000C94D8000C94D80000
:100020000C94D8000C94D8000C94D8000C94D800F0
:100030000C94D8000C94D8000C94D8000C94D800E0
:100040000C94D8000C94D8000C94D8000C94D800D0
:100050000C94D8000C94D8000C94D8000C948840D0
:100060000C94D8000C94FC400C94D2400C94D80012
:100070000C94D8000C94D8000C94D8000C94D800A0
:100080000C94D8000C94D8000C94D8000C94D80090
:100090000C94D8000C94D8000C94D8000C94D80080
:1000A0000C94D8000C94D8000C94D8000C94D80070
:1000B0000C94D8000C94D8000C94D8000C94D80060
:1000C0000C94D8000C94D8000C94D8000C94D80050
:1000D0000C94D8000C94D8000C94D8000C94D80040
:1000E0000C94D8000C94723A0C947F400C944F01FD
:1000F0000C943B010C94FF000C9495010C94E201CC
:100100000C9448390C94423B0C94B33A0C948C39BF
:100110000C9478390C94653B0C94FB3A0C945C3944
:100120000C945D010C94E63B0C943F390C9407123F
:100130000C9468390C942C010C94843B0C94164359
:100140006364696E6F70737578585B001643112491
:100150001FBECFEFD1E2DEBFCDBF00E00CBF16E087
:10016000A0E0B2E0E4E8F6E900E00BBF02C00790CF
:100170000D92A035B107D9F726E0A0E5B6E001C0A1
:100180001D92AA3FB207E1F710E0C7EAD0E000E015
:1001900006C021970109802FFE010E94EE46C63A53
:1001A000D10780E00807A9F70E9432410C94404B28
:1001B0000C9400003FB7F894809155069091560634
:1001C000A0915706B091580626B5A89B05C02F3FB1
:1001D00019F00196A11DB11D3FBFBA2FA92F982F6D
:1001E0008827BC01CD01620F711D811D911D42E068
:1001F000660F771F881F991F4A95D1F70895AF9210
:10020000BF92CF92DF92EF92FF920F931F93CF9303
:10021000DF936C017B018B01040F151FEB015E0165
:10022000AE18BF08C017D10759F06991D601ED91FA
:10023000FC910190F081E02DC6011995892B79F789
:10024000C501DF91CF911F910F91FF90EF90DF904B
:10025000CF90BF90AF900895FC01538D448D252F12
:1002600030E0842F90E0821B930B541710F0CF9650
:10027000089501970895FC01918D828D981761F082
:10028000A28DAE0FBF2FB11D5D968C91928D9F5F99
:100290009F73928F90E008958FEF9FEF0895FC0178
:1002A000918D828D981731F0828DE80FF11D858D2B
:1002B00090E008958FEF9FEF0895FC01918D228DBE
:1002C000892F90E0805C9F4F821B91098F73992743
:1002D000089589E596E00E945D0121E0892B09F4EB
:1002E00020E0822F0895FC01A48DA80FB92FB11D25
:1002F000A35ABF4F2C91848D90E001968F7399275C
:10030000848FA689B7892C93A089B1898C91837039
:1003100080648C93938D848D981306C00288F38932
:10032000E02D80818F7D80830895EF92FF920F935F
:100330001F93CF93DF93EC0181E0888F9B8D8C8D91
:1003400098131AC0E889F989808185FF15C09FB785
:10035000F894EE89FF896083E889F9898081837048
:10036000806480839FBF81E090E0DF91CF911F91F7
:100370000F91FF90EF900895F62E0B8D10E00F5F18
:100380001F4F0F731127E02E8C8D8E110CC00FB6EE
:1003900007FCFACFE889F989808185FFF5CFCE0186
:1003A0000E947301F1CFEB8DEC0FFD2FF11DE35A8D
:1003B000FF4FF0829FB7F8940B8FEA89FB89808109
:1003C0008062CFCFCF93DF93EC01888D8823B9F083
:1003D000AA89BB89E889F9898C9185FD03C0808150
:1003E00086FD0DC00FB607FCF7CF8C9185FFF2CFCD
:1003F000808185FFEDCFCE010E947301E9CFDF91AF
:10040000CF91089580E090E0892B29F00E94690146
:1004100081110E94000080E090E0892B49F080E08B
:1004200090E0892B29F00E94000081110E940000B9
:1004300080E090E0892B49F080E090E0892B29F062
:100440000E94000081110E94000080E090E0892B52
:1004500049F080E090E0892B29F00E940000811192
:100460000C9400000895CF92DF92EF92FF920F93C9
:100470001F93CF93DF93FC0185E0569547958A95AE
:10048000E1F730E020E0C280D380E480F580C681CF
:10049000D7810D2D001F0027001F10E08081918162
:1004A0008027912780959095DE0115E0AA0FBB1F4C
:1004B0001A95E1F78A279B27D901A370BB27AA0FBA
:1004C000BB1FA60FB71F0D90BC91A02D8A279B279D
:1004D000C082D182F382E282D583C48397838683EC
:1004E0002F5F3F4F4217530771F6DF91CF911F9156
:1004F0000F91FF90EF90DF90CF9008952F923F9251
:100500004F925F926F927F928F929F92AF92BF9223
:10051000CF92DF92EF92FF920F931F93CF93DF93CF
:1005200000D000D000D01F921F92CDB7DEB74C0193
:100530005B01E982FA820B831C832D833E834F8308
:100540005887DB86CA863B019701A8016D817E81B1
:100550008F81988502E00E949546790110E000E0C5
:100560000E151F05F9F0EA85FB8582819381F0E382
:100570008F27EA85FB859383828340E852E0B401AC
:10058000CF010E943302F301219131913F01EA85AD
:10059000FB858681978182279327978386830F5FC8
:1005A0001F4FDECFF981F370F9872F2F30E040E045
:1005B00050E060E070E080E090E0A0E00E94CE4675
:1005C00009F443C0EA85FB8582819381F0E38F279C
:1005D000EA85FB859383828340E852E0B401CF0132
:1005E0000E943302000F111F000F111FD501A00F31
:1005F000B11FEA85FB851F018A859B85281A390A68
:100600003196298530E040E050E060E070E080E025
:1006100090E05101C12CD12CE12CF12C00E010E034
:100620000E94C54631F028F09D91838589278387F4
:10063000E2CF89819A8183709927EA85FB8522819F
:10064000338182279327938382832B960FB6F89466
:10065000DEBF0FBECDBFDF91CF911F910F91FF90F5
:10066000EF90DF90CF90BF90AF909F908F907F9052
:100670006F905F904F903F902F900895CF92DF92B0
:10068000EF92FF920F931F93CF93DF937C016B0147
:10069000EA01198218821B821A821D821C821F8223
:1006A0001E8240E055E0BC01CE010E94330286016B
:1006B00026E0C20ED11C8A819B81E0E18E279B83BC
:1006C0008A8340E852E0B701CE010E943302F8016C
:1006D000219131918F018E819F81822793279F8362
:1006E0008E83EC15FD0539F7DF91CF911F910F91A6
:1006F000FF90EF90DF90CF9008952F923F924F920E
:100700005F926F927F928F929F92AF92BF92CF92A1
:10071000DF92EF92FF920F931F93CF93DF93CDB7AA
:10072000DEB760970FB6F894DEBF0FBECDBF29834A
:100730003A835A016B01888B9F87F80104851585E0
:100740001C870B87268537853E872D87A1E0B0E083
:10075000F0E0E0E08D859E850E2E02C0969587958F
:100760000A94E2F7817099278D01015011099C01CB
:1007700040E050E060E070E080E090E00E947A4667
:10078000322E432E542E652E762E872E982E292E0D
:100790008B859C850E2E02C0969587950A94E2F76C
:1007A000817099279C0140E050E060E070E080E0BB
:1007B00090E00A2F0E947A462325342545255625A8
:1007C00067257825892592251981122719832A8181
:1007D00023272A83A426B526C626D7263889382774
:1007E000388B4F8549274F8731961496E031F105B4
:1007F00009F0B0CFF701E25FFB4FA0812A2F30E074
:1008000040E050E060E070E080E090E005E00E94B1
:10081000954607E10E947A46E42FE0782A2F21705E
:1008200030E040E050E060E070E080E090E003E025
:100830000E947A46622EF32F752E7B01182FB0E8A6
:10084000B90FE4272A2F30E040E050E060E070E08C
:1008500080E090E004E00E94954603E10E947A4621
:100860004870E4272A2F30E040E050E060E070E07C
:1008700080E090E003E00E9495460FE00E947A46F7
:100880006226F3272A2F30E040E050E060E070E07D
:1008900080E090E002E00E9495460BE00E947A46DC
:1008A0003870F3272A2F30E040E050E060E070E03D
:1008B00080E090E001E00E94954607E00E947A46C1
:1008C0002625598125273A813F274E2F4A25572D26
:1008D0005B256E2D6C257F2D7D25888981279F8541
:1008E0009B2760960FB6F894DEBF0FBECDBFDF9199
:1008F000CF911F910F91FF90EF90DF90CF90BF901D
:10090000AF909F908F907F906F905F904F903F90AF
:100910002F900895FC0160817181828193810895F7
:10092000EF92FF920F931F93CF93DF93EC018B0114
:100930007A0189E794E00E948A04688379838A8334
:100940009B838DE794E00E948A046C837D838E8371
:100950009F8381E894E00E948A04688779878A8768
:100960009B8785E894E00E948A046C877D878E8748
:100970009F87C8010E948A04688B798B8A8B9B8B26
:10098000C80104960E948A046C8B7D8B8E8B9F8B92
:10099000C80108960E948A04688F798F8A8F9B8F7E
:1009A000C8010C960E948A046C8F7D8F8E8F9F8F5A
:1009B000C80140960E948A0468A379A38AA39BA3D6
:1009C000C80144960E948A046CA37DA38EA39FA3B2
:1009D000C80148960E948A0468A779A78AA79BA79E
:1009E000C8014C960E948A046CA77DA78EA79FA77A
:1009F00018AA19AA1AAA1BAAC7010E948A046CABDA
:100A00007DAB8EAB9FABC70104960E948A0468AF92
:100A100079AF8AAF9BAFC70108960E948A046CAF7A
:100A20007DAF8EAF9FAFC058DF4F188219821A82F8
:100A30001B82DF91CF911F910F91FF90EF9008954E
:100A40002F923F924F925F926F927F928F929F92DE
:100A5000AF92BF92CF92DF92EF92FF920F931F93CC
:100A6000CF93DF93CDB7DEB768970FB6F894DEBFAC
:100A70000FBECDBF9C01A0E5CA2ED12C65E76D8BC2
:100A80001C0174E1270E311C2E0185E1480E511C1A
:100A9000BFE98B2E912CD9018C91BD898B27F9014F
:100AA00080834B2F50E0FA01EE0FFF1FBA01F5E0F3
:100AB00075956795FA95E1F7CA01A5E0880F991F2A
:100AC000AA95E1F78074DA0113E0AA0FBB1F1A950B
:100AD000E1F7A0728A2BDA01B695BA2FAA27B7954B
:100AE000A7958A2B9E2F9071892BDA01B595A79532
:100AF000A8708A2BDA0173E0B595A7957A95E1F78E
:100B0000A4708A2B962F9270892BD90153969C91B1
:100B10005397892753968C935397F6E055954795AD
:100B2000FA95E1F746274170E42BEF77ED8B5901F9
:100B3000ED91CD010197F0E0EE0FFF1FE25FFD4F59
:100B40004081FC0140832A163B0691F7DE01119695
:100B5000FD011D924A165B06E1F7F12CE12CD5014F
:100B60006D905D01712C10E000E0B301002E02C019
:100B7000759567950A94E2F7B62FB170BE8BA80100
:100B80004E0D5F1D8FE990E04F39510549F068E245
:100B9000649FC001659F900D1124B4010E94074617
:100BA000AC0163E0559547956A95E1F7DF01A40F25
:100BB000B51F7E89672F70E0788F6F8B440F551FAC
:100BC000440F551F440F551F841B950B01C0660F22
:100BD0008A95EAF78C9168276C930F5F1F4F083056
:100BE000110519F688E0E80EF11C90EAE916F10407
:100BF00009F0B5CF84E1D90101900D928A95E1F712
:100C0000A1E0CA1AD10809F046CF68960FB6F89449
:100C1000DEBF0FBECDBFDF91CF911F910F91FF902F
:100C2000EF90DF90CF90BF90AF909F908F907F908C
:100C30006F905F904F903F902F9008952F923F922A
:100C40004F925F926F927F928F929F92AF92BF92DC
:100C5000CF92DF92EF92FF920F931F93CF93DF9388
:100C600000D000D000D01F92CDB7DEB7EB82FC825F
:100C7000802E1D832E83532E442E352E3C016983F6
:100C80007A8318861F82B0E0A0E019861A86212C8C
:100C9000912C28853F814B2F5A2F69857A85822D8B
:100CA000992DAB80BC80C82CDD80EE80F52C042D06
:100CB000132D0E94C546F1F0F30181913F01E981B6
:100CC000FA819191FA83E9839301215031098927AF
:100CD000F901808328853F81822D992DA1E00E9412
:100CE000B04628873F83B42FA52F69877A87282E9F
:100CF000992ECFCF2A960FB6F894DEBF0FBECDBF88
:100D0000DF91CF911F910F91FF90EF90DF90CF90E7
:100D1000BF90AF909F908F907F906F905F904F901B
:100D20003F902F9008952F923F924F925F926F9233
:100D30007F928F929F92AF92BF92CF92DF92EF926B
:100D4000FF920F931F93CF93DF93CDB7DEB7C75DAD
:100D5000D1090FB6F894DEBF0FBECDBFC454DF4F2C
:100D600099838883CC5BD040CF54DF4F79836883ED
:100D7000C15BD040C254DF4F59834883CE5BD04023
:100D8000CD56DF4FC882C359D040CC56DF4FD882F2
:100D9000C459D040C956DF4FE882C759D040C85621
:100DA000DF4FF882C859D040C756DF4F0883C95972
:100DB000D040C656DF4F1883CA59D040C556DF4FC2
:100DC0002883CB59D040C456DF4F3883CC59D0400C
:100DD000C351DF4F8881CD5ED040CC54DF4F888334
:100DE000C45BD040C251DF4F9881CE5ED040CB541F
:100DF000DF4F9883C55BD040C151DF4FA881CF5EE4
:100E0000D040CA54DF4FA883C65BD040C051DF4FEB
:100E1000B881C05FD040C954DF4FB883C75BD040B2
:100E2000CF50DF4FE881C15FD040C854DF4FE88327
:100E3000C85BD040CE50DF4FF881C25FD040C7546E
:100E4000DF4FF883C95BD040CD50DF4F8881C35F4F
:100E5000D040C654DF4F8883CA5BD040CC50DF4FB0
:100E60009881C45FD040C554DF4F9883CB5BD0409E
:100E7000F4E1AF2EB12CC12CD12CE12CF12C00E0EF
:100E800010E0CD56DF4F2881C359D040CC56DF4FFC
:100E90003881C459D040C956DF4F4881C759D04026
:100EA000C856DF4F5881C859D040C756DF4F6881B8
:100EB000C959D040C656DF4F7881CA59D040C5566F
:100EC000DF4F8881CB59D040C456DF4F9881CC5931
:100ED000D0400E941D46C356DF4F2883CD59D040D5
:100EE000C256DF4F3883CE59D040C156DF4F4883BA
:100EF000CF59D040C056DF4F5883C05AD040CF554D
:100F0000DF4F6883C15AD040CE55DF4F7883C25A35
:100F1000D040CD55DF4F8883C35AD040CC55DF4FEA
:100F20009883C45AD040A1E00E94B046CB55DF4F11
:100F30002883C55AD040CA55DF4F3883C65AD0409F
:100F4000C955DF4F4883C75AD040C855DF4F588333
:100F5000C85AD040C755DF4F6883C95AD040C655DC
:100F6000DF4F7883CA5AD040C555DF4F8883CB5AAC
:100F7000D040C455DF4F9883CC5AD040CD56DF4F78
:100F80002881C359D040CC56DF4F3881C459D04056
:100F9000C956DF4F4881C759D040C856DF4F5881E6
:100FA000C859D040C756DF4F6881C959D040C6568E
:100FB000DF4F7881CA59D040C556DF4F8881CB5961
:100FC000D040C456DF4F9881CC59D0400E941B4678
:100FD000A0E00E94CE4609F450C0CB55DF4FA88157
:100FE000C55AD040C356DF4FA883CD59D040CA550B
:100FF000DF4FB881C65AD040C256DF4FB883CE59B2
:10100000D040C955DF4FE881C75AD040C156DF4FA5
:10101000E883CF59D040C855DF4FF881C85AD04037
:10102000C056DF4FF883C05AD040C755DF4F888184
:10103000C95AD040CF55DF4F8883C15AD040C655DA
:10104000DF4F9881CA5AD040CE55DF4F9883C25A9D
:10105000D040C555DF4FA881CB5AD040CD55DF4F8A
:10106000A883C35AD040C455DF4FB881CC5AD04072
:10107000CC55DF4FB883C45AD040CC54DF4F2881C1
:10108000C45BD040CB54DF4F3881C55BD040CA54DD
:10109000DF4F4881C65BD040C954DF4F5881C75BE2
:1010A000D040C854DF4F6881C85BD040C754DF4F81
:1010B0007881C95BD040C654DF4F8881CA5BD0407D
:1010C000C554DF4F9881CB5BD040ACE00E94B04666
:1010D000E4E1AE2EB12CC12CD12CE12CF12C00E09E
:1010E00010E00E941D46522E632E742E852E962EE1
:1010F000B72FF82FE92FA1E00E94B046CE53DF4F63
:101100002883C25CD040CD53DF4F3883C35CD040CE
:10111000CC53DF4F4883C45CD040CB53DF4F588360
:10112000C55CD040CA53DF4F6883C65CD040C9530A
:10113000DF4F7883C75CD040C853DF4F8883C85CDB
:10114000D040C753DF4F9883C95CD040CB55DF4FA9
:101150002881C55AD040CA55DF4F3881C65AD04081
:10116000C955DF4F4881C75AD040C855DF4F588115
:10117000C85AD040C755DF4F6881C95AD040C655BC
:10118000DF4F7881CA5AD040C555DF4F8881CB5A8E
:10119000D040C455DF4F9881CC5AD040CE53DF4F5A
:1011A000A880C25CD040CD53DF4FB880C35CD04034
:1011B000CC53DF4FC880C45CD040CB53DF4FD880C6
:1011C000C55CD040CA53DF4FE880C65CD040C953ED
:1011D000DF4FF880C75CD040C853DF4F0881C85C40
:1011E000D040C753DF4F1881C95CD0400E94C5462C
:1011F00011F008F08EC4252D362D472D582D692D60
:101200007B2F8F2F9E2FA2E00E94B046C653DF4F48
:101210002883CA5CD040C553DF4F3883CB5CD040B5
:10122000C453DF4F4883CC5CD040C353DF4F588357
:10123000CD5CD040C253DF4F6883CE5CD040C153F9
:10124000DF4F7883CF5CD040C053DF4F8883C05DD1
:10125000D040CF52DF4F9883C15DD040E9961CAE9D
:101260001DAE1EAE1FAEE99780E1C950DF4FE88189
:10127000F981C75FD040DE01AB59BF4F01900D929D
:101280008A95E1F7CE018B599F4F0E9420059E0160
:101290002F5A3F4F84E1D901E82F1D92EA95E9F7D3
:1012A000FE01B996DF01982F1D929A95E9F7FC96F9
:1012B000DE01DD96982F01900D929A95E1F7FE01DF
:1012C0003196DF011D928A95E9F788E0CF54DF4F10
:1012D000E881F981C15BD04011928A95E9F7C75046
:1012E000DF4F88819981C95FD040892B09F062C4A2
:1012F000C254DF4F88819981CE5BD040C054DF4F0C
:1013000099838883C05CD040C355DF4F2883CD5A72
:10131000D040C255DF4F3883CE5AD040CB57DF4F35
:101320001882C558D040CA57DF4F1882C658D040DF
:10133000C357DF4F1882CD58D040C257DF4F1882B5
:10134000CE58D040C157DF4F1882CF58D040C05739
:10135000DF4F1882C059D040CF56DF4F1882C15995
:10136000D040CE56DF4F1882C259D040FE01FD96C4
:10137000EF96FFAFEEAFEF97CE018996ED969FAF58
:101380008EAFED97C158DF4F1882CF57D040C0586D
:10139000DF4F1882C058D040CF57DF4F1882C15856
:1013A000D040CE57DF4F1882C258D040412C512C2C
:1013B000212C312CDE019196EB96BFAFAEAFEB97AF
:1013C000FC973F01EF96AEADBFADEF9713968C91B2
:1013D000B0E88B9F90011124EF96EEADFFADEF9733
:1013E0008585881F8827881F82279191929590FB79
:1013F000979597F98927ED96AEADBFADED979D0115
:101400002D5E3F4F91919D932A173B07D9F7ED969B
:10141000AEADBFADED9753968C93C356DF4F288189
:10142000CD59D040C256DF4F3881CE59D040C15639
:10143000DF4F4881CF59D040C056DF4F5881C05A46
:10144000D040CF55DF4F6881C15AD040CE55DF4FD5
:101450007881C25AD040CD55DF4F8881C35AD040E1
:10146000CC55DF4F9881C45AD040C158DF4FA88077
:10147000CF57D040C058DF4FB880C058D040CF576A
:10148000DF4FC880C158D040CE57DF4FD880C258F8
:10149000D040720181010E94C54609F008F4F6C0EF
:1014A0008CE0CB50DF4FE881F981C55FD040DE0191
:1014B000559601900D928A95E1F7EB96EEADFFAD52
:1014C000EB9788E011928A95E9F764E1E62EF12C1A
:1014D00000E010E020E030E040E050E0EF966EAD3C
:1014E0007FADEF97CE0145960E941E06CE01459630
:1014F0000E94200520E030E040E050E0EF966EAD25
:101500007FADEF97CE0145960E941E06C356DF4F72
:101510002881CD59D040C256DF4F3881CE59D040B6
:10152000C156DF4F4881CF59D040C056DF4F588158
:10153000C05AD040CF55DF4F6881C15AD040CE55F8
:10154000DF4F7881C25AD040CD55DF4F8881C35AD2
:10155000D040CC55DF4F9881C45AD040AFEF0E94A5
:10156000B046C158DF4FA880CF57D040C058DF4F9A
:10157000B880C058D040CF57DF4FC880C158D04046
:10158000CE57DF4FD880C258D040720181010E94EF
:10159000C54609F02BC3CD56DF4F2881C359D04033
:1015A000CC56DF4F3881C459D040C956DF4F4881EF
:1015B000C759D040C856DF4F5881C859D040C75688
:1015C000DF4F6881C959D040C656DF4F7881CA596C
:1015D000D040C556DF4F8881CB59D040C456DF4F2D
:1015E0009881CC59D040CB57DF4FA880C558D04008
:1015F000CA57DF4FB880C658D040C357DF4FC880A6
:10160000CD58D040C257DF4FD880CE58D040C157B8
:10161000DF4FE880CF58D040C057DF4FF880C05927
:10162000D040CF56DF4F0881C159D040CE56DF4F52
:101630001881C259D0400E94BC4659019B01CB572A
:10164000DF4FC880C558D040CA57DF4FD880C65832
:10165000D040C254DF4F68817981CE5BD0406C0DA1
:101660007D1D75018A01AC01CE0145960E941E06C2
:10167000A501BE016B5E7F4FC454DF4F8881998105
:10168000CC5BD0408C0D9D1D0E94DC47CB55DF4FBD
:101690002881C55AD040CA55DF4F3881C65AD0403C
:1016A000C955DF4F4881C75AD040C855DF4F5881D0
:1016B000C85AD040C755DF4F6881C95AD040C65577
:1016C000DF4F7881CA5AD040C555DF4F8881CB5A49
:1016D000D040C455DF4F9881CC5AD040C158DF4F1D
:1016E000A880CF57D040C058DF4FB880C058D040F6
:1016F000CF57DF4FC880C158D040CE57DF4FD8807A
:10170000C258D040720181010E94C54611F008F014
:1017100077C2CE53DF4F2881C25CD040CD53DF4F1C
:101720003881C35CD040CC53DF4F4881C45CD0408B
:10173000CB53DF4F5881C55CD040CA53DF4F68811F
:10174000C65CD040C953DF4F7881C75CD040C853D6
:10175000DF4F8881C85CD040C753DF4F9881C95C98
:10176000D040C158DF4FA880CF57D040C058DF4F7E
:10177000B880C058D040CF57DF4FC880C158D04044
:10178000CE57DF4FD880C258D040720181010E94ED
:10179000C54608F4EEC2C158DF4F2881CF57D0406C
:1017A000C058DF4F3881C058D040CF57DF4F4881F5
:1017B000C158D040CE57DF4F5881C258D040B201F7
:1017C000C101AFEF0E94B046CD57DF4F2883C35809
:1017D000D040C957DF4F3883C758D0404A01C85757
:1017E000DF4F6883C858D040C757DF4F7883C95848
:1017F000D040C657DF4F8883CA58D040C557DF4F07
:101800009883CB58D040A0E00E94CE4609F037C460
:101810008CE0CB50DF4FE881F981C55FD040D30128
:1018200001900D928A95E1F7BCE0CD54DF4FB8836B
:10183000C35BD040CB57DF4F2881C558D040CA5733
:10184000DF4F3881C658D040C357DF4F4881CD584D
:10185000D040C257DF4F5881CE58D040C157DF4FDC
:101860006881CF58D040C057DF4F7881C059D040F1
:10187000CF56DF4F8881C159D040CE56DF4F988177
:10188000C259D040ACEE0E94B046CB56DF4F288301
:10189000C559D040CA56DF4F3883C659D040C457C7
:1018A000DF4F4883CC58D040C155DF4F5883CF5AC3
:1018B000D040C055DF4F6883C05BD040B72FF82FB2
:1018C000E92FCD57DF4F2881C358D040C957DF4F8C
:1018D0003881C758D040A401C857DF4F6881C85825
:1018E000D040C757DF4F7881C958D040C657DF4F27
:1018F0008881CA58D040C557DF4F9881CB58D04017
:10190000A0E00E94CE4609F4C0C32CE0A22EB12C68
:10191000C12CD12CE12CF12C00E010E0CB56DF4F94
:101920002881C559D040CA56DF4F3881C659D040AA
:10193000C457DF4F4881CC58D040C155DF4F588144
:10194000CF5AD040C055DF4F6881C05BD0407B2F5D
:101950008F2F9E2F0E94BC46CB56DF4F2883C55940
:10196000D040CA56DF4F3883C659D040FA01B62F4F
:10197000C457DF4F7883CC58D040C155DF4F8883A0
:10198000CF5AD040C055DF4F9883C05BD040CD5771
:10199000DF4F2881C358D040C957DF4F3881C7581F
:1019A000D040A401C857DF4F6881C858D040C757FE
:1019B000DF4F7881C958D040C657DF4F8881CA5859
:1019C000D040C557DF4F9881CB58D040A0E00E944F
:1019D000CE4609F47AC3CC54DF4F2881C45BD04093
:1019E000CB54DF4F3881C55BD040CA54DF4F4881AC
:1019F000C65BD040C954DF4F5881C75BD040C85444
:101A0000DF4F6881C85BD040C754DF4F7881C95B26
:101A1000D040C654DF4F8881CA5BD040C554DF4FE9
:101A20009881CB5BD040CB56DF4FA880C559D040C2
:101A3000CA56DF4FB880C659D0406F01EB2EC4574D
:101A4000DF4FF880CC58D040C155DF4F0881CF5AC6
:101A5000D040C055DF4F1881C05BD0400E94C546C2
:101A600009F033C384E1F30111928A95E9F7F1E0BB
:101A7000F98384E1E82EF12C00E010E020E030E072
:101A800040E050E0C355DF4F6881CD5AD040C25589
:101A9000DF4F7881CE5AD040C3010E941E0620E05D
:101AA00030E040E050E0ED966EAD7FADED97C301C4
:101AB0000E941E06C3010E94200520E030E040E0A5
:101AC00050E0C355DF4F6881CD5AD040C255DF4F3B
:101AD0007881CE5AD040C3010E941E0620E030E03B
:101AE00040E050E0ED966EAD7FADED97C3010E94F2
:101AF0001E0698E0E92E20E030E040E050E0B3011F
:101B0000CF54DF4F88819981C15BD0400E941E066F
:101B100030C1CB55DF4FE881C55AD040C653DF4FA7
:101B2000E883CA5CD040CA55DF4FF881C65AD0401E
:101B3000C553DF4FF883CB5CD040C955DF4F888158
:101B4000C75AD040C453DF4F8883CC5CD040C855BF
:101B5000DF4F9881C85AD040C353DF4F9883CD5C84
:101B6000D040C755DF4FA881C95AD040C253DF4F7C
:101B7000A883CE5CD040C655DF4FB881CA5AD0404A
:101B8000C153DF4FB883CF5CD040C555DF4FE881EC
:101B9000CB5AD040C053DF4FE883C05DD040C4551E
:101BA000DF4FF881CC5AD040CF52DF4FF883C15D70
:101BB000D04054CBC454DF4FA881B981CC5BD04016
:101BC000C054DF4FB983A883C05CD0409DCBED9655
:101BD0008EAD9FADED97EF969FAF8EAFEF97EC96E2
:101BE000FFAFEC97ED96EFAFED97ECCB54E1A52E60
:101BF000B12C40E050E020E030E080E090E01FCDEC
:101C0000CD56DF4F2881C359D040CC56DF4F3881A5
:101C1000C459D040C956DF4F4881C759D040C85633
:101C2000DF4F5881C859D040C756DF4F6881C95926
:101C3000D040C656DF4F7881CA59D040C556DF4FD5
:101C40008881CB59D040C456DF4F9881CC59D040C1
:101C5000CB57DF4FA880C558D040CA57DF4FB88058
:101C6000C658D040C357DF4FC880CD58D040C25768
:101C7000DF4FD880CE58D040C157DF4FE880CF58D3
:101C8000D040C057DF4FF880C059D040CF56DF4F0B
:101C90000881C159D040CE56DF4F1881C259D0407B
:101CA0000E94C54609F05DC184E1D3011D928A9569
:101CB000E9F7B1E0B98334E1E32EF12C00E010E064
:101CC00020E030E040E050E0EF966EAD7FADEF9762
:101CD000C3010E941E0620E030E040E050E0ED9697
:101CE0006EAD7FADED97C3010E941E06C3010E9439
:101CF000200520E030E040E050E0EF966EAD7FAD93
:101D0000EF97C3010E941E0620E030E040E050E063
:101D1000ED966EAD7FADED97C3010E941E0648E0C3
:101D2000E42E20E030E040E050E0B301CF54DF4F3C
:101D300088819981C15BD0400E941E06C158DF4F47
:101D40002881CF57D040C058DF4F3881C058D0408D
:101D5000CF57DF4F4881C158D040CE57DF4F588111
:101D6000C258D040B201C101A0E00E94CE4609F0A5
:101D7000D0CCCB57DF4F2881C558D040CA57DF4F52
:101D80003881C658D040C357DF4F4881CD58D04026
:101D9000C257DF4F5881CE58D040C157DF4F6881BE
:101DA000CF58D040C057DF4F7881C059D040CF5670
:101DB000DF4F8881C159D040CE56DF4F9881C2593C
:101DC000D040A4E10E94B046CB57DF4F2883C558CE
:101DD000D040CA57DF4F3883C658D040C357DF4F73
:101DE0004883CD58D040C257DF4F5883CE58D0409B
:101DF000C157DF4F6883CF58D040C057DF4F78833B
:101E0000C059D040CF56DF4F8883C159D040CE56FD
:101E1000DF4F9883C259D040C158DF4F2881CF5738
:101E2000D040C058DF4F3881C058D040CF57DF4F27
:101E30004881C158D040CE57DF4F5881C258D0405A
:101E4000B201C101A1E00E94B046C158DF4F288312
:101E5000CF57D040C058DF4F3883C058D040CF57FD
:101E6000DF4F4883C158D040CE57DF4F5883C25808
:101E7000D0402B011C01C355DF4FF881CD5AD04013
:101E8000C255DF4FE881CE5AD040EE968FADEE9727
:101E9000C355DF4F8883CD5AD040EF969FADEF9763
:101EA000C255DF4F9883CE5AD040C653DF4F2881AA
:101EB000CA5CD040C553DF4F3881CB5CD040C4539F
:101EC000DF4F4881CC5CD040C353DF4F5881CD5C9D
:101ED000D040C253DF4F6881CE5CD040C153DF4F4A
:101EE0007881CF5CD040C053DF4F8881C05DD04047
:101EF000CF52DF4F9881C15DD040C158DF4FA880DD
:101F0000CF57D040C058DF4FB880C058D040CF57CF
:101F1000DF4FC880C158D040CE57DF4FD880C2585D
:101F2000D040720181010E94C54609F050CEC952CD
:101F3000DF4F0FB6F894DEBF0FBECDBFDF91CF915C
:101F40001F910F91FF90EF90DF90CF90BF90AF90D7
:101F50009F908F907F906F905F904F903F902F90C9
:101F60000895CB57DF4F8880C558D040CA57DF4F00
:101F70009880C658D040C054DF4FE881F981C05CDA
:101F8000D040E80DF91DCD56DF4F2881C359D04010
:101F9000CC56DF4F3881C459D040C956DF4F4881F5
:101FA000C759D040C856DF4F5881C859D040C7568E
:101FB000DF4F6881C959D040C656DF4F7881CA5972
:101FC000D040C556DF4F8881CB59D040C456DF4F33
:101FD0009881CC59D0405401C357DF4FC880CD58A9
:101FE000D040C257DF4FD880CE58D040C157DF4FC6
:101FF000E880CF58D040C057DF4FF880C059D0405C
:10200000CF56DF4F0881C159D040CE56DF4F1881DF
:10201000C259D0400E94BC46A3E10E94CE4641F086
:1020200038F084E1D30101900D928A95E1F743CE17
:10203000CD56DF4F0881C359D040CC56DF4F1881B1
:10204000C459D0407801E818F908A701BF01C301BD
:102050000E94DC4744E150E0401B510B480D591DE4
:10206000C301800F911F70E060E0881999090E94F8
:10207000E547F301EE0DFF1D81E080831CCECD54BA
:10208000DF4F1882C35BD040D5CBCD57DF4FA88040
:10209000C358D040C957DF4FB880C758D0406401FB
:1020A000C857DF4FE880C858D040C757DF4FF88087
:1020B000C958D040C657DF4F0881CA58D040C557CD
:1020C000DF4F1881CB58D04029CC24E130E040E0EC
:1020D00050E060E070E080E090E0CD54DF4FA880F9
:1020E000C35BD040B12CC12CD12CE12CF12C00E0F1
:1020F00010E00E94BC46C957DF4F2883C758D04024
:10210000C857DF4F3883C858D040CE52DF4F48837E
:10211000C25DD040CD52DF4F5883C35DD040CC521A
:10212000DF4F6883C45DD040CB52DF4F7883C55DFD
:10213000D040CA52DF4F8883C65DD040C952DF4FBE
:102140009883C75DD040CC54DF4F2881C45BD0401A
:10215000CB54DF4F3881C55BD040CA54DF4F488134
:10216000C65BD040C954DF4F5881C75BD040C854CC
:10217000DF4F6881C85BD040C754DF4F7881C95BAF
:10218000D040C654DF4F8881CA5BD040C554DF4F72
:102190009881CB5BD040CB56DF4FA880C559D0404B
:1021A000CA56DF4FB880C659D0406F01EB2EC457D6
:1021B000DF4FF880CC58D040C155DF4F0881CF5A4F
:1021C000D040C055DF4F1881C05BD0400E94BC4654
:1021D000F22FE32FC757DF4F4883C958D040C65767
:1021E000DF4F5883CA58D040C557DF4F6883CB585C
:1021F000D040C457DF4F7883CC58D040B82FA92F98
:10220000C957DF4F8881C758D040CD57DF4F8883EB
:10221000C358D040C857DF4F9881C858D040CC57DA
:10222000DF4F9883C458D040CD54DF4F8880C35BC4
:10223000D040912C9C01CE52DF4F4881C25DD040EE
:10224000CD52DF4F5881C35DD040CC52DF4F688103
:10225000C45DD040CB52DF4F7881C55DD040CA52BB
:10226000DF4F8881C65DD040C952DF4F9881C75D7E
:10227000D040AF2EBE2EC757DF4FC880C958D040C0
:10228000C657DF4FD880CA58D040C557DF4FE880C7
:10229000CB58D040C457DF4FF880CC58D0400B2FDC
:1022A0001A2F0E94C54609F0B0F4CB56DF4F688163
:1022B000C559D040CA56DF4F7881C659D040CD5756
:1022C000DF4F48815981C358D040C301880D991D03
:1022D0000E94DC47CECBEF2EFE2E2F2F3E2FC7576E
:1022E000DF4F4881C958D040C657DF4F5881CA5880
:1022F000D040C557DF4F6881CB58D040C457DF4F1F
:102300007881CC58D0408B2F9A2FA0E00E94CE46E7
:1023100081F0CB56DF4F6881C559D040CA56DF4F98
:102320007881C659D040A701C301880D991D0E942C
:10233000DC4784010E0D1F1D060D171DCD57DF4F05
:1023400048815981C358D0404E195F0970E060E060
:10235000C8010E94E547E1E0D801EC938ACBFC017B
:1023600001900020E9F73197AF01481B590BBC01E0
:1023700089E596E00C94FF008F929F92AF92BF92F6
:102380000F931F93CF93DF93CDB7DEB7A1970FB60F
:10239000F894DEBF0FBECDBF19A2423008F44AE068
:1023A0008E010F5D1F4F842E912CB12CA12CA50105
:1023B00094010E94D645E62FB901CA01EA30F4F42F
:1023C000E05DD801EE938D01232B242B252B79F78B
:1023D00090E080E0109719F0CD010E94AF11A19616
:1023E0000FB6F894DEBF0FBECDBFDF91CF911F9126
:1023F0000F91BF90AF909F908F900895E95CE1CFCF
:10240000009711F00C94AF1190E080E008958BE8F4
:1024100094E00C940012CF93DF93D0E0C0E00097DB
:1024200019F00E94AF11EC018AE894E00E94AF110C
:102430008C0F9D1FDF91CF910895CF92DF92EF9285
:10244000FF92CF93DF936C01990FEE08FF08F7FE20
:102450001FC06DE289E596E00E949501EC016627B8
:102460007727CB016C197D098E099F094AE00E94EC
:10247000BC11C80FD91F8AE894E00E94AF118C0FDD
:102480009D1FDF91CF91FF90EF90DF90CF90089547
:102490004AE0C701B6010E94BC11EC01ECCFCF931A
:1024A000DF93EC018DE894E00E9400124AE062E0C4
:1024B00070E080E090E00E94BC1180E994E00E940E
:1024C00000128881803120F484E396E00E9400129B
:1024D000688170E090E080E040E10E94BC1188E9F2
:1024E00094E00E9400128981803120F484E396E018
:1024F0000E940012698170E090E080E040E10E945B
:10250000BC1188E994E00E9400128AE894E0DF910F
:10251000CF910C94AF112F923F924F925F926F9296
:102520007F928F929F92AF92BF92CF92DF92EF9263
:10253000FF920F931F93CF93DF93CDB7DEB7CC56A7
:10254000D1090FB6F894DEBF0FBECDBFFC018C01E0
:10255000005C1F4FA9961FAF0EAFA9971B019B01EF
:102560002E5F3F4FA3963FAF2EAFA397AC014058CD
:102570005F4F21965FAF4EAF2197A5961FAF0EAF6D
:10258000A597BC01605B7F4F25967FAF6EAF259707
:1025900080599F4F27969FAF8EAF2797DF01A05A94
:1025A000BF4F2996BFAFAEAF29970C5E1F4F2B963A
:1025B0001FAF0EAF2B979F012C5B3F4F2D963FAF68
:1025C0002EAF2D974C5051092F965FAF4EAF2F97DE
:1025D0006C5E7F4F61967FAF6EAF61974897639651
:1025E0009FAF8EAF639758976596BFAFAEAF6597B5
:1025F0000C5D1F4F67961FAF0EAF67972C5D3F4F67
:1026000069963FAF2EAF6997485151096B965FAFFE
:102610004EAF6B97685171096D967FAF6EAF6D9736
:1026200084966F969FAF8EAF6F979496A196BFAF2B
:10263000AEAFA197A9960EAD1FADA997005C1F4F35
:10264000A7961FAF0EAFA7972196AEADBFAD21974E
:102650004D915D916D917C91DB01CA018F7399273A
:10266000AA27BB27892B8A2B8B2B11F00C94A63819
:102670002396FFAFEEAF2397A9964EAC5FACA99718
:102680005EAE4DAEC2018F01D8014D915D916D914D
:102690007D918D01DC014D935D936D937D93CD0113
:1026A000A5964EAC5FACA5970415150569F7259660
:1026B000AEADBFAD2597CD90DD90ED90FC90A99685
:1026C000AEADBFADA9970D911D912D913C910C0D13
:1026D0001D1D2E1D3F1D2796AEADBFAD27974D91F9
:1026E0005D916D917C9140275127622773272A01C4
:1026F000AB01B2012996AEADBFAD29978D909D90EB
:10270000AD90BC90840E951EA61EB71ED701C601C3
:1027100088259925AA25BB256C017D010B2EBCE0DF
:10272000CC0CDD1CEE1CFF1CBA95D1F7B02D072E8A
:1027300074E1B695A795979587957A95D1F7702D01
:102740008C299D29AE29BF2928013901480E591E1F
:102750006A1E7B1E4D865E866F86788A44255525C7
:1027600066257725D42EE52EF62EC72EC98ADA8A5D
:10277000EB8AFC8AC80CD91CEA1CFB1CCD8ADE8AB9
:10278000EF8AF88E8C259D25AE25BF258C019D01F5
:1027900047E0000F111F221F331F4A95D1F7AC01EC
:1027A000BD01A9E17695679557954795AA95D1F70B
:1027B000402B512B622B732B49875A876B877C8761
:1027C0002B96AEADBFAD2B97CD90DD90ED90FC90EC
:1027D0002D96AEADBFAD2D970D911D912D913C91D4
:1027E0000C0D1D1D2E1D3F1D2F96AEADBFAD2F979D
:1027F0004D915D916D917C91402751276227732700
:102800002A01AB01B2016196AEADBFAD61978D906B
:102810009D90AD90BC90840E951EA61EB71EC82438
:10282000D924EA24FB2426013701BCE0440C551CC2
:10283000661C771CBA95D1F784E1F694E794D79497
:10284000C7948A95D1F7C428D528E628F728280107
:1028500039014C0C5D1C6E1C7F1C498E5A8E6B8E90
:102860007C8E4425552566257725142F252F362F58
:10287000072F0D8F1E8F2F8F38A3080D191D2A1DAE
:102880003B1D09A31AA32BA33CA3C026D126E226F5
:10289000F326B701A60197E0440F551F661F771F67
:1028A0009A95D1F72601370129E1769467945794D8
:1028B00047942A95D1F7442A552A662A772A4982CD
:1028C0005A826B827C826396AEADBFAD63974D91A9
:1028D0005D916D917C916596AEADBFAD6597CD90E4
:1028E000DD90ED90FC90C40ED51EE61EF71E679697
:1028F000AEADBFAD67970D911D912D913C910C250B
:102900001D252E253F252801890192016996AEAD2E
:10291000BFAD69974D905D906D907C90400E511EBB
:10292000621E731E44255525662577254A015B01E5
:10293000ACE0880C991CAA1CBB1CAA95D1F7B4E189
:102940007695679557954795BA95D1F748295929AE
:102950006A297B2946015701840E951EA61EB71EC3
:102960008DA29EA2AFA2B8A6082519252A253B252F
:10297000B02EC12ED22EA32EA9A6BAA6CBA6DCA617
:102980004A0C5B1C6C1C7D1C44255525662577254F
:102990008A019B0187E0000F111F221F331F8A95B8
:1029A000D1F7DB01CA0149E1B695A79597958795BF
:1029B0004A95D1F7802B912BA22BB32B8D839E832D
:1029C000AF83B8876B96AEADBFAD6B970D911D9180
:1029D0002D913C916D96AEADBFAD6D97CD90DD90D4
:1029E000ED90FC90C00ED11EE21EF31E6F96AEADB0
:1029F000BFAD6F974D915D916D917C914C255D259B
:102A00006E257F254A01AB01B401A196AEADBFADE5
:102A1000A1978D909D90AD90BC90840E951EA61EA2
:102A2000B71ED901C80188259925AA25BB258C0187
:102A30009D010F2EFCE0000F111F221F331FFA957E
:102A4000D1F7F02D072E74E1B695A7959795879548
:102A50007A95D1F7702D802B912BA22BB32B970158
:102A60008601080F191F2A1F3B1F0DA71EA72FA79E
:102A700038AB4027512762277327142F472F762F13
:102A8000652F512F75016401C40ED51EE61EF71E79
:102A9000C9AEDAAEEBAEFCAE8C259D25AE25BF25CA
:102AA0006C017D0127E0CC0CDD1CEE1CFF1C2A957F
:102AB000D1F739E1B695A795979587953A95D1F7CE
:102AC0008C299D29AE29BF290D851E852F85388922
:102AD00089809A80AB80BC80080D191D2A1D3B1D82
:102AE00040275127622773275A01AB01B501440ED5
:102AF000551E661E771EC980DA80EB80FC80C424D8
:102B0000D524E624F72446015701072E7CE0880CE3
:102B1000991CAA1CBB1C7A95D1F7702D0B2EB4E121
:102B2000F694E794D794C794BA95D1F7B02DC828F6
:102B3000D928EA28FB28480159018C0C9D1CAE1CA1
:102B4000BF1C8D869E86AF86B88A482559256A2582
:102B50007B25142F252F362F072F09AB1AAB2BAB54
:102B60003CAB040D151D261D371D0DAB1EAB2FAB49
:102B700038AFC026D126E226F326B701A60127E00A
:102B8000440F551F661F771F2A95D1F797018601BD
:102B90000F2EF9E13695279517950795FA95D1F7F8
:102BA000F02D042B152B262B372B09831A832B830F
:102BB0003C83098D1A8D2B8D3C8D4D815E816F81FB
:102BC0007885040F151F261F371F49895A896B897D
:102BD0007C8940275127622773272A01AB01B20164
:102BE00089AC9AACABACBCAC840E951EA61EB71ECD
:102BF000CD80DE80EF80F884C824D924EA24FB2429
:102C000026013701032E3CE0440C551C661C771C42
:102C10003A95D1F7302D0B2EB4E1F694E794D79482
:102C2000C794BA95D1F7B02DC428D528E628F7283F
:102C3000280139014C0C5D1C6E1C7F1C498A5A8A84
:102C40006B8A7C8A4425552566257725142F252FE8
:102C5000362F072F098F1A8F2B8F3C8F080D191DC8
:102C60002A1D3B1D09AF1AAF2BAF3CAFC026D126A2
:102C7000E226F326B701A60127E0440F551F661F81
:102C8000771F2A95D1F73601470139E19694879449
:102C9000779467943A95D1F7642A752A862A972AF9
:102CA0006D827E828F829886CDA0DEA0EFA0F8A4F0
:102CB000C80ED91EEA1EFB1E4D8D5E8D6F8D78A14C
:102CC0004C255D256E257F254A01AB01B4018D8819
:102CD0009E88AF88B88C840E951EA61EB71E8825C8
:102CE0009925AA25BB252C013D011CE0440C551C4F
:102CF000661C771C1A95D1F704E1B695A7959795B0
:102D000087950A95D1F784299529A629B72997018E
:102D10008601080F191F2A1F3B1F0D8B1E8B2F8B3F
:102D2000388F4027512762277327542E652E762E21
:102D3000472E4D8E5E8E6F8E78A2480C591C6A1CF1
:102D40007B1CAD964CAE5DAE6EAE7FAEAD9784256E
:102D50009525A625B725AC01BD0127E0440F551FD9
:102D6000661F771F2A95D1F739E1B695A7959795F4
:102D700087953A95D1F7842B952BA62BB72B4984B1
:102D80005A846B847C84EDA4FEA40FA518A94E0C74
:102D90005F1C601E711E09A51AA52BA53CA5042564
:102DA000152526253725A80189019A01C9A0DAA091
:102DB000EBA0FCA0C00ED11EE21EF31E49855A8571
:102DC0006B857C854C255D256E257F254A015B0141
:102DD000072E7CE0880C991CAA1CBB1C7A95D1F7A5
:102DE000702D032E34E176956795579547953A9562
:102DF000D1F7302D482959296A297B2953014201ED
:102E0000840E951EA61EB71E89A29AA2ABA2BCA2D2
:102E1000082519252A253B25502E612E722E432E7A
:102E20004DA25EA26FA278A64C0C5D1C6E1C7F1C8E
:102E30004DA65EA66FA678AA44255525662577255A
:102E40008A019B01689416F8000F111F221F331F7F
:102E50001694D1F7032E39E17695679557954795E6
:102E60003A95D1F7302D402B512B622B732B0D85CA
:102E70001E852F853889040F151F261F371F498C83
:102E80005A8C6B8C7C8C402651266226732652010C
:102E900023013501AD968CAC9DACAEACBFACAD970B
:102EA000840C951CA61CB71C482559256A257B2532
:102EB0006A017B010B2EBCE0CC0CDD1CEE1CFF1C60
:102EC000BA95D1F7B02D032E34E1769567955795D5
:102ED00047953A95D1F7302D4C295D296E297F29E8
:102EE00068017901C40ED51EE61EF71ECD86DE866A
:102EF000EF86F88A4C245D246E247F24F42C052D63
:102F0000162DE72CE98EFA8E0B8F1C8FE80CF91C1E
:102F10000A1D1B1DE9A6FAA60BA71CA74E255F25B7
:102F2000602771278A019B01689416F8000F111F12
:102F3000221F331F1694D1F72A013B0149E17694F1
:102F40006794579447944A95D1F7402A512A622AA8
:102F5000732A49865A866B867C8609811A812B8161
:102F60003C8169887A888B889C88060D171D281DEE
:102F7000391D8D8C9E8CAF8CB8A080269126A22600
:102F8000B326640145015601CDA4DEA4EFA4F8A840
:102F9000C80CD91CEA1CFB1C49815A816B817C81BD
:102FA0004C255D256E257F252A013B01032E3CE043
:102FB000440C551C661C771C3A95D1F7302D032E16
:102FC00034E176956795579547953A95D1F7302D29
:102FD000442955296629772928013901440E551EAF
:102FE000661E771E498A5A8A6B8A7C8A84249524B5
:102FF000A624B724182D292D3A2D0B2D0D8F1E8FA9
:103000002F8F38A30C0D1D1D2E1D3F1D0DA71EA7B4
:103010002FA738AB40275127622773278A019B01CE
:10302000689416F8000F111F221F331F1694D1F752
:103030003A014B0149E196948794779467944A95B5
:10304000D1F7602A712A822A932A69827A828B8236
:103050009C82CD80DE80EF80F8848D889E88AF884A
:10306000B88CC80CD91CEA1CFB1C0DA11EA12FA1F9
:1030700038A50C251D252E253F25580189019501D0
:103080004DA85EA86FA878AC400E511E621E731E3C
:103090004D815E816F81788544255525662577258C
:1030A0004A015B01072E7CE0880C991CAA1CBB1C02
:1030B0007A95D1F7702D032E34E176956795579563
:1030C00047953A95D1F7302D482959296A297B2906
:1030D00046015701840E951EA61EB71E8D8A9E8A34
:1030E000AF8AB88E082519252A253B25B02EC12E7A
:1030F000D22EA32EADA2BEA2CFA2D8A67601650184
:10310000C40CD51CE61CF71C4C255D256E257F25BF
:103110008A019B01689416F8000F111F221F331FAC
:103120001694D1F72A013B0149E1769467945794AC
:1031300047944A95D1F7402A512A622A732A4D8230
:103140005E826F82788649A05AA06BA07CA0480E50
:10315000591E6A1E7B1E49A95AA96BA97CA9442540
:103160005525662577254A01AB01B40189AC9AAC97
:10317000ABACBCAC840E951EA61EB71E8825992547
:10318000AA25BB258C019D010F2EFCE0000F111F0D
:10319000221F331FFA95D1F7F02D072E74E1B69553
:1031A000A795979587957A95D1F7702D802B912BC0
:1031B000A22BB32B93018201080F191F2A1F3B1F5B
:1031C00009A31AA32BA33CA34027512762277327E7
:1031D000142F472F762F652F512F24013501440ED0
:1031E000551E661E771E49AE5AAE6BAE7CAE842568
:1031F0009525A625B7252C013D0127E0440C551C3B
:10320000661C771C2A95D1F739E1B695A795979555
:1032100087953A95D1F784299529A629B7290D854F
:103220001E852F85388969807A808B809C80060D69
:10323000171D281D391D2A013B01402651266226F3
:103240007326420123013401C40CD51CE61CF71C73
:1032500049815A816B817C814C255D256E257F25B6
:103260004A015B01072E7CE0880C991CAA1CBB1C40
:103270007A95D1F7702D032E34E1769567955795A1
:1032800047953A95D1F7302D482959296A297B2944
:1032900048015901840E951EA61EB71E8D869E8676
:1032A000AF86B88A482459246A247B24142D252DFE
:1032B000362D072D09AB1AAB2BAB3CAB0C0D1D1DEE
:1032C0002E1D3F1D0DAB1EAB2FAB38AF4027512736
:1032D000622773278A019B01689416F8000F111F5B
:1032E000221F331F1694D1F75A016B0149E1D6947E
:1032F000C794B794A7944A95D1F7A02AB12AC22AB5
:10330000D32AA982BA82CB82DC8209891A892B89C5
:103310003C89CD80DE80EF80F8840C0D1D1D2E1DB4
:103320003F1D498C5A8C6B8C7C8C40265126622622
:10333000732672012301370189AC9AACABACBCACEB
:10334000840C951CA61CB71C4D815E816F8178850D
:10335000482559256A257B256A017B010B2EBCE097
:10336000CC0CDD1CEE1CFF1CBA95D1F7B02D032E42
:1033700034E176956795579547953A95D1F7302D75
:103380004C295D296E297F2968017901C40ED51E5B
:10339000E61EF71EC98ADA8AEB8AFC8A4C245D2471
:1033A0006E247F24F42C052D162DE72CE98EFA8E41
:1033B0000B8F1C8FE80CF91C0A1D1B1DE9AEFAAE21
:1033C0000BAF1CAF4E255F25602771278A019B013B
:1033D000689416F8000F111F221F331F1694D1F79F
:1033E0002A013B0149E176946794579447944A95A2
:1033F000D1F7402A512A622A732A4D825E826F8257
:103400007886CD88DE88EF88F88CC80ED91EEA1E33
:10341000FB1E4D8D5E8D6F8D78A14C255D256E2533
:103420007F253A01AB01B30189A49AA4ABA4BCA443
:10343000840E951EA61EB71E88259925AA25BB2594
:103440002C013D011CE0440C551C661C771C1A9590
:10345000D1F704E1B695A795979587950A95D1F789
:1034600084299529A629B72997018601080F191FD4
:103470002A1F3B1F0D8B1E8B2F8B388F4027512708
:1034800062277327542E652E762E472E4D8E5E8E24
:103490006F8E78A2480C591C6A1C7B1C49A65AA640
:1034A0006BA67CA684259525A625B725AC01BD0174
:1034B00027E0440F551F661F771F2A95D1F739E182
:1034C000B695A795979587953A95D1F7842B952B27
:1034D000A62BB72B49845A846B847C84E9A0FAA07C
:1034E0000BA11CA14E0C5F1C601E711E0DA11EA124
:1034F0002FA138A50425152526253725A8018901E2
:103500009A01CDA4DEA4EFA4F8A8C00ED11EE21E3D
:10351000F31E49855A856B857C854C255D256E2576
:103520007F254A015B01072E7CE0880C991CAA1CB0
:10353000BB1C7A95D1F7702D032E34E176956795F3
:10354000579547953A95D1F7302D482959296A2939
:103550007B2953014201840E951EA61EB71E89A227
:103560009AA2ABA2BCA2082519252A253B25502EDC
:10357000612E722E432E4DA25EA26FA278A64C0C35
:103580005D1C6E1C7F1C4DA65EA66FA678AA442506
:103590005525662577258A019B01689416F8000F4A
:1035A000111F221F331F1694D1F7032E39E1769590
:1035B0006795579547953A95D1F7302D402B512B6C
:1035C000622B732B0D851E852F853889040F151FDF
:1035D000261F371F498C5A8C6B8C7C8C40265126B9
:1035E0006226732652012301350189A49AA4ABA453
:1035F000BCA4840C951CA61CB71C482559256A251B
:103600007B256A017B010B2EBCE0CC0CDD1CEE1C83
:10361000FF1CBA95D1F7B02D032E34E1769567954E
:10362000579547953A95D1F7302D4C295D296E294C
:103630007F2968017901C40ED51EE61EF71ECD86CE
:10364000DE86EF86F88A4C245D246E247F24F42CD9
:10365000052D162DE72CE98EFA8E0B8F1C8FE80CAA
:10366000F91C0A1D1B1DE9A6FAA60BA71CA74E25CF
:103670005F25602771278A019B01689416F8000F67
:10368000111F221F331F1694D1F72A013B0149E174
:1036900076946794579447944A95D1F7402A512AD3
:1036A000622A732A49865A866B867C8609811A812A
:1036B0002B813C8169887A888B889C88060D171D30
:1036C000281D391D8D8C9E8CAF8CB8A0802691262C
:1036D000A226B326640145015601CDA4DEA4EFA4C1
:1036E000F8A8C80CD91CEA1CFB1C49815A816B81C3
:1036F0007C814C255D256E257F252A013B01032E0B
:103700003CE0440C551C661C771C3A95D1F7302DD3
:10371000032E34E176956795579547953A95D1F7FD
:10372000302D442955296629772928013901440E6D
:10373000551E661E771E498A5A8A6B8A7C8A8424A3
:103740009524A624B724182D292D3A2D0B2D0D8F45
:103750001E8F2F8F38A30C0D1D1D2E1D3F1D0DA775
:103760001EA72FA738AB40275127622773278A014E
:103770009B01689416F8000F111F221F331F169427
:10378000D1F73A014B0149E1969487947794679475
:103790004A95D1F7602A712A822A932A69827A820D
:1037A0008B829C828D809E80AF80B884CD88DE889D
:1037B000EF88F88C8C0C9D1CAE1CBF1C0DA11EA1AB
:1037C0002FA138A5082519252A253B25780189012F
:1037D0009701CDA8DEA8EFA8F8ACC00ED11EE21E5E
:1037E000F31E4D815E816F8178854C255D256E25A8
:1037F0007F252A013B01032E3CE0440C551C661C2E
:10380000771C3A95D1F7302D032E34E176956795E4
:10381000579547953A95D1F7302D44295529662972
:10382000772924013501440E551E661E771E4D8AE8
:103830005E8A6F8A788E0425152526253725702EF9
:10384000812E922E632E6DA27EA28FA298A6C60C08
:10385000D71CE81CF91C4C255D256E257F258A01A7
:103860009B01689416F8000F111F221F331F169436
:10387000D1F72A013B0149E1769467945794479424
:103880004A95D1F7402A512A622A732A4D825E82D4
:103890006F82788649A05AA06BA07CA0480E591E62
:1038A0006A1E7B1E49A95AA96BA97CA944255525E6
:1038B000662577254A01AB01B40189AC9AACABAC63
:1038C000BCAC840E951EA61EB71E88259925AA2578
:1038D000BB258C019D010F2EFCE0000F111F221F44
:1038E000331FFA95D1F7F02D072E74E1B695A79501
:1038F000979587957A95D1F7702D802B912BA22BD8
:10390000B32B93018201080F191F2A1F3B1F09A324
:103910001AA32BA33CA34027512762277327142FF8
:10392000472F762F652F512F24013501440E551E48
:10393000661E771E49AE5AAE6BAE7CAE84259525C9
:10394000A625B7252C013D0127E0440C551C661C1B
:10395000771C2A95D1F739E1B695A7959795879564
:103960003A95D1F784299529A629B7290D851E8571
:103970002F85388969807A808B809C80060D171D81
:10398000281D391D40275127622773274A01AB01A3
:10399000B401C40ED51EE61EF71E49805A806B8006
:1039A0007C804C245D246E247F2453014201072E29
:1039B0007CE0880C991CAA1CBB1C7A95D1F7702D51
:1039C000032E34E176946794579447943A95D1F74F
:1039D000302D482859286A287B2848015901840C31
:1039E000951CA61CB71C8D869E86AF86B88A482576
:1039F00059256A257B25142F252F362F072F09AB34
:103A00001AAB2BAB3CAB0C0D1D1D2E1D3F1D0DAB82
:103A10001EAB2FAB38AF4026512662267326B3016A
:103A2000A20127E0440F551F661F771F2A95D1F783
:103A30006301520139E1D694C794B794A7943A959B
:103A4000D1F7A42AB52AC62AD72AA982BA82CB825C
:103A5000DC8209891A892B893C89CD80DE80EF8040
:103A6000F8840C0D1D1D2E1D3F1D498C5A8C6B8C2E
:103A70007C8C402651266226732672012301370171
:103A800089AC9AACABACBCAC840C951CA61CB71C26
:103A90004D815E816F817885482559256A257B2572
:103AA0006A017B010B2EBCE0CC0CDD1CEE1CFF1C64
:103AB000BA95D1F7B02D032E34E1769567955795D9
:103AC00047953A95D1F7302D4C295D296E297F29EC
:103AD00068017901C40ED51EE61EF71EC98ADA8A6E
:103AE000EB8AFC8A4C245D246E247F24F42C052D63
:103AF000162DE72CE98EFA8E0B8F1C8FE80CF91C23
:103B00000A1D1B1DE9AEFAAE0BAF1CAF4E255F259B
:103B1000602771278A019B01689416F8000F111F16
:103B2000221F331F1694D1F72A013B0149E17694F5
:103B30006794579447944A95D1F7402A512A622AAC
:103B4000732A4D825E826F827886CD88DE88EF8808
:103B5000F88CC80ED91EEA1EFB1E4D8D5E8D6F8D32
:103B600078A14C255D256E257F253A01AB01B30177
:103B700089A49AA4ABA4BCA4840E951EA61EB71E4D
:103B800088259925AA25BB252C013D011CE0440C64
:103B9000551C661C771C1A95D1F704E1B695A795BC
:103BA000979587950A95D1F784299529A629B7294C
:103BB00097018601080F191F2A1F3B1F0D8B1E8BB3
:103BC0002F8B388F4027512762277327542E652E5D
:103BD000762E472E4D8E5E8E6F8E78A2480C591C25
:103BE0006A1C7B1C49A65AA66BA67CA68425952533
:103BF000A625B725AC01BD0127E0440F551F661F60
:103C0000771F2A95D1F739E1B695A79597958795AE
:103C10003A95D1F7842B952BA62BB72B49845A8440
:103C20006B847C84E9A0FAA00BA11CA14E0C5F1C44
:103C3000601E711E0DA11EA12FA138A504251525FA
:103C400026253725A80189019A01CDA4DEA4EFA479
:103C5000F8A8C00ED11EE21EF31E49855A856B8559
:103C60007C854C255D256E257F254A015B01072E4D
:103C70007CE0880C991CAA1CBB1C7A95D1F7702D8E
:103C8000032E34E176956795579547953A95D1F788
:103C9000302D482959296A297B2953014201840E74
:103CA000951EA61EB71E89A29AA2ABA2BCA2082589
:103CB00019252A253B25502E612E722E432E4DA20A
:103CC0005EA26FA278A64C0C5D1C6E1C7F1C4DA6DC
:103CD0005EA66FA678AA44255525662577258A0114
:103CE0009B01689416F8000F111F221F331F1694B2
:103CF000D1F7032E39E176956795579547953A9513
:103D0000D1F7302D402B512B622B732B0D851E8547
:103D10002F853889040F151F261F371F498C5A8C91
:103D20006B8C7C8C4026512662267326520123011F
:103D3000350189A49AA4ABA4BCA4840C951CA61C30
:103D4000B71C482559256A257B256A017B010B2E66
:103D5000BCE0CC0CDD1CEE1CFF1CBA95D1F7B02DDD
:103D6000032E34E176956795579547953A95D1F7A7
:103D7000302D4C295D296E297F2968017901C40EF7
:103D8000D51EE61EF71ECD86DE86EF86F88A4C2409
:103D90005D246E247F24F42C052D162DE72CE98E4E
:103DA000FA8E0B8F1C8FE80CF91C0A1D1B1DE9A64F
:103DB000FAA60BA71CA74E255F25602771278A014D
:103DC0009B01689416F8000F111F221F331F1694D1
:103DD000D1F72A013B0149E17694679457944794BF
:103DE0004A95D1F7402A512A622A732A49865A866F
:103DF0006B867C8609811A812B813C8169887A884F
:103E00008B889C88060D171D281D391D4D8D5E8DD4
:103E10006F8D78A140275127622773274A01AB0194
:103E2000B401CDA4DEA4EFA4F8A8C40ED51EE61EEE
:103E3000F71E49805A806B807C804C245D246E2460
:103E40007F2453014201072E7CE0880C991CAA1C98
:103E5000BB1C7A95D1F7702D032E34E176946794CC
:103E6000579447943A95D1F7302D482859286A2815
:103E70007B2848015901840C951CA61CB71C898A13
:103E80009A8AAB8ABC8A482559256A257B25142F36
:103E9000252F362F072F0D8F1E8F2F8F38A30C0D38
:103EA0001D1D2E1D3F1D0DA71EA72FA738AB402699
:103EB000512662267326B301A20127E0440F551F45
:103EC000661F771F2A95D1F76301520139E1D69415
:103ED000C794B794A7943A95D1F7A42AB52AC62ACD
:103EE000D72AA982BA82CB82DC828D809E80AF8065
:103EF000B884CD88DE88EF88F88C8C0C9D1CAE1CB5
:103F0000BF1C0DA11EA12FA138A5082519252A2502
:103F10003B25780189019701CDA8DEA8EFA8F8AC70
:103F2000C00ED11EE21EF31E4D815E816F81788529
:103F30004C255D256E257F252A013B01032E3CE0A3
:103F4000440C551C661C771C3A95D1F7302D032E76
:103F500034E176956795579547953A95D1F7302D89
:103F6000442955296629772924013501440E551E17
:103F7000661E771E4D8A5E8A6F8A788E0425152507
:103F800026253725702E812E922E632E6DA27EA2BD
:103F90008FA298A6C60CD71CE81CF91C4C255D25E1
:103FA0006E257F258A019B01689416F8000F111F6A
:103FB000221F331F1694D1F72A013B0149E1769461
:103FC0006794579447944A95D1F7402A512A622A18
:103FD000732A4D825E826F82788649A05AA06BA0B8
:103FE0007CA0480E591E6A1E7B1E49A95AA96BA9BE
:103FF0007CA944255525662577254A01AB01B401E6
:1040000089AC9AACABACBCAC840E951EA61EB71E98
:1040100088259925AA25BB258C019D010F2EFCE042
:10402000000F111F221F331FFA95D1F7F02D072E15
:1040300074E1B695A795979587957A95D1F7702DE8
:10404000802B912BA22BB32B93018201080F191FF8
:104050002A1F3B1F09A31AA32BA33CA340275127C8
:1040600062277327142F472F762F652F512F240196
:104070003501440E551E661E771E49AE5AAE6BAE14
:104080007CAE84259525A625B7252C013D0127E08A
:10409000440C551C661C771C2A95D1F739E1B6955E
:1040A000A795979587953A95D1F784299529A629BB
:1040B000B7290D851E852F85388969807A808B8088
:1040C0009C80060D171D281D391D4027512762278A
:1040D00073274A01AB01B401C40ED51EE61EF71EBC
:1040E00049805A806B807C804C245D246E247F2420
:1040F00053014201072E7CE0880C991CAA1CBB1CB2
:104100007A95D1F7702D032E34E176946794579405
:1041100047943A95D1F7302D482859286A287B28AA
:1041200048015901840C951CA61CB71C8D869E86DF
:10413000AF86B88A482559256A257B25142F252F57
:10414000362F072F09AB1AAB2BAB3CAB0C0D1D1D4B
:104150002E1D3F1D0DAB1EAB2FAB38AF4026512699
:1041600062267326B301A20127E0440F551F661F84
:10417000771F2A95D1F76301520139E1D694C7948C
:10418000B794A7943A95D1F7A42AB52AC62AD72A74
:10419000A982BA82CB82DC8209891A892B893C895F
:1041A000CD80DE80EF80F8840C0D1D1D2E1D3F1D7F
:1041B000498C5A8C6B8C7C8C402651266226732647
:1041C00072012301370189AC9AACABACBCAC840C56
:1041D000951CA61CB71C4D815E816F817885482592
:1041E00059256A257B256A017B010B2EBCE0CC0C8E
:1041F000DD1CEE1CFF1CBA95D1F7B02D032E34E167
:1042000076956795579547953A95D1F7302D4C2976
:104210005D296E297F2968017901C40ED51EE61E2D
:10422000F71EC98ADA8AEB8AFC8A4C245D246E2444
:104230007F24F42C052D162DE72CE98EFA8E0B8F9A
:104240001C8FE80CF91C0A1D1B1DE9AEFAAE0BAF62
:104250001CAF4E255F25602771278A019B0168945A
:1042600016F8000F111F221F331F1694D1F72A01D1
:104270003B0149E176946794579447944A95D1F766
:10428000402A512A622A732A4D825E826F82788682
:10429000CD88DE88EF88F88CC80ED91EEA1EFB1E7A
:1042A0004D8D5E8D6F8D78A14C255D256E257F250A
:1042B0003A01AB01B30189A49AA4ABA4BCA4840EB7
:1042C000951EA61EB71E88259925AA25BB252C015B
:1042D0003D011CE0440C551C661C771C1A95D1F757
:1042E00004E1B695A795979587950A95D1F7842906
:1042F0009529A629B72997018601080F191F2A1F9A
:104300003B1F0D8B1E8B2F8B388F40275127622729
:104310007327542E652E762E472E4D8E5E8E6F8E11
:1043200078A2480C591C6A1C7B1C49A65AA66BA68D
:104330007CA684259525A625B725AC01BD0127E0DF
:10434000440F551F661F771F2A95D1F739E1B6959F
:10435000A795979587953A95D1F7842B952BA62B02
:10436000B72B49845A846B847C84E9A0FAA00BA102
:104370001CA14E0C5F1C601E711E0DA11EA12FA161
:1043800038A50425152526253725A80189019A0178
:10439000CDA4DEA4EFA4F8A8C00ED11EE21EF31E29
:1043A00049855A856B857C854C255D256E257F2545
:1043B0004A015B01072E7CE0880C991CAA1CBB1CDF
:1043C0007A95D1F7702D032E34E176956795579540
:1043D00047953A95D1F7302D482959296A297B29E3
:1043E00053014201840E951EA61EB71E89A29AA2F1
:1043F000ABA2BCA2082519252A253B25502E612EEB
:10440000722E432E4DA25EA26FA278A64C0C5D1CAC
:104410006E1C7F1C4DA65EA66FA678AA4425552566
:10442000662577258A019B01689416F8000F111FF5
:10443000221F331F1694D1F7032E39E17695679525
:10444000579547953A95D1F7302D402B512B622B3C
:10445000732B0D851E852F853889040F151F261F88
:10446000371F498C5A8C6B8C7C8C402651266226D7
:10447000732652012301350189A49AA4ABA4BCA4DC
:10448000840C951CA61CB71C482559256A257B253C
:104490006A017B010B2EBCE0CC0CDD1CEE1CFF1C6A
:1044A000BA95D1F7B02D032E34E1769567955795DF
:1044B00047953A95D1F7302D4C295D296E297F29F2
:1044C00068017901C40ED51EE61EF71ECD86DE8674
:1044D000EF86F88A4C245D246E247F24F42C052D6D
:1044E000162DE72CE98EFA8E0B8F1C8FE80CF91C29
:1044F0000A1D1B1DE9A6FAA60BA71CA74E255F25C2
:10450000602771278A019B01689416F8000F111F1C
:10451000221F331F1694D1F72A013B0149E17694FB
:104520006794579447944A95D1F7402A512A622AB2
:10453000732A49865A866B867C8609811A812B816B
:104540003C8169887A888B889C88060D171D281DF8
:10455000391D4D8D5E8D6F8D78A1402751276227C3
:1045600073274A01AB01B401CDA4DEA4EFA4F8A8DF
:10457000C40ED51EE61EF71E49805A806B807C80D3
:104580004C245D246E247F2453014201072E7CE0DD
:10459000880C991CAA1CBB1C7A95D1F7702D032E90
:1045A00034E176946794579447943A95D1F7302D37
:1045B000482859286A287B2848015901840C951CF1
:1045C000A61CB71C898A9A8AAB8ABC8A48255925B9
:1045D0006A257B25142F252F362F072F0D8F1E8F31
:1045E0002F8F38A30C0D1D1D2E1D3F1D0DA71EA7BF
:1045F0002FA738AB4026512662267326B301A201AD
:1046000027E0440F551F661F771F2A95D1F76301D6
:10461000520139E1D694C794B794A7943A95D1F74B
:10462000A42AB52AC62AD72AA982BA82CB82DC82DA
:104630008D809E80AF80B884CD88DE88EF88F88C2E
:104640008C0C9D1CAE1CBF1C0DA11EA12FA138A55A
:10465000082519252A253B25780189019701CDA830
:10466000DEA8EFA8F8ACC00ED11EE21EF31E4D81ED
:104670005E816F8178854C255D256E257F252A0119
:104680003B01032E3CE0440C551C661C771C3A95FC
:10469000D1F7302D032E34E17695679557954795E0
:1046A0003A95D1F7302D44295529662977292401D7
:1046B0003501440E551E661E771E4D8A5E8A6F8A2E
:1046C000788E0425152526253725702E812E922ECD
:1046D000632E6DA27EA28FA298A6C60CD71CE81CE2
:1046E000F91C4C255D256E257F258A019B01689468
:1046F00016F8000F111F221F331F1694D1F72A013D
:104700003B0149E176946794579447944A95D1F7D1
:10471000402A512A622A732A4D825E826F827886ED
:1047200049A05AA06BA07CA0480E591E6A1E7B1E91
:1047300049A95AA96BA97CA9442555256625772541
:104740004A01AB01B40189AC9AACABACBCAC840EF1
:10475000951EA61EB71E88259925AA25BB258C0166
:104760009D010F2EFCE0000F111F221F331FFA9531
:10477000D1F7F02D072E74E1B695A79597958795FB
:104780007A95D1F7702D802B912BA22BB32B93010F
:104790008201080F191F2A1F3B1F09A31AA32BA36D
:1047A0003CA34027512762277327142F472F762FCA
:1047B000652F512F24013501440E551E661E771EAC
:1047C00049AE5AAE6BAE7CAE84259525A625B7259D
:1047D0002C013D0127E0440C551C661C771C2A95D2
:1047E000D1F739E1B695A795979587953A95D1F781
:1047F00084299529A629B7290D851E852F853889F5
:1048000069807A808B809C80060D171D281D391DBC
:1048100040275127622773274A01AB01B401C40E18
:10482000D51EE61EF71E49805A806B807C804C2482
:104830005D246E247F2453014201072E7CE0880C06
:10484000991CAA1CBB1C7A95D1F7702D032E34E15C
:1048500076946794579447943A95D1F7302D482829
:1048600059286A287B2848015901840C951CA61CEC
:10487000B71C8D869E86AF86B88A482559256A253D
:104880007B25142F252F362F072F09AB1AAB2BAB07
:104890003CAB0C0D1D1D2E1D3F1D0DAB1EAB2FABDC
:1048A00038AF4026512662267326B301A20127E0C5
:1048B000440F551F661F771F2A95D1F763015201D8
:1048C00039E1D694C794B794A7943A95D1F7A42A1E
:1048D000B52AC62AD72AA982BA82CB82DC82098964
:1048E0001A892B893C89CD80DE80EF80F8840C0DFD
:1048F0001D1D2E1D3F1D498C5A8C6B8C7C8C4026B7
:1049000051266226732672012301370189AC9AACC5
:10491000ABACBCAC840C951CA61CB71C4D815E8155
:104920006F817885482559256A257B256A017B0199
:104930000B2EBCE0CC0CDD1CEE1CFF1CBA95D1F795
:10494000B02D032E34E176956795579547953A95A6
:10495000D1F7302D4C295D296E297F296801790115
:10496000C40ED51EE61EF71EC98ADA8AEB8AFC8AB7
:104970004C245D246E247F24F42C052D162DE72C69
:10498000E98EFA8E0B8F1C8FE80CF91C0A1D1B1D7B
:10499000E9AEFAAE0BAF1CAF4E255F25602771273D
:1049A0008A019B01689416F8000F111F221F331F04
:1049B0001694D1F72A013B0149E176946794579404
:1049C00047944A95D1F7402A512A622A732A4D8288
:1049D0005E826F827886CD88DE88EF88F88CC80E7C
:1049E000D91EEA1EFB1E4D8D5E8D6F8D78A14C2564
:1049F0005D256E257F253A01AB01B30189A49AA4F8
:104A0000ABA4BCA4840E951EA61EB71E88259925AE
:104A1000AA25BB252C013D011CE0440C551C661C3D
:104A2000771C1A95D1F704E1B695A79597958795C8
:104A30000A95D1F784299529A629B72997018601D6
:104A4000080F191F2A1F3B1F0D8B1E8B2F8B388FB2
:104A50004027512762277327542E652E762E472E26
:104A60004D8E5E8E6F8E78A2480C591C6A1C7B1C82
:104A700049A65AA66BA67CA684259525A625B7250A
:104A8000AC01BD0127E0440F551F661F771F2A9513
:104A9000D1F739E1B695A795979587953A95D1F7CE
:104AA000842B952BA62BB72B49845A846B847C844A
:104AB000E9A0FAA00BA11CA14E0C5F1C601E711E88
:104AC0000DA11EA12FA138A50425152526253725C2
:104AD000A80189019A01CDA4DEA4EFA4F8A8C00E14
:104AE000D11EE21EF31E49855A856B857C854C25B7
:104AF0005D256E257F254A015B01072E7CE0880C31
:104B0000991CAA1CBB1C7A95D1F7702D032E34E199
:104B100076956795579547953A95D1F7302D482961
:104B200059296A297B2953014201840E951EA61E2C
:104B3000B71E89A29AA2ABA2BCA2082519252A25D4
:104B40003B25502E612E722E432E4DA25EA26FA2E7
:104B500078A64C0C5D1C6E1C7F1C4DA65EA66FA635
:104B600078AA44255525662577258A019B016894F6
:104B700016F8000F111F221F331F1694D1F7032EB2
:104B800039E176956795579547953A95D1F7302D48
:104B9000402B512B622B732B0D851E852F85388959
:104BA000040F151F261F371F498C5A8C6B8C7C8C69
:104BB000402651266226732652012301350189A41D
:104BC0009AA4ABA4BCA4840C951CA61CB71C4825B5
:104BD00059256A257B256A017B010B2EBCE0CC0C94
:104BE000DD1CEE1CFF1CBA95D1F7B02D032E34E16D
:104BF00076956795579547953A95D1F7302D4C297D
:104C00005D296E297F2968017901C40ED51EE61E33
:104C1000F71ECD86DE86EF86F88A4C245D246E244E
:104C20007F24F42C052D162DE72CE98EFA8E0B8FA0
:104C30001C8FE80CF91C0A1D1B1DE9A6FAA60BA780
:104C40001CA74E255F25602771278A019B01689468
:104C500016F8000F111F221F331F1694D1F72A01D7
:104C60003B0149E176946794579447944A95D1F76C
:104C7000402A512A622A732A49865A866B867C8684
:104C800009811A812B813C8169887A888B889C886C
:104C9000060D171D281D391D4D8D5E8D6F8D78A158
:104CA00040275127622773274A01AB01B401CDA4E5
:104CB000DEA4EFA4F8A8C40ED51EE61EF71E498098
:104CC0005A806B807C804C245D246E247F245301A9
:104CD0004201072E7CE0880C991CAA1CBB1C7A950B
:104CE000D1F7702D032E34E176946794579447944E
:104CF0003A95D1F7302D482859286A287B28480151
:104D00005901840C951CA61CB71C898A9A8AAB8A07
:104D1000BC8A482559256A257B25142F252F362F37
:104D2000072F0D8F1E8F2F8F38A30C0D1D1D2E1DCD
:104D30003F1D0DA71EA72FA738AB40265126622680
:104D40007326B301A20127E0440F551F661F771F8A
:104D50002A95D1F76301520139E1D694C794B794EB
:104D6000A7943A95D1F7A42AB52AC62AD72AA982A8
:104D7000BA82CB82DC828D809E80AF80B884CD8861
:104D8000DE88EF88F88C8C0C9D1CAE1CBF1C0DA11E
:104D90001EA12FA138A5082519252A253B25780114
:104DA00089019701CDA8DEA8EFA8F8ACC00ED11EEE
:104DB000E21EF31E4D815E816F8178854C255D2555
:104DC0006E257F252A013B01032E3CE0440C551C37
:104DD000661C771C3A95D1F7302D032E34E1769579
:104DE0006795579547953A95D1F7302D4429552920
:104DF0006629772924013501440E551E661E771E4B
:104E00004D8A5E8A6F8A788E0425152526253725DA
:104E1000702E812E922E632E6DA27EA28FA298A656
:104E2000C60CD71CE81CF91C4C255D256E257F257A
:104E30008A019B01689416F8000F111F221F331F6F
:104E40001694D1F72A013B0149E17694679457946F
:104E500047944A95D1F7402A512A622A732A4D82F3
:104E60005E826F82788649A05AA06BA07CA0480E13
:104E7000591E6A1E7B1E49A95AA96BA97CA9442503
:104E80005525662577254A01AB01B40189AC9AAC5A
:104E9000ABACBCAC840E951EA61EB71E882599250A
:104EA000AA25BB258C019D010F2EFCE0000F111FD0
:104EB000221F331FFA95D1F7F02D072E74E1B69516
:104EC000A795979587957A95D1F7702D802B912B83
:104ED000A22BB32B93018201080F191F2A1F3B1F1E
:104EE00009A31AA32BA33CA34027512762277327AA
:104EF000142F472F762F652F512F24013501440E93
:104F0000551E661E771E49AE5AAE6BAE7CAE84252A
:104F10009525A625B7252C013D0127E0440C551CFD
:104F2000661C771C2A95D1F739E1B695A795979518
:104F300087953A95D1F784299529A629B7290D8512
:104F40001E852F85388969807A808B809C80060D2C
:104F5000171D281D391D40275127622773274A0135
:104F6000AB01B401C40ED51EE61EF71E49805A805F
:104F70006B807C804C245D246E247F24530142018D
:104F8000072E7CE0880C991CAA1CBB1C7A95D1F7D3
:104F9000702D032E34E176946794579447943A9594
:104FA000D1F7302D482859286A287B284801590113
:104FB000840C951CA61CB71C8D869E86AF86B88A6D
:104FC000482559256A257B25142F252F362F072F95
:104FD00009AB1AAB2BAB3CAB0C0D1D1D2E1D3F1DA1
:104FE0000DAB1EAB2FAB38AF402651266226732681
:104FF000B301A20127E0440F551F661F771F2A95B2
:10500000D1F76301520139E1D694C794B794A794BC
:105010003A95D1F7A42AB52AC62AD72AA982BA82F4
:10502000CB82DC8209891A892B893C89CD80DE807C
:10503000EF80F8840C0D1D1D2E1D3F1D498C5A8CD0
:105040006B8C7C8C402651266226732672012301CC
:10505000370189AC9AACABACBCAC840C951CA61CDB
:10506000B71C4D815E816F817885482559256A2559
:105070007B256A017B010B2EBCE0CC0CDD1CEE1CF9
:10508000FF1CBA95D1F7B02D032E34E176956795C4
:10509000579547953A95D1F7302D4C295D296E29C2
:1050A0007F2968017901C40ED51EE61EF71EC98A44
:1050B000DA8AEB8AFC8A4C245D246E247F24F42C4B
:1050C000052D162DE72CE98EFA8E0B8F1C8FE80C20
:1050D000F91C0A1D1B1DE9AEFAAE0BAF1CAF4E2525
:1050E0005F25602771278A019B01689416F8000FDD
:1050F000111F221F331F1694D1F72A013B0149E1EA
:1051000076946794579447944A95D1F7402A512A48
:10511000622A732A4D825E826F827886CD88DE880D
:10512000EF88F88CC80ED91EEA1EFB1E4D8D5E8DD1
:105130006F8D78A14C255D256E257F253A01AB0149
:10514000B30189A49AA4ABA4BCA4840E951EA61E88
:10515000B71E88259925AA25BB252C013D011CE0F9
:10516000440C551C661C771C1A95D1F704E1B695C2
:10517000A795979587950A95D1F784299529A6290A
:10518000B72997018601080F191F2A1F3B1F0D8B96
:105190001E8B2F8B388F4027512762277327542E61
:1051A000652E762E472E4D8E5E8E6F8E78A2480C21
:1051B000591C6A1C7B1C49A65AA66BA67CA6842592
:1051C0009525A625B725AC01BD0127E0440F551F45
:1051D000661F771F2A95D1F739E1B695A795979560
:1051E00087953A95D1F7842B952BA62BB72B49841D
:1051F0005A846B847C84E9A0FAA00BA11CA14E0CFC
:105200005F1C601E711E0DA11EA12FA138A50425D3
:10521000152526253725A80189019A01CDA4DEA4EC
:10522000EFA4F8A8C00ED11EE21EF31E49855A85D0
:105230006B857C854C255D256E257F254A015B01AC
:10524000072E7CE0880C991CAA1CBB1C7A95D1F710
:10525000702D032E34E176956795579547953A95CD
:10526000D1F7302D482959296A297B295301420158
:10527000840E951EA61EB71E89A29AA2ABA2BCA23E
:10528000082519252A253B25502E612E722E432EE6
:105290004DA25EA26FA278A64C0C5D1C6E1C7F1CFA
:1052A0004DA65EA66FA678AA4425552566257725C6
:1052B0008A019B01689416F8000F111F221F331FEB
:1052C0001694D1F7032E39E1769567955795479552
:1052D0003A95D1F7302D402B512B622B732B0D8536
:1052E0001E852F853889040F151F261F371F498CEF
:1052F0005A8C6B8C7C8C4026512662267326520178
:105300002301350189A49AA4ABA4BCA4840C951CE8
:10531000A61CB71C482559256A257B256A017B01F7
:105320000B2EBCE0CC0CDD1CEE1CFF1CBA95D1F79B
:10533000B02D032E34E176956795579547953A95AC
:10534000D1F7302D4C295D296E297F29680179011B
:10535000C40ED51EE61EF71ECD86DE86EF86F88AC1
:105360004C245D246E247F24F42C052D162DE72C6F
:10537000E98EFA8E0B8F1C8FE80CF91C0A1D1B1D81
:10538000E9A6FAA60BA71CA74E255F256027712763
:105390008A019B01689416F8000F111F221F331F0A
:1053A0001694D1F72A013B0149E17694679457940A
:1053B00047944A95D1F7402A512A622A732A49868E
:1053C0005A866B867C8609811A812B813C8169888B
:1053D0007A888B889C88060D171D281D391D4D8DD8
:1053E0005E8D6F8D78A140275127622773274A0170
:1053F000AB01B401CDA4DEA4EFA4F8A8C40ED51E61
:10540000E61EF71E49805A806B807C804C245D2408
:105410006E247F2453014201072E7CE0880C991CE6
:10542000AA1CBB1C7A95D1F7702D032E34E176941B
:105430006794579447943A95D1F7302D48285928C6
:105440006A287B2848015901840C951CA61CB71CAE
:10545000898A9A8AAB8ABC8A482559256A257B2580
:10546000142F252F362F072F0D8F1E8F2F8F38A328
:105470000C0D1D1D2E1D3F1D0DA71EA72FA738AB00
:105480004026512662267326B301A20127E0440F6D
:10549000551F661F771F2A95D1F76301520139E125
:1054A000D694C794B794A7943A95D1F7A42AB52A6D
:1054B000C62AD72AA982BA82CB82DC828D809E80BE
:1054C000AF80B884CD88DE88EF88F88C8C0C9D1C6A
:1054D000AE1CBF1C0DA11EA12FA138A508251925A2
:1054E0002A253B25780189019701CDA8DEA8EFA8E0
:1054F000F8ACC00ED11EE21EF31E4D815E816F819D
:1055000078854C255D256E257F252A013B01032EDC
:105510003CE0440C551C661C771C3A95D1F7302DA5
:10552000032E34E176956795579547953A95D1F7CF
:10553000302D442955296629772924013501440E47
:10554000551E661E771E4D8A5E8A6F8A788E0425E8
:10555000152526253725702E812E922E632E6DA2BD
:105560007EA28FA298A6C60CD71CE81CF91C4C255D
:105570005D256E257F258A019B01689416F8000F32
:10558000111F221F331F1694D1F72A013B0149E155
:1055900076946794579447944A95D1F7402A512AB4
:1055A000622A732A4D825E826F82788649A05AA051
:1055B0006BA07CA0480E591E6A1E7B1E49A95AA9E1
:1055C0006BA97CA944255525662577254A01AB01A1
:1055D000B40189AC9AACABACBCAC840E951EA61ED3
:1055E000B71E88259925AA25BB258C019D010F2E64
:1055F000FCE0000F111F221F331FFA95D1F7F02D89
:10560000072E74E1B695A795979587957A95D1F76A
:10561000702D802B912BA22BB32B93018201080FAD
:10562000191F2A1F3B1F09A31AA32BA33CA3402722
:10563000512762277327142F472F762F652F512F5D
:1056400024013501440E551E661E771E49AE5AAE22
:105650006BAE7CAE84259525A625B7252C013D0192
:1056600027E0440C551C661C771C2A95D1F739E1BC
:10567000B695A795979587953A95D1F78429952959
:10568000A629B7290D851E852F85388969807A80DE
:105690008B809C80060D171D281D391D4027512722
:1056A000622773274A01AB01B401C40ED51EE61E62
:1056B000F71E49805A806B807C804C245D246E24C8
:1056C0007F2453014201072E7CE0880C991CAA1C00
:1056D000BB1C7A95D1F7702D032E34E17694679434
:1056E000579447943A95D1F7302D482859286A287D
:1056F0007B2848015901840C951CA61CB71C8D867B
:105700009E86AF86B88A482559256A257B25142FA1
:10571000252F362F072F09AB1AAB2BAB3CAB0C0D4B
:105720001D1D2E1D3F1D0DAB1EAB2FAB38AF4026F0
:10573000512662267326B301A20127E0440F551FAC
:10574000661F771F2A95D1F76301520139E1D6947C
:10575000C794B794A7943A95D1F7A42AB52AC62A34
:10576000D72AA982BA82CB82DC8209891A892B893D
:105770003C89CD80DE80EF80F8840C0D1D1D2E1D30
:105780003F1D498C5A8C6B8C7C8C4026512662269E
:10579000732672012301370189AC9AACABACBCAC67
:1057A000840C951CA61CB71C4D815E816F81788589
:1057B000482559256A257B256A017B010B2EBCE013
:1057C000CC0CDD1CEE1CFF1CBA95D1F7B02D032EBE
:1057D00034E176956795579547953A95D1F7302DF1
:1057E0004C295D296E297F2968017901C40ED51ED7
:1057F000E61EF71EC98ADA8AEB8AFC8A4C245D24ED
:105800006E247F24F42C052D162DE72CE98EFA8EBC
:105810000B8F1C8FE80CF91C0A1D1B1DE9AEFAAE9C
:105820000BAF1CAF4E255F25602771278A019B01B6
:10583000689416F8000F111F221F331F1694D1F71A
:105840002A013B0149E176946794579447944A951D
:10585000D1F7402A512A622A732A4D825E826F82D2
:105860007886CD88DE88EF88F88CC80ED91EEA1EAF
:10587000FB1E4D8D5E8D6F8D78A14C255D256E25AF
:105880007F253A01AB01B30189A49AA4ABA4BCA4BF
:10589000840E951EA61EB71E88259925AA25BB2510
:1058A0002C013D011CE0440C551C661C771C1A950C
:1058B000D1F704E1B695A795979587950A95D1F705
:1058C00084299529A629B72997018601080F191F50
:1058D0002A1F3B1F0D8B1E8B2F8B388F4027512784
:1058E00062277327542E652E762E472E4D8E5E8EA0
:1058F0006F8E78A2480C591C6A1C7B1C49A65AA6BC
:105900006BA67CA684259525A625B725AC01BD01EF
:1059100027E0440F551F661F771F2A95D1F739E1FD
:10592000B695A795979587953A95D1F7842B952BA2
:10593000A62BB72B49845A846B847C84E9A0FAA0F7
:105940000BA11CA14E0C5F1C601E711E0DA11EA19F
:105950002FA138A50425152526253725A80189015D
:105960009A01CDA4DEA4EFA4F8A8C00ED11EE21EB9
:10597000F31E49855A856B857C854C255D256E25F2
:105980007F254A015B01072E7CE0880C991CAA1C2C
:10599000BB1C7A95D1F7702D032E34E1769567956F
:1059A000579547953A95D1F7302D482959296A29B5
:1059B0007B2953014201840E951EA61EB71E89A2A3
:1059C0009AA2ABA2BCA2082519252A253B25502E58
:1059D000612E722E432E4DA25EA26FA278A64C0CB1
:1059E0005D1C6E1C7F1C4DA65EA66FA678AA442582
:1059F0005525662577258A019B01689416F8000FC6
:105A0000111F221F331F1694D1F7032E39E176950B
:105A10006795579547953A95D1F7302D402B512BE7
:105A2000622B732B0D851E852F853889040F151F5A
:105A3000261F371F498C5A8C6B8C7C8C4026512634
:105A40006226732652012301350189A49AA4ABA4CE
:105A5000BCA4840C951CA61CB71C482559256A2596
:105A60007B256A017B010B2EBCE0CC0CDD1CEE1CFF
:105A7000FF1CBA95D1F7B02D032E34E176956795CA
:105A8000579547953A95D1F7302D4C295D296E29C8
:105A90007F2968017901C40ED51EE61EF71ECD864A
:105AA000DE86EF86F88A4C245D246E247F24F42C55
:105AB000052D162DE72CE98EFA8E0B8F1C8FE80C26
:105AC000F91C0A1D1B1DE9A6FAA60BA71CA74E254B
:105AD0005F25602771278A019B01689416F8000FE3
