:100000000C944E010C947F010C947F010C947F01A1
:100010000C947F010C947F010C947F010C947F0160
:100020000C947F010C947F010C947F010C947F0150
:100030000C947F010C947F010C947F010C947F0140
:100040000C947F010C947F010C947F010C947F0130
:100050000C947F010C947F010C947F010C94461F3B
:100060000C947F010C94BA1F0C94901F0C947F0188
:100070000C947F010C947F010C947F010C947F0100
:100080000C947F010C947F010C947F010C947F01F0
:100090000C947F010C947F010C947F010C947F01E0
:1000A0000C947F010C947F010C947F010C947F01D0
:1000B0000C947F010C947F010C947F010C947F01C0
:1000C0000C947F010C947F010C947F010C947F01B0
:1000D0000C947F010C947F010C947F010C947F01A0
:1000E0000C947F010C94D5010C941B0D0C946502AB
:1000F0000C94F41C0C9496020C941B030C94D001E9
:100100000C94B30A0C94EB010C942A1B0C940E0271
:100110000C9418020C9481180C9414020C94FD1A7F
:100120000C94CE020C9422020C9406020C94710DD5
:100130000C941E1C0C94F6010C94E7010C94FC0129
:100140000C94540D0C9438020C94B00E0C94240DA5
:100150000C9474020C9426020C9400020C94F01F70
:100160000C941C020C9488020C940A020C94440D0A
:100170000C94EF010C94B90C0C94F3010C94A60EA2
:100180000C941A0D7C3C3E5E2B3D3F2F5B5D3B2C5F
:100190002A225C0000000A0B02090C0D0E0807035E
:1001A000040100000000000000000000000000004A
:1001B000000000000000000000000000000000003F
:1001C00012111000000000000000000000000000FC
:1001D00000000000000000000000000022002500D8
:1001E00028002B002E003100340002010000050120
:1001F00008010B0100002100240027002A002D0027
:100200003000330001010000040107010A01050567
:100210000505070508080808020202020A0A08087C
:1002200004040404010101010101010103030303AA
:1002300003030303040707070C0C0C0C0C0C0C0C39
:100240000202020206060606060606060B0B0B0B4A
:100250000B0B0B0B0102102020080810204010206F
:10026000408002010201080402010102040810207A
:100270004080804020100804020180040201804078
:1002800020100804020108040201010204081020E1
:1002900040800102040810204080F01F11241FBE7E
:1002A000CFEFD1E2DEBFCDBF00E00CBF19E0A0E090
:1002B000B2E0E6E8F2E500E00BBF02C007900D9265
:1002C000AA37B107D9F72CE0AAE7B9E001C01D921F
:1002D000A939B207E1F711E0CEE4D1E000E006C0B1
:1002E00021970109802FFE010E947925CD34D10785
:1002F00080E00807A9F70E9441200C9441290C9442
:10030000000090E0FC01EC5AFD4F2491825F9D4F6C
:10031000FC018491882399F090E0880F991FFC01DB
:10032000EC50FE4FA591B491FC01E652FE4F859131
:1003300094918FB7F894EC91E22BEC938FBF0895D2
:10034000282F30E0F901EC56FE4F9491F901EC5A58
:10035000FD4F4491225F3D4FF9012491222309F47E
:1003600035C0992311F191509231F8F4E92FF0E062
:100370008827E254FE4F8F4F0C947925EF01F3014B
:10038000D001E701EB01D501F601FC0100020602F4
:100390000A020E0214021802D5011C0222022602D1
:1003A000809180008F7780938000E22FF0E0EE0F45
:1003B000FF1FE652FE4FA591B4918FB7F894EC91D0
:1003C000611148C040954E234C938FBF0895809192
:1003D00080008F7DE8CF80918000877FE4CF84B557
:1003E0008F7784BDE2CF84B58F7DFBCF8091B00045
:1003F0008F778093B000D9CF8091B0008F7DF9CFF7
:10040000809190008F7780939000CFCF8091900063
:100410008F7DF9CF80919000877FF5CF8091A000EC
:100420008F778093A000C1CF8091A0008F7DF9CFFE
:100430008091A000877FF5CF809120018F778093F6
:100440002001B3CF809120018F7DF9CF80912001D1
:10045000877FF5CF4E2BB8CF2FB7F8946091A709BF
:100460007091A8098091A9099091AA092FBF0895B8
:10047000AF92BF92CF92DF92EF92FF920F931F93B2
:10048000CF93DF936C017B018B01040F151FEB01F0
:100490005E01AE18BF08C017D10759F06991D601A7
:1004A000ED91FC910190F081E02DC6011995892B09
:1004B00079F7C501DF91CF911F910F91FF90EF90D8
:1004C000DF90CF90BF90AF900895FC01538D448D85
:1004D000252F30E0842F90E0821B930B541710F0EF
:1004E000CF96089501970895FC01918D828D9817FC
:1004F00061F0A28DAE0FBF2FB11D5D968C91928DD4
:100500009F5F9F73928F90E008958FEF9FEF089504
:10051000FC01918D828D981731F0828DE80FF11DCD
:10052000858D90E008958FEF9FEF0895FC01918DE8
:10053000228D892F90E0805C9F4F821B91098F73E1
:10054000992708958DEA9BE00E94960221E0892B6D
:1005500009F420E0822F0895FC01A48DA80FB92F83
:10056000B11DA35ABF4F2C91848D90E001968F73DB
:100570009927848FA689B7892C93A089B1898C91FA
:10058000837080648C93938D848D981306C0028849
:10059000F389E02D80818F7D80830895EF92FF9213
:1005A0000F931F93CF93DF93EC0181E0888F9B8D96
:1005B0008C8D98131AC0E889F989808185FF15C050
:1005C0009FB7F894EE89FF896083E889F989808173
:1005D0008370806480839FBF81E090E0DF91CF9142
:1005E0001F910F91FF90EF900895F62E0B8D10E064
:1005F0000F5F1F4F0F731127E02E8C8D8E110CC0D3
:100600000FB607FCFACFE889F989808185FFF5CF1D
:10061000CE010E94AC02F1CFEB8DEC0FFD2FF11D4E
:10062000E35AFF4FF0829FB7F8940B8FEA89FB895A
:1006300080818062CFCFCF93DF93EC01888D8823B8
:10064000B9F0AA89BB89E889F9898C9185FD03C035
:10065000808186FD0DC00FB607FCF7CF8C9185FF1A
:10066000F2CF808185FFEDCFCE010E94AC02E9CFB1
:10067000DF91CF91089580E090E0892B29F00E94CE
:10068000A20281110E94000080E090E0892B49F0D5
:1006900080E090E0892B29F00E94000081110E94E7
:1006A000000080E090E0892B49F080E090E0892B09
:1006B00029F00E94000081110E94000080E090E07B
:1006C000892B49F080E090E0892B29F00E940000FE
:1006D00081110C94000008958FB7F89480919B09C4
:1006E0008FBF089561E0FC0184810E94A001809188
:1006F0009A09811110929A0908958EBD00000DB4D7
:1007000007FEFDCF8EB508958FEF0C947D030F93F8
:100710001F93CF93DF93EC010E942C028B010E9468
:1007200084038F3F69F00E942C02601B710B6C17D1
:100730007D07A8F380E0DF91CF911F910F9108957D
:1007400081E0F9CF8CBD9DBD0895CF93DF93EC017F
:1007500080919A09811109C081E080939A09809162
:100760004A0C90914B0C0E94A20360E08C81DF91B7
:10077000CF910C94A0018F929F92AF92BF92FF9263
:100780000F931F93CF93DF93EC01F62E49015A018B
:100790008E81882389F08F8198859C012F5F3F4F40
:1007A00038872F838230924018F40E948403F3CF5D
:1007B000CE010E9472031E82CE010E94A5038CE22C
:1007C00091E00E9487038F2D80640E947D0308E1E1
:1007D00010E0D501C401002E04C0B695A7959795E9
:1007E00087950A94D2F70E947D0308501109083FAB
:1007F0008FEF180771F785E9FF2021F028E087E8DF
:10080000F2128FEF0E947D0310E00E9484038A871A
:1008100087FF04C01F3F11F01F5FF7CFDF91CF911B
:100820001F910F91FF90BF90AF909F908F90089570
:10083000AF92BF92CF92DF92EF92FF920F931F93EE
:10084000CF93DF93EC016901C801820F931F8130C0
:10085000924050F58E81882379F088819981AA8110
:10086000BB8184179507A607B70731F48F81988558
:10087000C816D90608F042C0488359836A837B832F
:100880008B85833039F089E0440F551F661F771F31
:100890008A95D1F79A01AB0161E1CE010E94BB03B9
:1008A000882389F083E08D83CE010E94720380E06B
:1008B000DF91CF911F910F91FF90EF90DF90CF903C
:1008C000BF90AF9008950E942C025B010E948403A8
:1008D0008A878F3F69F40E942C026A197B096D3266
:1008E0007140A0F38FE08D83CE010E947203DCCFB4
:1008F0008E3F89F418861F8281E08E838F819885D0
:100900008C159D0550F40E9484038F819885019673
:1009100098878F83F3CF8DE0E6CF6701E00EF11E5D
:100920000E948403F60181936F01EE15FF05C1F764
:100930008F819885080F191F18870F838985882351
:1009400019F001151240A0F08E81882389F08F8163
:1009500098859C012F5F3F4F38872F8382309240CC
:1009600018F40E948403F3CFCE010E9472031E820A
:1009700081E09ECFCF92DF92EF92FF920F93CF93C1
:10098000DF93EC01690182E14115510561057105B3
:1009900099F08B85833039F089E0440F551F661F2D
:1009A000771F8A95D1F79A01AB0168E1CE010E94C9
:1009B000BB03882319F084E08D832DC08EEF0E9445
:1009C0007D0376018EEFD81AF70181917F010E9495
:1009D0007D03EC14FD04C1F78FEF0E947D038FEFC0
:1009E0000E947D030E9484038A878F71853071F491
:1009F000011116C0CE010E94720381E0DF91CF91F8
:100A00000F91FF90EF90DF90CF90089581E18D835B
:100A1000CE010E947203CE010E94720380E0EECFED
:100A200088E592E00E948703811102C085E1C4CF6E
:100A300020E030E0A9016DE0CE010E94BB038823D5
:100A400011F084E1B9CF0E9484038111FACFD2CF93
:100A50000F9340919D0950919E0960919F0970915B
:100A6000A009411551056105710599F0082F2DEA7E
:100A700039E08091AB099091AC090E94BA048823B7
:100A800049F010929D0910929E0910929F091092B0
:100A9000A00981E00F9108950F93CF93C82F809103
:100AA0009C09811105C0C1E08C2FCF910F91089551
:100AB0004091000250910102609102027091030284
:100AC0000C2F2DEA39E08091AB099091AC090E947E
:100AD000BA04811102C0C0E0E7CFCC2321F381E04A
:100AE0000E9428058823B9F310929C09DDCF8F92CC
:100AF0009F92AF92BF92EF92FF920F931F93CF936B
:100B00004B015C01C42F8091000290910102A091E1
:100B10000202B091030288159905AA05BB0551F19F
:100B200081E00E944C0581110BC080E0CF911F91A4
:100B30000F91FF90EF90BF90AF909F908F9008958E
:100B40008DEAE82E89E0F82E00E012E030E020E0A7
:100B5000B501A4018091AB099091AC090E941804E1
:100B6000882319F38092000290920102A09202025F
:100B7000B092030240919C094C2B40939C0981E068
:100B8000D5CFCF93DF93EC016E857F8588899989D6
:100B900041E00E947705882351F08A8920E2829FF4
:100BA000C00111248355964FDF91CF91089590E0B5
:100BB00080E0FACF8F929F92AF92BF92CF92DF9256
:100BC000EF92FF92CF932CE43CE03093AC0920935A
:100BD000AB09882309F46DC040E060E070E0CB0110
:100BE0000E94770581110BC080E0CF91FF90EF90BC
:100BF000DF90CF90BF90AF909F908F90089580919D
:100C00006B0B8F7789F78091770B9091780BA09180
:100C1000790BB0917A0B84369105A105B10520F3CB
:100C2000C090730BD090740BE090750BF090760B26
:100C3000C114D104E104F104B9F240E0C701B601E6
:100C40000E947705882381F28091B8099091B909B3
:100C50008115924049F6A091BD09AA2329F260911D
:100C6000BB097091BC096115710509F4BDCF2091D4
:100C7000BA09222309F4B8CFA0936A0C20935C0C24
:100C800090E080E030E0E1E0F0E0C82FAF01082E16
:100C900002C0440F551F0A94E2F72417350769F084
:100CA00041E0480F01968930910579F74093650C32
:100CB0009BCFC12CD12C7601C0CF8093650C2091A5
:100CC000C3093091C40950E040E02115310541F4D9
:100CD0002091D1093091D2094091D3095091D40982
:100CE00020935D0C30935E0C40935F0C5093600C2E
:100CF00046015701860E971EA11CB11C80926B0CF9
:100D000090926C0CA0926D0CB0926E0CE091BE09AA
:100D1000F091BF09F093710CE093700CB0E00E9469
:100D20002125DC01CB01880D991DAA1DBB1D8093D7
:100D3000720C9093730CA093740CB093750C25E017
:100D4000EE0FFF1F2A95E1F7E150FE4FEF2FFF272F
:100D5000E6958E0F9F1FA11DB11D8093660C909389
:100D6000670CA093680CB093690C8090C0099090B8
:100D7000C109B12CA12C8114910441F48090CD09BA
:100D80009090CE09A090CF09B090D009C81AD90A86
:100D9000EA0AFB0AC80CD91CEA1CFB1C04C0F69426
:100DA000E794D794C794CA95D2F7C092610CD092B9
:100DB000620CE092630CF092640C85EFC8168FE031
:100DC000D806E104F10428F48CE080936F0C81E0F4
:100DD0000CCF80E125EFC2162FEFD206E104F1041B
:100DE000A0F38091D9099091DA09A091DB09B09123
:100DF000DC098093720C9093730CA093740CB093E5
:100E0000750C80E2E2CF4F925F926F927F928F9249
:100E10009F92AF92BF92CF92DF92EF92FF920F9389
:100E20001F93CF93DF93EC014230510561057105AB
:100E300090F480E0DF91CF911F910F91FF90EF90A0
:100E4000DF90CF90BF90AF909F908F907F906F90EA
:100E50005F904F90089589859A85AB85BC850196F2
:100E6000A11DB11D84179507A607B70710F3CB88FE
:100E7000DC88ED88FE888F89803109F042C0BB276D
:100E8000A72F962F852F480159012A013B01C80E33
:100E9000D91EEA1EFB1E8091000290910102A091D2
:100EA0000202B0910302C816D906EA06FB0699F5BC
:100EB0008F898031C1F5B301A201552766277727B5
:100EC000440F551F4355564FFA01918280828091FD
:100ED0009C09816080939C098A89823080F08D8191
:100EE0009E81AF81B8858C0D9D1DAE1DBF1D809369
:100EF0009D0990939E09A0939F09B093A00981E05A
:100F000099CFDB01CA01E7E0B695A795979587953C
:100F1000EA95D1F7B8CF40E0C701B6010E94770546
:100F20008111C6CF86CFB301A2014F77552766271F
:100F30007727440F551F440F551F4355564FFA014D
:100F400080829182A282B382C2CF8F929F92AF920F
:100F5000BF92CF92DF92EF92FF920F931F93CF93A6
:100F6000DF93FC0181859285A385B4850196A11D3F
:100F7000B11D84179507A607B70770F480E0DF91CD
:100F8000CF911F910F91FF90EF90DF90CF90BF9086
:100F9000AF909F908F90089583889488A588B68895
:100FA0008789803189F5BB27A72F962F852FE901E7
:100FB0006A017B018F01BC01CD01680D791D8A1D7D
:100FC0009B1D8090000290900102A0900202B090C0
:100FD000030286169706A806B90601F5F801878967
:100FE000803111F5DD24EE24FF24F601EE0FFF1F02
:100FF000E355F64F80819181B0E0A0E0888399832A
:10100000AA83BB8381E0BBCFDB01CA01C7E0B695F1
:10101000A79597958795CA95D1F7C9CF40E00E94CB
:1010200077058111DBCFAACFE894C7F8DD24EE2441
:10103000FF24F601EE0FFF1FEE0FFF1FE355F64FE3
:1010400080819181A281B381BF70D8CF4F925F928E
:101050006F927F92AF92BF92CF92DF92EF92FF9208
:101060000F931F93CF93DF9300D01F92CDB7DEB7BE
:101070008C0149835A836B837C835901C12CD12C09
:101080007601412C82E0582E612C712C49815A81C5
:101090006B817C819E012F5F3F4FC8010E94A50795
:1010A000882339F1F8018585A301920104C0220F3C
:1010B000331F441F551F8A95D2F7DA01C901C80EA4
:1010C000D91EEA1EFB1E49815A816B817C8187896A
:1010D000803111F188EF9FEFAFEFBFE0481759075C
:1010E0006A077B0798F2F501C082D182E282F3821F
:1010F00081E00F900F900F900F90DF91CF911F9193
:101100000F91FF90EF90DF90CF90BF90AF907F90C6
:101110006F905F904F90089588EF9FEFA0E0B0E050
:10112000DDCFCF93DF93FC012581222321F080E0E6
:10113000DF91CF910895EC0180916F0C803159F5CA
:1011400082E08583178A108E118E128E8091700C2A
:101150009091710CB0E0A0E025E0880F991FAA1FC4
:10116000BB1F2A95D1F7838B948BA58BB68B88E513
:101170009CE09C8F8B8F81E08C831E821F8218865F
:1011800019861A861B861C861D861E861F86188A4F
:10119000198A1A8ACDCF803251F683E08583409137
:1011A000720C5091730C6091740C7091750C478B9C
:1011B000508F618F728F9F012D5E3F4F88E59CE0BD
:1011C0000E9426088111D3CFB2CF8F929F92AF9207
:1011D000BF92CF92DF92EF92FF920F931F93CF9324
:1011E000DF93EC018D8181110EC080E0DF91CF9102
:1011F0001F910F91FF90EF90DF90CF90BF90AF9035
:101200009F908F9008950B891C892D893E89041722
:1012100015072607370748F34A015B01823031F48E
:101220008A869B86AC86BD8681E0E0CF81149104DE
:10123000A104B10449F41E821F82188619861A86F9
:101240001B861C861D86F0CF0A851B852C853D8557
:10125000EB8DFC8D858590E00996B901A801415080
:10126000510961097109082E04C076956795579553
:1012700047950A94D2F775016401E1E0CE1AD108CE
:10128000E108F10804C0F694E794D794C7948A95CE
:10129000D2F7C416D506E606F70620F0012B022B7E
:1012A000032B11F58F89988DA98DBA8D8E839F831D
:1012B000A887B9878E010A5F1F4FC114D104E104CA
:1012C000F10409F4ADCF4E815F816885798598017D
:1012D0008B8D9C8D0E94A50791E0C91AD108E10869
:1012E000F1088111EACF81CFC41AD50AE60AF70ABC
:1012F000E1CF3F924F925F926F927F928F929F9237
:10130000AF92BF92CF92DF92EF92FF920F931F9313
:10131000CF93DF93CDB7DEB72C970FB6F894DEBF2F
:101320000FBECDBF5C01DC015B968D909C905C97FD
:1013300016964D905D906D907C90199741145104D4
:101340006104710409F468C0BFEF4B1A5B0A6B0AB1
:101350007B0A312CF40181859285A385B4859C019B
:10136000AD012F5F3F4F4F4F5F4F29873A874B8724
:101370005C87730162011D821E821F821886F40140
:1013800081859285A385B4852D813E814F815885C5
:10139000281739074A075B0708F056C089859A85E0
:1013A000AB85BC858C159D05AE05BF0550F482E06C
:1013B000C82ED12CE12CF12C92E0492E512C612C1D
:1013C000712C9E012F5F3F4FB701A601C4010E94FF
:1013D000A5078823C9F189819A81AB81BC81892BBA
:1013E0008A2B8B2B09F1260137019FEF491A590AE5
:1013F000690A790A2D813E814F8158852F5F3F4FC1
:101400004F4F5F4F2D833E834F8358873FEFC31A63
:10141000D30AE30AF30AB3CFF4014080518062801B
:1014200073803324339496CFC414D504E604F704B0
:1014300009F70FEF1FEF2FEF3FE0B701A601C4013F
:101440000E940307811119C080E02C960FB6F89412
:10145000DEBF0FBECDBFDF91CF911F910F91FF90E7
:10146000EF90DF90CF90BF90AF909F908F907F9044
:101470006F905F904F903F900895D50116964D91D3
:101480005D916D917C91199741155105610571052B
:1014900039F097018601C4010E9403078823A1F255
:1014A000D5011696CD92DD92ED92FC9219973320DC
:1014B00051F0D701C6010196A11DB11DF401808331
:1014C0009183A283B383F5018789908DA18DB28D1D
:1014D000892B8A2B8B2B39F48481C78AD08EE18E9D
:1014E000F28E80688483F50184818062848381E048
:1014F000ACCF1F93CF93DF93FC012581222371F1A1
:10150000162FEC01848187FF1EC0CF010E94C10508
:10151000FC01892B19F18D81823040F48B899C89E3
:10152000AD89BE89848F958FA68FB78F8F89988D4F
:10153000938F828F8F89988DA98DBA8DB58BA48B4F
:101540008C818F778C83111103C08C818F7E8C836B
:10155000812FDF91CF911F910C944C0580E0DF919A
:10156000CF911F910895FF920F931F93CF93DF9315
:10157000EC018D81813041F090E080E0DF91CF91EE
:101580001F910F91FF9008958C8181FFF5CF82FD0F
:101590001BC00091AB091091AC09C8010E94A503C2
:1015A0000E948403F82EC8010E9472038FEFF81284
:1015B000E3CF8C8185FF1BC060E0CE010E94790AD9
:1015C0008C818F7D8C83D8CF4B895C896D897E8996
:1015D0008A859B85AC85BD8584179507A607B707C7
:1015E000C1F2CE010E94E5088111D3CFC5CF409151
:1015F0009D0950919E0960919F097091A009452B0A
:10160000462B472B21F080E00E942805B5CF806152
:101610008C832A853B85317080E092E0821B930B9E
:10162000ADCFCF93DF93EC0161E00E94790A88236C
:1016300011F01D8281E0DF91CF9108952F923F92AA
:101640004F925F926F927F928F929F92AF92BF92D2
:10165000CF92DF92EF92FF920F931F93CF93DF937E
:1016600000D01F921F92CDB7DEB77C015B01342EF4
:101670005D83DC0115968C911597813009F0CEC001
:1016800014962C9021FECAC022FCB4C0C32CDD806D
:1016900022947FE027222094B22DB1702B2ED70107
:1016A0001A964D915D916D917C911D97C114D10455
:1016B00009F428C15B968D919C915C97FC01748024
:1016C0007A948A019B0169E03695279517950795CD
:1016D0006A95D1F770228A011170711020C001152E
:1016E0001105E9F416964D915D916D917C911997D4
:1016F000411551056105710509F099C057968D9105
:101700009D910D90BC91A02D0097A105B10509F008
:10171000B0C0C7010E947909882309F47FC080E026
:1017200092E0801B910B46018C159D0508F44C013D
:10173000D7015B964D915C915C9716968D919D912A
:101740000D90BC91A02D0297A109B109FA01258540
:1017500004C0880F991FAA1FBB1F2A95D2F7468580
:10176000578560897189840F951FA61FB71F9C013B
:10177000AD01270D311D411D511D29013A01811473
:1017800032E0930609F07BC0809100029091010243
:10179000A0910202B091030284159505A605B70534
:1017A00059F48FEF9FEFDC018093000290930102C8
:1017B000A0930202B0930302022D9501B301A2018E
:1017C0008091AB099091AC090E94BA04882331F151
:1017D0009EEFB91AC818D908F70182859385A485A8
:1017E000B585880D991DA11DB11D82879387A4879A
:1017F000B58755CFF70143895489658976898285F4
:101800009385A485B585481759076A077B0709F4AE
:101810003DCFC7010E94E508811138CF81E090E0FB
:10182000D70113969C938E93129780E007C09E0178
:101830002F5F3F4F0E94A507811102C090E079C041
:1018400089819A81AB81BC81F701238D348DF901A7
:10185000278948EF5FEF60E070E0203121F048EF2A
:101860005FEF6FEF7FE084179507A607B70708F0D3
:1018700050CFF70186839783A087B18750CF01159A
:10188000110599F5D7011A964D915D916D917C9155
:101890001D9753968D919D910D90BC91A02D481749
:1018A00059076A077B0708F181E00E944C058823ED
:1018B00009F4B4CF409200025092010260920202F9
:1018C0007092030280919C09816080939C09C801F9
:1018D0008355964FD5019C01280D391DFC012E170B
:1018E0003F0759F04D914193FACF41E0C301B20156
:1018F0000E9477058111EBCF91CF281B390BA20EE7
:10190000B31E68CFF70183899489A589B6898417A6
:101910009507A607B70738F48481438B548B658BF2
:10192000768B80688483F701848183FD1AC0832DC0
:101930009D810F900F900F900F900F90DF91CF919E
:101940001F910F91FF90EF90DF90CF90BF90AF90DD
:101950009F908F907F906F905F904F903F902F90CF
:10196000089561E0C7010E94790A882309F456CFDF
:10197000DECFCF93DF931F92CDB7DEB7698341E00F
:1019800050E0BE016F5F7F4F0E941E0B0F90DF91F2
:10199000CF910895FC01DB0112968D919C911397D4
:1019A000938382838CE494E09183808314968C915A
:1019B0001497848315968C911597858316964D916F
:1019C0005D916D917C9119974683578360877187EC
:1019D0001A964D915D916D917C911D974287538729
:1019E000648775871E964D915D916D917C9151979D
:1019F00046875787608B718B52968C915297828B5A
:101A000053964D915D916D917C915697438B548B7C
:101A1000658B768B57964D915D916D917C915A9720
:101A2000478B508F618F728F5B968D919C91948FB5
:101A3000838F08950895FC01818D928D009719F090
:101A400061E00C94790A0895DC015996ED91FC91BE
:101A50003097B9F083899489A589B68942855385E1
:101A600064857585841B950BA60BB70B811520E843
:101A70009207A105B10538F08FEF9FE7A0E0B0E035
:101A8000089590E080E00895DC0159968D919C9135
:101A9000009739F0DC01ED91FC910480F581E02D97
:101AA000199490E080E00895CF93DF93EC01E98DE5
:101AB000FA8D309749F481E090E09B838A8390E02F
:101AC00080E0DF91CF91089513821282898D9A8DE3
:101AD0000E941E0BE98DFA8D22813381232B59F749
:101AE000F0CFCF93DF931F92CDB7DEB76983DC01D0
:101AF000ED91FC910280F381E02D41E050E0BE01C8
:101B00006F5F7F4F19950F90DF91CF9108952F92BE
:101B10003F924F925F926F927F928F929F92AF927D
:101B2000BF92CF92DF92EF92FF920F931F93CF93CA
:101B3000DF9300D0CDB7DEB7FC018581811118C0DD
:101B40008FEF9FEF0F900F900F90DF91CF911F912C
:101B50000F91FF90EF90DF90CF90BF90AF909F904C
:101B60008F907F906F905F904F903F902F9008954F
:101B7000848180FFE5CF4389548965897689828590
:101B80009385A485B585312C212C481759076A0700
:101B90007B0719F022242394312C6F012101CE01FF
:101BA00001963C01DF011696BB83AA8341145104C0
:101BB00009F4C5C0F60142855385648575854A01DF
:101BC000F1E09F22D6015B968D919C915C978A01F2
:101BD0009B01E9E03695279517950795EA95D1F78A
:101BE0001596EC91E230E9F5FC01628D738D848DE0
:101BF000958D600F711F821F931FA12C22E0B22EC2
:101C0000A818B9084A145B0408F45201F6012481AB
:101C100026FD04C0A114F2E0BF0671F40091000299
:101C2000109101022091020230910302061717075A
:101C30002807390709F05EC040E00E947705882335
:101C400009F47ECFC4018355964FD3019C012A0D20
:101C50003B1DFC012E173F0709F46CC041914D93C9
:101C6000F9CFDC011496BC90BA94B022811491048F
:101C700079F4B1100DC0452B462B472B69F5F601C1
:101C80008789908DA18DB28D86839783A087B18738
:101C9000D6015B96ED91FC915C9716966D917D91C6
:101CA0008D919C911997625071098109910925853F
:101CB00004C0660F771F881F991F2A95D2F70685E3
:101CC000178520893189600F711F821F931F6B0D4B
:101CD000711D811D911D91CFD60116964D915D917B
:101CE0006D917C9119972A813B810E94A5078111F2
:101CF000CFCF26CF730185019401AB01BC01809148
:101D0000AB099091AC090E941804882309F418CFFC
:101D10006A0C7B1CF60182859385A485B5858A0DA6
:101D20009B1DA11DB11D82879387A487B5874A1883
:101D30005B083CCF281B390B620E731EEBCF2A9435
:101D4000232809F0FDCE898190E0FCCEFC01818D35
:101D5000928D009711F00C94870D8FEF9FEF0895EF
:101D60000F931F93CF93DF93EC01898D9A8D10E031
:101D700000E0009799F00E94870D8C010F3F10073B
:101D800069F0898D9A8DFC0142855385648575853E
:101D900041505109610971090E94E508C801DF91AC
:101DA000CF911F910F9108952F923F924F925F9282
:101DB0006F927F928F929F92AF92BF92CF92DF925B
:101DC000EF92FF920F931F93CF93DF93CDB7DEB7C0
:101DD00068970FB6F894DEBF0FBECDBF9C01A0E59B
:101DE000CA2ED12C65E76D8B1C0174E1270E311CC6
:101DF0002E0185E1480E511CBFE98B2E912CD90193
:101E00008C91BD898B27F90180834B2F50E0FA011B
:101E1000EE0FFF1FBA01F5E075956795FA95E1F7AA
:101E2000CA01A5E0880F991FAA95E1F78074DA012D
:101E300013E0AA0FBB1F1A95E1F7A0728A2BDA01F3
:101E4000B695BA2FAA27B795A7958A2B9E2F907182
:101E5000892BDA01B595A795A8708A2BDA0173E072
:101E6000B595A7957A95E1F7A4708A2B962F927075
:101E7000892BD90153969C915397892753968C931C
:101E80005397F6E055954795FA95E1F74627417047
:101E9000E42BEF77ED8B5901ED91CD010197F0E047
:101EA000EE0FFF1FEC5DFD4F4081FC0140832A16C1
:101EB0003B0691F7DE011196FD011D924A165B0665
:101EC000E1F7F12CE12CD5016D905D01712C10E052
:101ED00000E0B301002E02C0759567950A94E2F701
:101EE000B62FB170BE8BA8014E0D5F1D8FE990E03B
:101EF0004F39510549F068E2649FC001659F900D1C
:101F00001124B4010E946525AC0163E05595479505
:101F10006A95E1F7DF01A40FB51F7E89672F70E096
:101F2000788F6F8B440F551F440F551F440F551F5B
:101F3000841B950B01C0660F8A95EAF78C91682780
:101F40006C930F5F1F4F0830110519F688E0E80EFB
:101F5000F11C90EAE916F10409F0B5CF84E1D9014A
:101F600001900D928A95E1F7A1E0CA1AD10809F013
:101F700046CF68960FB6F894DEBF0FBECDBFDF9197
:101F8000CF911F910F91FF90EF90DF90CF90BF9076
:101F9000AF909F908F907F906F905F904F903F9009
:101FA0002F9008952F923F924F925F926F927F925F
:101FB0008F929F92AF92BF92CF92DF92EF92FF9259
:101FC0000F931F93CF93DF9300D000D000D01F92C8
:101FD000CDB7DEB7EB82FC82802E1D832E83532E7D
:101FE000442E352E3C0169837A8318861F82B0E027
:101FF000A0E019861A86212C912C28853F814B2F31
:102000005A2F69857A85822D992DAB80BC80C82C8A
:10201000DD80EE80F52C042D132D0E94F525F1F0C6
:10202000F30181913F01E981FA819191FA83E9837A
:102030009301215031098927F901808328853F8147
:10204000822D992DA1E00E94E02528873F83B42F9F
:10205000A52F69877A87282E992ECFCF2A960FB67B
:10206000F894DEBF0FBECDBFDF91CF911F910F91CE
:10207000FF90EF90DF90CF90BF90AF909F908F90A8
:102080007F906F905F904F903F902F9008952F9288
:102090003F924F925F926F927F928F929F92AF92F8
:1020A000BF92CF92DF92EF92FF920F931F93CF9345
:1020B000DF93CDB7DEB7C85BD1090FB6F894DEBFAA
:1020C0000FBECDBFC755DF4F99838883C95AD04013
:1020D000C955DF4F79836883C75AD040C555DF4F54
:1020E00059834883CB5AD040CB57DF4FC882C5585D
:1020F000D040CA57DF4FD882C658D040C157DF4FB3
:10210000E882CF58D040C057DF4FF882C059D04046
:10211000CF56DF4F0883C159D040CE56DF4F1883CA
:10212000C259D040CD56DF4F2883C359D040CC563A
:10213000DF4F3883C459D040C355DF4FB982A882DE
:10214000CD5AD04064E1A62EB12CC12CD12CE12C6B
:10215000F12C00E010E0CB57DF4F2881C558D0406C
:10216000CA57DF4F3881C658D040C157DF4F48812A
:10217000CF58D040C057DF4F5881C059D040CF56BC
:10218000DF4F6881C159D040CE56DF4F7881C259A8
:10219000D040CD56DF4F8881C359D040CC56DF4F59
:1021A0009881C459D0400E948325CB56DF4F2883A5
:1021B000C559D040CA56DF4F3883C659D040C9569A
:1021C000DF4F4883C759D040C856DF4F5883C8599E
:1021D000D040C756DF4F6883C959D040C656DF4F3D
:1021E0007883CA59D040C556DF4F8883CB59D04039
:1021F000C456DF4F9883CC59D040A1E00E94E0251F
:10220000C356DF4F2883CD59D040C256DF4F3883A5
:10221000CE59D040C156DF4F4883CF59D040C05629
:10222000DF4F5883C05AD040CF55DF4F6883C15A23
:10223000D040CE55DF4F7883C25AD040CD55DF4FC6
:102240008883C35AD040CC55DF4F9883C45AD040BE
:10225000CB57DF4F2881C558D040CA57DF4F388150
:10226000C658D040C157DF4F4881CF58D040C057E3
:10227000DF4F5881C059D040CF56DF4F6881C159D8
:10228000D040CE56DF4F7881C259D040CD56DF4F77
:102290008881C359D040CC56DF4F9881C459D04073
:1022A0000E948125A0E00E94FE2509F450C0C3567B
:1022B000DF4F2881CD59D040CB56DF4F2883C559F9
:1022C000D040C256DF4F3881CE59D040CA56DF4F7A
:1022D0003883C659D040C156DF4F8881CF59D0408E
:1022E000C956DF4F8883C759D040C056DF4F988109
:1022F000C05AD040C856DF4F9883C859D040CF55F8
:10230000DF4FA881C15AD040C756DF4FA883C959B3
:10231000D040CE55DF4FB881C25AD040C656DF4FAD
:10232000B883CA59D040CD55DF4FE881C35AD04059
:10233000C556DF4FE883CB59D040CC55DF4FF881ED
:10234000C45AD040C456DF4FF883CC59D040C3564E
:10235000DF4F2881CD59D040C256DF4F3881CE594A
:10236000D040C156DF4F4881CF59D040C056DF4FD3
:102370005881C05AD040CF55DF4F6881C15AD040F4
:10238000CE55DF4F7881C25AD040CD55DF4F88817E
:10239000C35AD040CC55DF4F9881C45AD040A1E0F9
:1023A0000E94FE2509F403C3CF54DF4F2883C15B8D
:1023B000D040CE54DF4F3883C25BD040CD54DF4F86
:1023C0004883C35BD040CC54DF4F5883C45BD040BC
:1023D000CB54DF4F6883C55BD040CA54DF4F78834E
:1023E000C65BD040C954DF4F8883C75BD040C85418
:1023F000DF4F9883C85BD040E9961CAE1DAE1EAE81
:102400001FAEE99780E1F401DE01AB59BF4F0190A7
:102410000D928A95E1F7CE018B599F4F0E94D40E01
:102420009E012F5A3F4F84E1D901E82F1D92EA9572
:10243000E9F7FE01B996DF01982F1D929A95E9F709
:10244000FC96DE01DD96982F01900D929A95E1F7AA
:10245000FE013196DF011D928A95E9F788E0C955A2
:10246000DF4FE881F981C75AD04011928A95E9F788
:10247000C253DF4F88819981CE5CD040892B09F00F
:10248000C0C2C555DF4F88819981CB5AD040C15514
:10249000DF4F99838883CF5AD040CB55DF4F2883B5
:1024A000C55AD040CA55DF4F3883C65AD040CD57A1
:1024B000DF4F1882C358D040CC57DF4F1882C45822
:1024C000D040C757DF4F1882C958D040C657DF4F9A
:1024D0001882CA58D040C557DF4F1882CB58D04019
:1024E000C457DF4F1882CC58D040C357DF4F1882F3
:1024F000CD58D040C257DF4F1882CE58D0402E0161
:10250000BDE34B0E511C4E01E9E28E0E911CEE967E
:102510001FAEEE97EF961FAEEF97C158DF4F1882B0
:10252000CF57D040C058DF4F1882C058D040CF5747
:10253000DF4F1882C158D040CE57DF4F1882C258A3
:10254000D040212C312C9E012F5D3F4FEB963FAFA9
:102550002EAFEB97CE0101963C01DE011D96ED9664
:10256000BFAFAEAFED97F2018381F0E88F9F90018E
:102570001124D2011D968C91881F8827881F8227DD
:10258000F2019191929590FB979597F98927D40143
:1025900094012D5E3F4F91919D932A173B07D9F7E8
:1025A000F401838BCB56DF4F2881C559D040CA56E2
:1025B000DF4F3881C659D040C956DF4F4881C759CF
:1025C000D040C856DF4F5881C859D040C756DF4F5A
:1025D0006881C959D040C656DF4F7881CA59D0406A
:1025E000C556DF4F8881CB59D040C456DF4F988104
:1025F000CC59D040EE96AFACEE97EF96BFACEF97CC
:10260000C158DF4FC880CF57D040C058DF4FD88067
:10261000C058D040CF57DF4FE880C158D040CE5788
:10262000DF4FF880C258D04081010E94F52509F0A3
:1026300008F4F5C08CE0C355DF4FE881F981CD5A2D
:10264000D040DE01559601900D928A95E1F7EB9608
:10265000AEADBFADEB97E8E01D92EA95E9F754E126
:10266000E52EF12C00E010E020E030E040E050E00A
:10267000B201CE0145960E94D20FCE0145960E942E
:10268000D40E20E030E040E050E0B201CE014596AB
:102690000E94D20FCB56DF4F2881C559D040CA5671
:1026A000DF4F3881C659D040C956DF4F4881C759DE
:1026B000D040C856DF4F5881C859D040C756DF4F69
:1026C0006881C959D040C656DF4F7881CA59D04079
:1026D000C556DF4F8881CB59D040C456DF4F988113
:1026E000CC59D040AFEF0E94E025EE96AFACEE970C
:1026F000EF96BFACEF97C158DF4FC880CF57D0409F
:10270000C058DF4FD880C058D040CF57DF4FE88047
:10271000C158D040CE57DF4FF880C258D040810119
:102720000E94F52509F07EC1CB57DF4F2881C5589F
:10273000D040CA57DF4F3881C658D040C157DF4F0D
:102740004881CF58D040C057DF4F5881C059D04042
:10275000CF56DF4F6881C159D040CE56DF4F7881C8
:10276000C259D040CD56DF4F8881C359D040CC5696
:10277000DF4F9881C459D040CD57DF4FA880C35850
:10278000D040CC57DF4FB880C458D040C757DF4F38
:10279000C880C958D040C657DF4FD880CA58D040EB
:1027A000C557DF4FE880CB58D040C457DF4FF88083
:1027B000CC58D040C357DF4F0881CD58D040C257C6
:1027C000DF4F1881CE58D0400E94EC2569019B0153
:1027D000CD57DF4FA880C358D040CC57DF4FB880CB
:1027E000C458D040C555DF4F68817981CB5AD0405D
:1027F0006A0D7B1D76018A01AC01CE0145960E94CF
:10280000D20FA601BE016B5E7F4FC755DF4F888197
:102810009981C95AD0408A0D9B1D0E944526C356F6
:10282000DF4F2881CD59D040C256DF4F3881CE5975
:10283000D040C156DF4F4881CF59D040C056DF4FFE
:102840005881C05AD040CF55DF4F6881C15AD0401F
:10285000CE55DF4F7881C25AD040CD55DF4F8881A9
:10286000C35AD040CC55DF4F9881C45AD040EE9621
:10287000AFACEE97EF96BFACEF97C158DF4FC88073
:10288000CF57D040C058DF4FD880C058D040CF5726
:10289000DF4FE880C158D040CE57DF4FF880C25894
:1028A000D04081010E94F52511F008F0C5C0EE96D8
:1028B0002FADEE97EF963FADEF97C158DF4F4881B0
:1028C000CF57D040C058DF4F5881C058D040CF5765
:1028D000DF4F6881C158D040CE57DF4F7881C25852
:1028E000D040C101A1E00E94FE2509F057C18CE053
:1028F000C355DF4FE881F981CD5AD040D301019013
:102900000D928A95E1F7ED96EEADFFADED9728E0DB
:1029100011922A95E9F731E03D8784E1E82EF12C08
:1029200000E010E020E030E040E050E0CB55DF4F29
:102930006881C55AD040CA55DF4F7881C65AD04009
:10294000C3010E94D20F20E030E040E050E0B4012B
:10295000C3010E94D20FC3010E94D40E20E030E0D8
:1029600040E050E0CB55DF4F6881C55AD040CA5592
:10297000DF4F7881C65AD040C3010E94D20F20E0B9
:1029800030E040E050E0B401C3010E94D20F98E073
:10299000E92E20E030E040E050E0B301C955DF4FC0
:1029A00088819981C75AD0400E94D20FF7C022E097
:1029B000CF54DF4F2883C15BD040CE54DF4F188205
:1029C000C25BD040CD54DF4F1882C35BD040CC54A3
:1029D000DF4F1882C45BD040CB54DF4F1882C55BF9
:1029E000D040CA54DF4F1882C65BD040C954DF4F75
:1029F0001882C75BD040C854DF4F1882C85BD040F4
:102A0000FBCCC755DF4FA881B981C95AD040C15509
:102A1000DF4FB983A883CF5AD0403FCD24018F2EFA
:102A20009E2EA1CD44E1C42ED12C40E050E020E008
:102A300030E080E090E0CCCECB57DF4F2881C55806
:102A4000D040CA57DF4F3881C658D040C157DF4FFA
:102A50004881CF58D040C057DF4F5881C059D0402F
:102A6000CF56DF4F6881C159D040CE56DF4F7881B5
:102A7000C259D040CD56DF4F8881C359D040CC5683
:102A8000DF4F9881C459D040CD57DF4FA880C3583D
:102A9000D040CC57DF4FB880C458D040C757DF4F25
:102AA000C880C958D040C657DF4FD880CA58D040D8
:102AB000C557DF4FE880CB58D040C457DF4FF88070
:102AC000CC58D040C357DF4F0881CD58D040C257B3
:102AD000DF4F1881CE58D0400E94F52509F05FC124
:102AE00084E1D3011D928A95E9F7B1E0B98324E12D
:102AF000E22EF12C00E010E020E030E040E050E079
:102B0000B201C3010E94D20F20E030E040E050E06B
:102B1000B401C3010E94D20FC3010E94D40E20E071
:102B200030E040E050E0B201C3010E94D20F20E04B
:102B300030E040E050E0B401C3010E94D20F38E021
:102B4000E32E20E030E040E050E0B301C955DF4F14
:102B500088819981C75AD0400E94D20FEE962FAD3E
:102B6000EE97EF963FADEF97C158DF4F4881CF57B3
:102B7000D040C058DF4F5881C058D040CF57DF4FAA
:102B80006881C158D040CE57DF4F7881C258D040BD
:102B9000C101A0E00E94FE2509F089CECD57DF4F8C
:102BA0002881C358D040CC57DF4F3881C458D0401B
:102BB000C757DF4F4881C958D040C657DF4F5881AB
:102BC000CA58D040C557DF4F6881CB58D040C45752
:102BD000DF4F7881CC58D040C357DF4F8881CD5824
:102BE000D040C257DF4F9881CE58D040A4E10E9418
:102BF000E025CD57DF4F2883C358D040CC57DF4F57
:102C00003883C458D040C757DF4F4883C958D04095
:102C1000C657DF4F5883CA58D040C557DF4F688327
:102C2000CB58D040C457DF4F7883CC58D040C357DF
:102C3000DF4F8883CD58D040C257DF4F9883CE589E
:102C4000D040EE962FADEE97EF963FADEF97C1587F
:102C5000DF4F4881CF57D040C058DF4F5881C05810
:102C6000D040CF57DF4F6881C158D040CE57DF4F9B
:102C70007881C258D040C101A1E00E94E025EE96C3
:102C80002FAFEE97EF963FAFEF97C158DF4F4883D6
:102C9000CF57D040C058DF4F5883C058D040CF578F
:102CA000DF4F6883C158D040CE57DF4F7883C2587A
:102CB000D0401C01CB55DF4FF881C55AD040CA55D2
:102CC000DF4FE881C65AD040CB55DF4F4882C55A06
:102CD000D040CA55DF4F5882C65AD040CF54DF4F3C
:102CE0002881C15BD040CE54DF4F3881C25BD040D9
:102CF000CD54DF4F4881C35BD040CC54DF4F588167
:102D0000C45BD040CB54DF4F6881C55BD040CA5410
:102D1000DF4F7881C65BD040C954DF4F8881C75BE5
:102D2000D040C854DF4F9881C85BD040EE96AFAC1E
:102D3000EE97EF96BFACEF97C158DF4FC880CF57E3
:102D4000D040C058DF4FD880C058D040CF57DF4F59
:102D5000E880C158D040CE57DF4FF880C258D040ED
:102D600081010E94F52509F059CEC854DF4F0FB6F6
:102D7000F894DEBF0FBECDBFDF91CF911F910F91B1
:102D8000FF90EF90DF90CF90BF90AF909F908F908B
:102D90007F906F905F904F903F902F900895CD5708
:102DA000DF4FE881C358D040C957DF4FE883C75889
:102DB000D040CC57DF4FF881C458D040C857DF4FC0
:102DC000F883C858D040C155DF4FE881F981CF5A08
:102DD000D040C957DF4F28813981C758D040E20F12
:102DE000F31FCB57DF4F2881C558D040CA57DF4F5C
:102DF0003881C658D040C157DF4F4881CF58D040A6
:102E0000C057DF4F5881C059D040CF56DF4F68813F
:102E1000C159D040CE56DF4F7881C259D040CD56EF
:102E2000DF4F8881C359D040CC56DF4F9881C459B9
:102E3000D040CD57DF4FA880C358D040CC57DF4F8C
:102E4000B880C458D040C757DF4FC880C958D04059
:102E5000C657DF4FD880CA58D040C557DF4FE880EB
:102E6000CB58D040C457DF4FF880CC58D040C35720
:102E7000DF4F0881CD58D040C257DF4F1881CE5860
:102E8000D0400E94EC25A3E10E94FE2541F038F0DD
:102E900084E1D30101900D928A95E1F728CECB57BA
:102EA000DF4F0881C558D040CA57DF4F1881C65838
:102EB000D0407801C957DF4F88819981C758D040E9
:102EC000E81AF90AA701BF01C3010E94452644E19F
:102ED00050E0401B510BC957DF4FA881B981C7583B
:102EE000D0404A0F5B1FC301800F911F70E060E06C
:102EF0008A1B9B0B0E944E26F301EE0DFF1DB1E0D5
:102F0000B083F5CD8F929F92AF92BF92CF92DF9216
:102F1000EF92FF920F931F93CF93DF9300D01F92F6
:102F2000CDB7DEB7FC018581813091F080E00F9054
:102F30000F900F900F90DF91CF911F910F91FF9005
:102F4000EF90DF90CF90BF90AF909F908F900895BB
:102F5000848181FFEBCF83899489A589B689892BE8
:102F60008A2B8B2B09F45FC07F0140E050E0BA014F
:102F7000CF010E94E5088823C9F2F701C38CD48CE5
:102F80008788908CA18CB28C82E090E0A0E0B0E0C9
:102F9000F60180839183A283B3839E012F5F3F4F0D
:102FA000B501A401C6010E94A507882309F4BECF7C
:102FB00000E010E09801B501A401C6010E940307DA
:102FC000882309F4B3CF89809A80AB80BC80F60156
:102FD0008789803119F188EF9FEFAFEFBFE0881646
:102FE0009906AA06BB06C8F2F701178A108E118E41
:102FF000128E138A148A158A168A848180688483C3
:1030000061E0C7010E94790A882309F48FCF40E06C
:1030100050E0BA01C7010E94E50889CF88EF9FEF11
:10302000A0E0B0E0DCCF81E082CFCF92DF92EF92E0
:10303000FF921F93CF93DF93EC0180E2689FF00132
:103040001124E355F64F9385917161F0842F8274BA
:1030500049F080E0DF91CF911F91FF90EF90DF90DA
:10306000CF900895142F6A8B8091000290910102F5
:10307000A0910202B09103028E879F87A88BB98B23
:10308000C488D588F12CE12C7601DD24CC24CF8AAC
:10309000D88EE98EFA8E828D938DB0E0A0E0AC01DF
:1030A000BD014C295D296E297F294F8B588F698F6F
:1030B0007A8F83858871B1F4848D958DA68DB78DB7
:1030C0008B8B9C8BAD8BBE8B81E08D831F701C83A3
:1030D0001E821F82188619861A861B861C861D86EC
:1030E00081E0B8CF803109F0B4CF9E012D5E3F4F13
:1030F0008B8D9C8D0E942608882309F4AACF84E03A
:10310000E4CFCF93DF93EC01888199810E941F2443
:10311000CE01DF91CF910C941F24FB010190002080
:10312000E9F73197AF01461B570BDC01ED91FC919C
:103130000280F381E02D1994BC018DEA9BE00C9490
:103140008D180F931F93CF93DF93EC010E948D187E
:103150008C0164E674E0CE010E948D18800F911FEF
:10316000DF91CF911F910F9108953F924F925F92FF
:103170006F927F928F929F92AF92BF92CF92DF9287
:10318000EF92FF920F931F93CF93DF9300D000D065
:1031900000D01F921F92CDB7DEB77C01DC011596DF
:1031A0008C91811115C0FE013196CE010C966F01F4
:1031B00030E23193E817F907E1F7DA0130E087E010
:1031C0009D91B92E992329F19E3239F48A3011F458
:1031D00080E0DAC038E08AE0F3CFE4E8F1E044913F
:1031E000442321F031969413FACFF2CF831780F362
:1031F0004FED490F4E3560F74FE9490F4A3118F44A
:1032000040EEB42EB90EF601E30FF11DB0823F5F20
:10321000D7CF89818032E1F2322E8B01FB01838D81
:10322000948DD7015C969C938E935B971682178240
:10323000108611861286138614861586F8018285FB
:103240009385A485B58543895489658976898417D2
:103250009507A607B70708F04DC025E0B695A795D6
:10326000979587952A95D1F7F82FFF70AF2ED80143
:1032700015968C91823008F4ABCFC8010E94870D5F
:1032800097FDA6CFF80182859385A485B5854F96D5
:10329000A11DB11D82879387A487B587F0E2AF9EF9
:1032A000B00111246355764F6115710509F490CF73
:1032B000DB018C91882341F0853E09F058C0BB208A
:1032C00029F0BB24B394BACFB1100EC0F701A28A83
:1032D0008091000290910102A0910202B09103023C
:1032E00086879787A08BB18BDB018C918111E9CF09
:1032F000BB24B394832D8271823109F069CFBB2046
:1033000009F45AC0C7010E94C105009709F460CFB3
:1033100020E2FC0111922A95E9F72BE0F601DC018D
:1033200001900D922A95E1F721E238E2DC015196F5
:103330003C932E93509740E058E01F965C934E9339
:103340001E9753963C932E93529759963C932E93E7
:10335000589757965C934E93569781E00E944C0580
:10336000882309F435CF432DF70162890AC04BE069
:1033700050E0C6010E943826892B09F05FCF432D0B
:103380006A2DC7010E9415182B960FB6F894DEBF60
:103390000FBECDBFDF91CF911F910F91FF90EF90A6
:1033A000DF90CF90BF90AF909F908F907F906F9065
:1033B0005F904F903F900895F8018581823009F425
:1033C00007CFC8010E947909882309F401CFD801E9
:1033D0005B96ED91FC915C9716968D909D90AD90CB
:1033E000BC901997B2E08B1A9108A108B1088585A5
:1033F00004C0880C991CAA1CBB1C8A95D2F7868530
:103400009785A089B189880E991EAA1EBB1E84814A
:1034100024013501480E511C611C711C8414950453
:10342000A604B70409F1E1E04E1A510861087108D9
:1034300081E00E944C05882309F4CACEEDEAF9E048
:1034400011928DEA9BE08E179F07D1F74092000200
:1034500050920102609202027092030280919C09D4
:10346000816080939C09DACFD8015B96ED91FC9145
:10347000258580E092E0A0E0B0E004C0880F991FAD
:10348000AA1FBB1F2A95D2F7F80143895489658981
:103490007689840F951FA61FB71F838B948BA58BEE
:1034A000B68BD70152961C928DEA99E031CF6F927C
:1034B0007F928F929F92AF92BF92CF92DF92EF92C4
:1034C000FF920F931F93CF93DF93CDB7DEB7C7540F
:1034D000D1090FB6F894DEBF0FBECDBF5C0119A2B3
:1034E00018A28CE494E09F8F8E8F1BA21C821B82FB
:1034F0009A8389831E82912C812C7E018EE1E80EB5
:10350000F11C06E71CE0C401F401E959FB4F2081DE
:103510002F3209F40196DC01A959BB4FFE01FB963D
:1035200030E020E06F014D914F3249F0442339F0F3
:1035300001962F5F3F4F41932C303105A1F72C0DA1
:103540003D1DF9011082FC01E959FB4F20812F320A
:1035500009F401964C01FC01E959FB4F608041E000
:10356000611040E030E020E0B601C801F501199596
:10357000782E81111CC0FCE006371F0779F5712CED
:10358000872DC95BDF4F0FB6F894DEBF0FBECDBFEE
:10359000DF91CF911F910F91FF90EF90DF90CF902F
:1035A000BF90AF909F908F907F906F90089566200E
:1035B00089F021E0A601B801C7010E94B518D82EF4
:1035C0008CE00637180771F0C8010E94110BD1106A
:1035D0000EC0D5CFECE006371E0791F2C8010E945D
:1035E000110BCECFDD2059F28E010F5F1F4F902FB0
:1035F000812F8701E92EF82E86CF1F93CF93DF937B
:10360000CDB7DEB76D970FB6F894DEBF0FBECDBF56
:10361000AB011C821B822CE434E03A8329831E8296
:1036200021E0BC01CE0101960E94B51811E0811184
:103630000CC010E0812F6D960FB6F894DEBF0FBE60
:10364000CDBFDF91CF911F910895CE0101960E94C9
:10365000110BF0CFCF93DF93CDB7DEB76D970FB6D9
:10366000F894DEBF0FBECDBF442399F1AB01BC017E
:103670001C821B828CE494E09A8389831E8222E060
:10368000CE0101960E94B51881110EC090E081E034
:10369000911101C080E06D960FB6F894DEBF0FBEA9
:1036A000CDBFDF91CF910895CE0101960E94821780
:1036B000882361F3CE0101960E94C105009731F382
:1036C00025EEFC0120831E8281E00E944C05982F8C
:1036D000DECF81E0E0CFEF92FF920F931F93CF9365
:1036E000DF93EC017B018A011B821A8288EE93E052
:1036F000A0E0B0E08C839D83AE83BF8388E294E03A
:10370000998388838DE190E00E9483239A8F898F2B
:10371000009779F02DE1F701DC0101900D922A95D7
:10372000E1F74CE050E0B801CE010C960E945C2617
:10373000188EDF91CF911F910F91FF90EF90089518
:10374000CF92DF92FF920F931F93CF93DF93CDB76A
:10375000DEB7C755D1090FB6F894DEBF0FBECDBF97
:103760008C01F62E1C821B828CE4C82E84E0D82E9D
:10377000DA82C9821E82CE0101960E949108BE01A2
:103780006F5F7F4FCE01CB960E94CA0C19A218A280
:10379000DF8ECE8E1BA221968FAD2197811122C084
:1037A000F8011382128288EE93E0A0E0B0E08483F7
:1037B0009583A683B78388E294E091838083128EF9
:1037C000118E1486C801C95ADF4F0FB6F894DEBFB8
:1037D0000FBECDBFDF91CF911F910F91FF90DF9072
:1037E000CF9008952F2D47E654E0BE01655C7F4FD2
:1037F000CE014E960E94B518882391F2CE01CB9649
:103800000E94110B8F2D8670863041F449A95AA968
:103810006BA97CA9CE014E960E94E508BE01625EAE
:103820007F4FCE0101960E94CA0C47E654E0BE01CC
:103830006F5F7F4FC8010E946B1BC4CF2F923F92D6
:103840004F925F926F927F928F929F92AF92BF92B0
:10385000CF92DF92EF92FF920F931F93CF93DF935C
:10386000CDB7DEB7A2970FB6F894DEBF0FBECDBFBF
:103870001B01FC01408151812C01F2E14F0E511CD2
:103880003C0122E0620E711C88E180937A0910925B
:103890007B0910927C0910927D0910927E0910928A
:1038A0007F0910928009109281091F9281E08F9305
:1038B0004301520180E1C82ED12CE12CF12C00E013
:1038C00010E020E030E0BE016F5F7F4F82E899E0BA
:1038D0000E94471088E0FE013196A2E9B9E001900C
:1038E0000D928A95E1F70E942C02F10160837183A9
:1038F0008283938388E190E00E948323F101968381
:103900008583E2E8F9E0DC0188E101900D928A9577
:10391000E1F7D0907A09E0907B09F0907C09009162
:103920007D0910917E09B0917F09F0918009E091A5
:1039300081090F900F902D2D3E2D4F2D502F612F6F
:103940007B2F8F2F9E2FA7E00E94FE2509F0D8F431
:10395000F1011482A2960FB6F894DEBF0FBECDBF60
:10396000DF91CF911F910F91FF90EF90DF90CF905B
:10397000BF90AF909F908F907F906F905F904F908F
:103980003F902F900895A8EF0E94E02529A33AA325
:103990001F921F92C9A0DAA07A018B019C0142E814
:1039A00059E0BE01675E7F4FCE0101960E9447102D
:1039B00049A15AA1FE0179960F900F9090E080E006
:1039C00020E03191DA01A80FB91FAE57B64F6C91C4
:1039D0003627232B01968830910599F72111B8CF0E
:1039E00081E0F1018483B6CF8F929F92AF92BF9214
:1039F000CF92DF92EF92FF920F931F93CF93DF93BB
:103A00008C018EE190E00E948323EC01892B69F008
:103A100080E190E00E94832399838883892B99F425
:103A2000CE010E941F24D0E0C0E0CE01DF91CF91F3
:103A30001F910F91FF90EF90DF90CF90BF90AF90CC
:103A40009F908F9008957E0182E0E80EF11C47015F
:103A50006E01E2E1CE0ED11CA12CBB24B3940E94D6
:103A6000F324B5010E946525F40181934F01EC1503
:103A7000FD05A9F76E01FEE1CF0ED11CA12CBB24E0
:103A8000B3940E94F324B5010E946525F40181934B
:103A90004F01EC15FD05A9F7888099806401F0E1DC
:103AA000CF0ED11CA12CBB24B3940E94F324B501EA
:103AB0000E946525F40181934F01CE16DF06A9F718
:103AC00088819981F80193838283F182E082ADCF6E
:103AD0008F929F92AF92BF92CF92DF92EF92FF921E
:103AE0000F931F93CF93DF935C016B017B01EE0C6F
:103AF000FF1CC70101960E9483238C01009709F1E6
:103B0000E5014C01CA0CDB1C8CE7A82E84E0B82E22
:103B100089911F928F93BF92AF929F928F920E9432
:103B20006B2682E0880E911C0F900F900F900F90E3
:103B30000F900F90CC15DD0559F7F801EE0DFF1D24
:103B40001082C801DF91CF911F910F91FF90EF90EC
:103B5000DF90CF90BF90AF909F908F9008952F925D
:103B60003F924F925F926F927F928F929F92AF920D
:103B7000BF92CF92DF92EF92FF920F931F93CF935A
:103B8000DF93CDB7DEB7CA50D4400FB6F894DEBF8E
:103B90000FBECDBFC75FDB4F99838883C950D44028
:103BA0008B01DB0191964D915D916D917C91949784
:103BB0005D96CD90DD90ED90FC9090972A013B01B1
:103BC0004C185D086E087F0856968D919D910D905A
:103BD000BC91A02D4C015D018C189D08AE08BF085A
:103BE000CF5FDB4F88829982AA82BB82C150D440CA
:103BF0005A016B01A81AB90ACA0ADB0ACB5FDB4F6C
:103C0000A882B982CA82DB82C550D440D8015A96B4
:103C10008C9196E8292E94E0392E882321F081E8B2
:103C2000282E84E0382EF801838D948D009709F4B6
:103C30001EC166857785161617060CF018C10E94FE
:103C4000681D5C01D80154968D919C915597009701
:103C500009F412C11A966D917C91161617060CF094
:103C60000BC10E94681D6C01F8018289938900973D
:103C700009F407C164857585161617060CF001C195
:103C80000E94681D7C01BF92AF92FF928F93DF92DA
:103C9000CF923F922F92D80151968C9151978F934A
:103CA00050968C918F937F926F925F924F92C85FE4
:103CB000DB4FB881C850D440BF93C95FDB4FE88168
:103CC000C750D440EF93CA5FDB4FF881C650D44051
:103CD000FF93CB5FDB4F8880C550D4408F92CC5F81
:103CE000DB4F9880C450D4409F92CD5FDB4F8881DA
:103CF000C350D4408F93CE5FDB4F9881C250D440E5
:103D00009F93CF5FDB4FA881C150D440AF931F93E7
:103D10000F9380E994E09F938F93FE0131964F01BA
:103D2000FF93EF930E946B26BF92AF92FF92EF92A8
:103D3000DF92CF923F922F92D80151968C9151975A
:103D40008F9350968C918F937F926F925F924F9248
:103D5000C85FDB4FB881C850D440BF93C95FDB4F09
:103D6000E881C750D440EF93CA5FDB4FF881C6505B
:103D7000D440FF93CB5FDB4F8881C550D4408F93F5
:103D8000CC5FDB4F9881C450D4409F93CD5FDB4F15
:103D9000A881C350D440AF93CE5FDB4FB881C250EF
:103DA000D440BF93CF5FDB4FE881C150D440EF9345
:103DB0001F930F9384ED94E09F938F933E01FFEF49
:103DC0006F1AFDEF7F0A7F926F920E946B260FB6EB
:103DD000F894DEBF0FBECDBFB4018DEA9BE00E9418
:103DE000A118C75FDB4FA881B981C950D44059964B
:103DF000ED91FC915A97309739F08581882321F015
:103E0000B301CD010E94A118A114B10419F0C5019C
:103E10000E941F24C114D10419F0C6010E941F245E
:103E2000E114F10419F0C7010E941F24F801838DE9
:103E3000948D009711F00E941F24C65FDB4F0FB6D0
:103E4000F894DEBF0FBECDBFDF91CF911F910F91D0
:103E5000FF90EF90DF90CF90BF90AF909F908F90AA
:103E60007F906F905F904F903F902F9008958CE8D7
:103E700094E00E941E26E5CE8CE894E00E941E2667
:103E8000F2CE8CE894E00E941E26FCCE1F920F9288
:103E90000FB60F9211242F933F938F939F93AF935D
:103EA000BF938091A7099091A809A091A909B09109
:103EB000AA093091A60923E0230F2D3758F5019662
:103EC000A11DB11D2093A6098093A7099093A8096D
:103ED000A093A909B093AA098091A2099091A3097E
:103EE000A091A409B091A5090196A11DB11D8093CF
:103EF000A2099093A309A093A409B093A509BF9127
:103F0000AF919F918F913F912F910F900FBE0F9086
:103F10001F90189526E8230F0296A11DB11DD2CF40
:103F20001F920F920FB60F9211240BB60F922F9380
:103F30003F934F935F936F937F938F939F93AF9331
:103F4000BF93EF93FF938DEA9BE00E94AC02FF9139
:103F5000EF91BF91AF919F918F917F916F915F9101
:103F60004F913F912F910F900BBE0F900FBE0F906E
:103F70001F9018951F920F920FB60F9211240BB637
:103F80000F922F938F939F93EF93FF93E091BD0B2D
:103F9000F091BE0B8081E091C30BF091C40B82FDC8
:103FA0001DC090818091C60B8F5F8F732091C70BCE
:103FB000821741F0E091C60BF0E0E355F44F958F86
:103FC0008093C60BFF91EF919F918F912F910F904E
:103FD0000BBE0F900FBE0F901F9018958081F2CFEF
:103FE000EDEAFBE01382128288EE93E0A0E0B0E0FD
:103FF00084839583A683B7838AE394E09183808347
:1040000085EC90E09587848784EC90E0978786879D
:1040100080EC90E0918B808B81EC90E0938B828B95
:1040200082EC90E0958B848B86EC90E0978B868B6E
:10403000118E128E138E148EEAE4FCE080E58083EC
:104040001182ECE4FCE0158216821186138682E070
:1040500090E0A0E0B0E084879587A687B78713A299
:1040600015A614A68CE494E093A782A717A680E176
:10407000E4E5F4E0A4E0B2E001900D928A95E1F766
:104080000895CF93DF93CDB7DEB7C155D1090FB6F1
:10409000F894DEBF0FBECDBF789484B5826084BD36
:1040A00084B5816084BD85B5826085BD85B581603C
:1040B00085BD80916E00816080936E0010928100BA
:1040C0008091810082608093810080918100816075
:1040D0008093810080918000816080938000809136
:1040E000B10084608093B1008091B00081608093C2
:1040F000B000809191008260809391008091910046
:104100008160809391008091900081608093900005
:104110008091A10082608093A1008091A1008160C4
:104120008093A1008091A00081608093A000809185
:10413000210182608093210180912101816080931F
:1041400021018091200181608093200180917A007B
:10415000846080937A0080917A00826080937A00F4
:1041600080917A00816080937A0080917A008068E3
:1041700080937A001092C100E091BD0BF091BE0BCC
:1041800082E08083E091B90BF091BA0B1082E0914C
:10419000BB0BF091BC0B8FEC80831092C50BE091B0
:1041A000C10BF091C20B86E08083E091BF0BF091D0
:1041B000C00B808180618083E091BF0BF091C00BC8
:1041C000808188608083E091BF0BF091C00B80817B
:1041D00080688083E091BF0BF091C00B80818F7D60
:1041E000808382EF94E00E949C1880917B0C88234E
:1041F00021F086E79CE00E94110B1092570C109260
:10420000550C1092520C1092510C85E38093500C77
:104210000E942C028B018091500C0E94810161E070
:104220008091500C0E94A001FFB6F8948091A109E2
:10423000811124C0E3E4F2E08491E9E8F2E0949192
:10424000E82FF0E0EE0FFF1FEC50FE4FA591B49168
:10425000EC91E92321F461E085E30E94A00185E36C
:104260000E9481018CB580618CBD8CB580648CBD51
:1042700084E30E94810183E30E9481018091A1096E
:104280008F5F8093A109FFBE82E580934A0C109254
:104290004B0C80914A0C90914B0C0E94A2032AE097
:1042A000F22E8FEF0E947D03FA94F110FACF8CE486
:1042B0009CE00E94A50320E030E0A90160E08CE4CE
:1042C0009CE00E94BB03F82E8093560C21E08217DD
:1042D00039F10E942C02601B710B613D774058F34D
:1042E00081E08093510C8CE49CE00E9472036CE4AA
:1042F00075E08DEA9BE00E94A1186EE575E08DEAFD
:104300009BE00E94A11865E775E08DEA9BE00E94A2
:10431000A1186BE875E08DEA9BE00E94A118FFCF21
:104320002AEA31E040E050E068E08CE49CE00E9442
:10433000BB0382FF2AC0F092570C8091570CC12C0E
:10434000D12C7601823029F4C12CD12CE12C80E4CF
:10435000F82E20E030E0A90167E38CE49CE00E94A5
:10436000BB03A701960169E28CE49CE00E94BB03B9
:104370008093560C8823D1F00E942C02601B710B95
:10438000613D774030F388E0ACCF94E0F92E0E9495
:1043900084038093560CFA94F110F9CF8A3A11F005
:1043A00082E09FCF82E08093570CC7CF8091570C5B
:1043B0008230D1F420E030E0A9016AE38CE49CE093
:1043C0000E94BB03882311F086E08BCF0E948403F8
:1043D000807C803C19F483E08093570C0E94840316
:1043E0000E9484030E9484038CE49CE00E94720378
:1043F00080E580934A0C10924B0C81E00E94DA0514
:10440000882311F186E79CE00E949108882309F433
:104410006ECF6EE075E08DEA9BE00E94A11882E10C
:1044200095E00E949C188DEF9AE10E94571A811125
:1044300012C085ED95E00E949C1887E694E00E94EA
:104440009C1867ED75E018C080E00E94DA058823AB
:1044500009F44DCFD7CF8AE29BE10E94571A8823F7
:1044600009F4BDC08EEA95E00E949C1887E694E0AE
:104470000E949C186AEB75E08DEA9BE00E94A118EF
:1044800067E1CE0186960E94A01B65EE75E08DEA7D
:104490009BE00E94A1186BE076E08DEA9BE00E9411
:1044A000A11863EE76E08DEA9BE00E94A1186FE60A
:1044B00077E08DEA9BE00E94A1182196EEADFFAD5A
:1044C0002197309709F496C08581882309F492C01A
:1044D0006BEF77E0CE0186960E94A11808EE13E0FC
:1044E0005E01E0E5AE0EB11C27961FAE1EAE27970B
:1044F00029961FAE1EAE2997E0911602F091170281
:10450000CE018F5B9F4F19957C01892B09F077C0F5
:104510008EEB98E00E949C1864E072E08DEA9BE0CC
:104520000E94A11801501109F9F66BE876E08DEAB6
:104530009BE00E94A1182196EEADFFAD2197309728
:1045400009F185818823F1F06BE876E0CE0186964B
:104550000E94A11821968EAD9FAD2197009761F022
:104560000E94110B21968EAD9FAD21970E941F24B2
:1045700021961FAE1EAE21976EED78E08DEA9BE08E
:104580000E94A1188BE099E00E949C1887E694E0B5
:104590000E949C1863E379E08DEA9BE00E94A118D9
:1045A00061E0CE0101960E94A01BEA8DFB8D309741
:1045B00009F49EC08581882309F49AC0CE01019632
:1045C0000E94240D892B09F47EC0CE0101960E9421
:1045D000A60E682F8DEA9BE00E94CE02EFCF85ECFD
:1045E00095E00E949C1887E694E00E949C1860E188
:1045F00075E042CF6DE678E08DEA9BE06DCF80906C
:104600001402909015022E961FAE2E9760961FAE44
:104610001EAE60970E942C026E8F7F8F88A399A395
:104620008091950C9091960C009711F489E99CE08B
:104630006501C81AD90ABE01675B7F4FC701F40143
:1046400019950E942C026AA37BA38CA39DA3809141
:10465000950C9091960C009711F489E99CE09501D6
:10466000281B390BC21AD30ADA8AC98A87E0FE01ED
:10467000E75BFF4FDE01579601900D928A95E1F7B7
:1046800080E1E4E0F2E0DE01119601900D928A955E
:10469000E1F723968EAD9FAD23979C8B8B8B259650
:1046A0008EAD9FAD25979E8B8D8BBE016F5F7F4F2B
:1046B000CE0186960E94AF1DE0911802F09119027A
:1046C000C70119952FCF8A8D9B8D009741F00E94CD
:1046D000110B8A8D9B8D0E941F241B8E1A8E69E3FD
:1046E00079E08DEA9BE00E94A1180E943B03FDCF78
:1046F0008CE599E00E949C1887E694E00E949C1843
:104700006BE679E0EECF0F931F93CF93DF93823068
:10471000910510F482E090E0E091970CF091980CF4
:1047200030E020E0B0E0A0E0309799F421153105A9
:1047300009F44AC0281B390B24303105D8F58A8189
:104740009B816115710589F1FB0193838283FE01D1
:1047500011C0408151810281138148175907E0F04F
:104760004817590799F4109761F012960C93129715
:1047700013961C933296CF01DF91CF911F910F9129
:1047800008950093970C1093980CF4CF21153105E0
:1047900051F04217530738F0A901DB019A01BD011E
:1047A000DF01F801C1CFEF01F9CF9093980C80930E
:1047B000970CCDCFFE01E20FF31F8193919322500E
:1047C000310939832883D7CF2091950C3091960CED
:1047D000232B41F420911C0230911D023093960C42
:1047E0002093950C20911A0230911B02211531055E
:1047F00041F42DB73EB740911E0250911F02241B79
:10480000350BE091950CF091960CE217F307A0F4AC
:104810002E1B3F0B2817390778F0AC014E5F5F4F16
:104820002417350748F04E0F5F1F5093960C4093A6
:10483000950C819391939FCFF0E0E0E09CCFCF93D4
:10484000DF930097E9F0FC01329713821282A09166
:10485000970CB091980CED0130E020E01097A1F496
:1048600020813181820F931F2091950C3091960CFD
:104870002817390709F061C0F093960CE093950C66
:10488000DF91CF910895EA01CE17DF07E8F54A815D
:104890005B819E0141155105B1F7E901FB83EA8374
:1048A00049915991C40FD51FEC17FD0761F4808120
:1048B00091810296840F951FE901998388838281F3
:1048C00093819B838A83F0E0E0E012968D919C9126
:1048D00013970097B9F52D913C911197CD01029650
:1048E000820F931F2091950C3091960C2817390751
:1048F00039F6309751F51092980C1092970CB093AE
:10490000960CA093950CBCCFD383C2834081518178
:10491000840F951FC817D90761F44E5F5F4F8881D8
:104920009981480F591F518340838A819B819383CA
:1049300082832115310509F0B0CFF093980CE093F4
:10494000970C9ECFFD01DC01C0CF13821282D7CF1E
:104950008F929F92AF92BF92CF92DF92EF92FF928F
:10496000CF93DF93EC01688179818A819B81611506
:1049700071058105910521F464E279ED8BE597E0FD
:104980002DE133EF41E050E00E94022549015A0138
:104990009B01AC01A7EAB1E40E9421256B017C01D7
:1049A000ACEEB4EFA50194010E942F25DC01CB01F0
:1049B0008C0D9D1DAE1DBF1DB7FF03C00197A10942
:1049C000B04888839983AA83BB839F77DF91CF9177
:1049D000FF90EF90DF90CF90BF90AF909F908F901F
:1049E00008950C94A82480E292E00C94A824B0E0EE
:1049F000A0E08093200290932102A0932202B09322
:104A000023020895052E97FB1EF400940E94192599
:104A100057FD07D00E94342507FC03D04EF40C94B8
:104A2000192550954095309521953F4F4F4F5F4F39
:104A3000089590958095709561957F4F8F4F9F4F0A
:104A400008950E945625A59F900DB49F900DA49F98
:104A5000800D911D11240895B7FF0C9421250E940B
:104A60002125821B930B0895A1E21A2EAA1BBB1BC2
:104A7000FD010DC0AA1FBB1FEE1FFF1FA217B3072A
:104A8000E407F50720F0A21BB30BE40BF50B661F40
:104A9000771F881F991F1A9469F760957095809504
:104AA00090959B01AC01BD01CF010895A29FB0017B
:104AB000B39FC001A39F700D811D1124911DB29F52
:104AC000700D811D1124911D089597FB072E16F47A
:104AD000009407D077FD09D00E940A2607FC05D074
:104AE0003EF4909581959F4F0895709561957F4F05
:104AF0000895EE0FFF1F881F8BBF0790F691E02DE2
:104B00001994689401C0E8948F929F92CF93DF9399
:104B10000E948F25DF91CF919F908F9008958824D8
:104B20009924F401E401B0E49F93AA279A158B0419
:104B30009C04ED05FE05CF05D007A10798F4AD2F25
:104B4000DC2FCF2FFE2FE92D982C892E982F872F21
:104B5000762F652F542F432F322F2227B85031F74D
:104B6000BF9127C01B2EBF91BB27220F331F441FAD
:104B7000551F661F771F881F991F881C991CEE1FE1
:104B8000FF1FCC1FDD1FAA1FBB1F8A149B04EC054F
:104B9000FD05CE05DF05A007B10748F08A189B0880
:104BA000EC09FD09CE09DF09A00BB10B21601A94B5
:104BB000E1F62EF49401AF01BE01CD01000C089581
:104BC0000024A7FD00942A0F301D401D501D601DBC
:104BD000701D801D901D08952A193B094C095D091F
:104BE0006E097F09800B910B08952A153B054C0532
:104BF0005D056E057F058007910708950024A7FDD8
:104C000000942A17300540055005600570058005A1
:104C100090050895AA1BBB1B51E107C0AA1FBB1F2B
:104C2000A617B70710F0A61BB70B881F991F5A9538
:104C3000A9F780959095BC01CD0108950F931F931E
:104C4000CF93DF938C01FC0101900020E9F7CF01A5
:104C5000801B910B0E948323EC01009719F0B8018F
:104C60000E945526CE01DF91CF911F910F9108959B
:104C7000FB01DC0104C08D910190801921F44150A9
:104C80005040C8F7881B990B0895FB01DC0102C056
:104C900001900D9241505040D8F70895DC0101C0B9
:104CA0006D9341505040E0F70895FB01DC01019005
:104CB0000D920020E1F70895FB01DC0141505040C6
:104CC00048F001900D920020C9F701C01D9241509B
:104CD0005040E0F708950F931F93CF93DF93CDB724
:104CE000DEB72E970FB6F894DEBF0FBECDBF0E898C
:104CF0001F8986E08C831A8309838FEF9FE79E8349
:104D00008D83AE01465E5F4F688D798DCE01019631
:104D10000E949B262F813885020F131FF8011082F5
:104D20002E960FB6F894DEBF0FBECDBFDF91CF91A8
:104D30001F910F9108952F923F924F925F926F9221
:104D40007F928F929F92AF92BF92CF92DF92EF921B
:104D5000FF920F931F93CF93DF9300D000D000D02A
:104D60001F921F92CDB7DEB77C013B018A01FC0187
:104D700017821682838181FFDDC1CE0101965C011D
:104D8000F7019381F30193FD859193FF81913F0199
:104D9000882309F453C1853239F493FD859193FF3B
:104DA00081913F01853229F4B70190E00E94B32838
:104DB000E7CF912C212C312CFFE1F31538F08B3209
:104DC00011F190F4803209F1833229F137FC3CC0B3
:104DD00020ED280F2A3050F536FE20C08AE0989E3C
:104DE000200D1124922E06C08D3291F0803371F780
:104DF000689430F8F30193FD859193FF81913F0111
:104E00008111DACF21C0689431F8689432F8F2CF7A
:104E1000689433F8EFCF689434F8ECCFEAE02E9E34
:104E2000200D1124222E689435F8E4CF8E3229F417
:104E300036FC04C1689436F8DDCF8C3619F46894DA
:104E400037F8D8CF8836B1F2982F9F7D955493309C
:104E5000E0F08336A1F18337C1F1833509F063C0F7
:104E60002801F2E04F0E511CF801C080D180692D5D
:104E700070E036FC02C06FEF7FEFC6010E949D28F4
:104E80004C01689437F882010AC00C5F1F4FFFE3A2
:104E9000F98388248394912C6501E89437F833FED4
:104EA0002DC0522C8114910471F5552009F468CF5E
:104EB000B70180E290E00E94B3285A94F6CFF8013F
:104EC000808189830E5F1F4FE4CF2801F2E04F0EEF
:104ED000511CF801C080D180692D70E036FC02C001
:104EE0006FEF7FEFC6010E94A8284C018201D5CF49
:104EF000B70180E290E00E94B3282A942814190494
:104F000009F0B0F7CECFF60137FC859137FE8191DD
:104F10006F01B70190E00E94B32851105A94F1E05C
:104F20008F1A9108BFCF843619F0893609F077C0FF
:104F3000F80137FE6BC060817181828193810C5FC3
:104F40001F4FF32DFF763F2E97FF09C09095809558
:104F5000709561957F4F8F4F9F4F689437F82AE087
:104F600030E0A5010E94E328C82ECA188C2C432CDF
:104F700036FE0CC0E89440F8C91440F434FE05C075
:104F800032FC03C0F32DFE7E4F2E892C44FEAAC0B6
:104F9000FE01EC0DF11D8081803309F09CC0242DB1
:104FA000297E422E842D8870582E43FCAAC040FED4
:104FB000A4C09C2C821418F42C0C922C981844FE3B
:104FC000A6C0B70180E390E00E94B32842FE09C06A
:104FD00088E790E041FE02C088E590E0B7010E94BA
:104FE000B328C91408F49FC0CA94D12C9FEFC91AE2
:104FF000D90ACA0CDB1CF60182916F01B70190E05F
:105000000E94B328AC14BD04B1F74FCF6081718109
:10501000072E000C880B990B0E5F1F4F92CFD32CDD
:10502000E894D4F82AE030E08537E1F1232D297F98
:10503000D22E8F36A9F1F0F4883551F1F70186812F
:1050400097812B960FB6F894DEBF0FBECDBFDF91D0
:10505000CF911F910F91FF90EF90DF90CF90BF9075
:10506000AF909F908F907F906F905F904F903F9008
:105070002F900895803749F0883701F7D4FE02C099
:105080006894D2F820E130E00DC06894D4F8F6CFEF
:1050900034FE03C0822F8660D82E20E132E002C0A9
:1050A00028E030E0F801D7FE0FC060817181828175
:1050B00093810C5F1F4FA5010E94E328C82ECA18D8
:1050C0003D2CE89437F852CF6081718190E080E008
:1050D0000E5F1F4FF0CF42FC02C0839463CF8394D6
:1050E000839460CF842D867809F45CCFF6CFB70126
:1050F00080E290E00E94B32883948214C0F3512C84
:105100005ECF522C5818821408F459CFF8CF842D52
:10511000867809F466CF8BE241FE80E247FC8DE29F
:10512000B70190E05CCFB70180E390E00E94B32824
:105130009A9457CF8FEF9FEF84CFFC010590615079
:1051400070400110D8F7809590958E0F9F1F08959D
:10515000FC016150704001900110D8F78095909546
:105160008E0F9F1F08950F931F93CF93DF93182FD8
:10517000092FEB018B8181FD09C01FEF0FEF812FFC
:10518000902FDF91CF911F910F91089582FF14C04E
:105190002E813F818C819D81281739073CF4E8815D
:1051A000F981CF0101969983888310838E819F8135
:1051B00001969F838E83E3CFE885F985812F19952A
:1051C000892BA1F3DACFFA01AA27283051F1203137
:1051D00081F1E8946F936E7F6E5F7F4F8F4F9F4F8B
:1051E000AF4FB1E03ED0B4E03CD0670F781F891FCD
:1051F0009A1FA11D680F791F8A1F911DA11D6A0F9B
:10520000711D811D911DA11D20D009F468943F914D
:105210002AE0269F11243019305D3193DEF6CF014C
:105220000895462F4770405D4193B3E00FD0C9F712
:10523000F6CF462F4F70405D4A3318F0495D31FD7F
:105240004052419302D0A9F7EACFB4E0A6959795D2
:10525000879577956795BA95C9F7009761057105A8
:1052600008959B01AC010A2E0694579547953795F2
:105270002795BA95C9F7620F731F841F951FA01D4C
:065280000895F894FFCF31
:10528600FFFFFFFF0000000000000000000000001C
:10529600000000001E1CF41C81180000990C800000
:1052A60001000000EE00ED00EB00E000E200E1008E
:1052B600E400EF00E700EA00E800E500E900EC00A2
:1052C600E300E600DE00DD00DB00D000D200D10006
:1052D600D400DF00D700DA00D800D500D900DC0002
:1052E600D300D600BE00BD00BB00B000B200B100C6
:1052F600B400BF00B700BA00B800B500B900BC00E2
:10530600B300B6000E000D000B0000000200010005
:1053160004000F0007000A000800050009000C0041
:10532600030006002E002D002B0020002200210085
:1053360024002F0027002A002800250029002C0021
:10534600230026001E001D001B0010001200110085
:1053560014001F0017001A001800150019001C0081
:10536600130016004E004D004B0040004200410065
:1053760044004F0047004A004800450049004C00E1
:1053860043004600FE00FD00FB00F000F200F100C5
:10539600F400FF00F700FA00F800F500F900FC0041
:1053A600F300F6007E007D007B0070007200710045
:1053B60074007F0077007A007800750079007C0021
:1053C60073007600AE00AD00AB00A000A200A10005
:1053D600A400AF00A700AA00A800A500A900AC0081
:1053E600A300A6008E008D008B0080008200810045
:1053F60084008F0087008A008800850089008C0061
:10540600830086005E005D005B0050005200510084
:1054160054005F0057005A005800550059005C00C0
:10542600530056009E009D009B0090009200910044
:1054360094009F0097009A009800950099009C00A0
:1054460093009600CE00CD00CB00C000C200C10084
:10545600C400CF00C700CA00C800C500C900CC0000
:10546600C300C6003E003D003B0030003200310064
:1054760034003F0037003A003800350039003C0060
:10548600330036006E006D006B0060006200610044
:1054960064006F0067006A006800650069006C00C0
:1054A6006300660000000000710D540D440D1B0DD5
:1054B600240DA60EB00E00000000CE0238026502D2
:1054C6001B0396027402880200000000B90C380221
:1054D600B30A1A0D456C657068616E7400001000A1
:1054E600080018000D0A00726573756C74735F63AB
:1054F600686163686132302E6373760025303258F6
:1055060000547275650046616C7365004E2F41004C
:10551600252D3135737C20252D31326C75207C206C
:10552600252D31326C75207C20252D31326C75206D
:105536007C20252D313264207C20252D3773207C5C
:1055460020252D313573207C20252D313573207C87
:105556002025730025732C256C752C256C752C2540
:105566006C752C25642C25732C25732C25732C2502
:105576007300496E696369616C697A616E646F2054
:1055860063617274C3A36F2053442E2E2E004F4BBB
:10559600210056657269666963616E646F206520D5
:1055A60072656D6F76656E646F206172717569766E
:1055B6006F20646520726573756C7461646F732007
:1055C600616E746572696F722E2E2E0046616C686C
:1055D6006121205665726966697175653A002D20EC
:1055E60043617274C3A36F20534420696E7365725E
:1055F60069646F3F002D20436F6E6578C3B5657390
:1056060020636F7272657461733F002D204361726F
:1056160074C3A36F20666F726D617461646F202816
:1056260046415431362F4641543332293F002053E8
:1056360075636573736F212028002072656D6F7620
:1056460069646F2900204552524F20616F207265B0
:105656006D6F7665722000206EC3A36F2065786932
:105666007374652E000A2D2D2D20416C676F7269AB
:1056760074686D20506572666F726D616E63652029
:105686005265706F7274202D2D2D002D2D2D2D2D10
:105696002D2D2D2D2D2D2D2D2D2D2D2D2D2D2D2D34
:1056A6002D2D2D2D2D2D2D2D2D2D2D2D2D2D2D2D24
:1056B6002D2D2D2D2D2D2D2D2D2D2D2D2D2D2D2D14
:1056C6002D2D2D2D2D2D2D2D2D2D2D2D2D2D2D2D04
:1056D6002D2D2D2D2D2D2D2D2D2D2D2D2D2D2D2DF4
:1056E6002D2D2D2D2D2D2D2D2D2D2D2D2D2D2D2DE4
:1056F6002D2D2D2D2D2D2D2D2D2D2D2D2D2D2D2DD4
:105706002D2D2D2D2D2D2D2D2D2D2D2D2D2D2D2DC3
:105716002D2D2D2D2D2D2D2D2D2D2D2D2D2D2D2DB3
:105726002D2D2D2D2D2D2D2D2D2D2D2D2D2D2D2DA3
:105736002D2D2D2D2D2D2D2D2D2D2D2D2D2D2D2D93
:105746002D2D2D2D2D2D2D2D2D2D2D2D2D2D2D2D83
:105756002D2D2D2D2D2D2D2D2D2D2D2D2D2D2D2D73
:105766002D2D00416C676F726974686D20202020B2
:1057760020207C20456E6372797074202875732909
:10578600207C204465637279707420287573292003
:105796007C20546F74616C20287573292020207C2E
:1057A6002052414D202862797465732920202020DB
:1057B6007C2053756363657373207C20506C61692C
:1057C6006E74657874202848657829207C204B659E
:1057D60079202848657829207C20456E6372797087
:1057E6007465642044617461202848657829002D19
:1057F6002D2D2D2D2D2D2D2D2D2D2D2D2D2D7C2D84
:105806002D2D2D2D2D2D2D2D2D2D2D2D2D7C2D2D73
:105816002D2D2D2D2D2D2D2D2D2D2D2D7C2D2D2D63
:105826002D2D2D2D2D2D2D2D2D2D2D7C2D2D2D2D53
:105836002D2D2D2D2D2D2D2D2D2D2D2D7C2D2D2D43
:105846002D2D2D2D2D2D7C2D2D2D2D2D2D2D2D2D33
:105856002D2D2D2D2D2D2D2D7C2D2D2D2D2D2D2D23
:105866002D2D2D2D7C2D2D2D2D2D2D2D2D2D2D2D13
:105876002D2D2D2D2D2D2D2D2D2D00416C676F726B
:105886006974686D2C456E6372797074202875731F
:10589600292C4465637279707420287573292C54F9
:1058A6006F74616C20287573292C52414D20286233
:1058B60079746573292C537563636573732C506C07
:1058C60061696E746578742028486578292C4B6563
:1058D600792028486578292C456E6372797074653D
:1058E60064204461746120284865782900457272F5
:1058F6006F20616F206162726972206172717569D1
:10590600766F206E6F2063617274C3A36F20534459
:10591600207061726120657363726974612120521F
:105926006573756C7461646F73206EC3A36F2073A7
:105936006572C3A36F2073616C766F732E00466128
:10594600696C656420746F20616C6C6F636174654B
:1059560020636F6E7465787420666F7220005265DE
:1059660073756C7461646F732073616C766F7320EA
:105976006E6F2063617274C3A36F2053443A207222
:105986006573756C74732E747874000A2D2D2D2032
:10599600436F6E7465C3BA646F20436F6D706C6538
:1059A600746F20646F204172717569766F2053445D
:1059B60020280029202D2D2D000A2D2D2D20466969
:1059C6006D206461204C65697475726120646F2076
:1059D6004172717569766F202D2D2D004572726F9B
:1059E60020616F20616272697220002070617261AD
:0A59F600206C656974757261210070
:00000001FF
