:100000000C9452010C9483010C9483010C94830191
:100010000C9483010C9483010C9483010C94830150
:100020000C9483010C9483010C9483010C94830140
:100030000C9483010C9483010C9483010C94830130
:100040000C9483010C9483010C9483010C94830120
:100050000C9483010C9483010C9483010C94262747
:100060000C9483010C94B2270C9488270C94830180
:100070000C9483010C9483010C9483010C948301F0
:100080000C9483010C9483010C9483010C948301E0
:100090000C9483010C9483010C9483010C948301D0
:1000A0000C9483010C9483010C9483010C948301C0
:1000B0000C9483010C9483010C9483010C948301B0
:1000C0000C9483010C9483010C9483010C948301A0
:1000D0000C9483010C9483010C9483010C94830190
:1000E0000C9483010C94401D0C94C9010C94A30141
:1000F0000C9413150C949F030C94E7010C940A16AE
:100100000C94E1010C9448040C94ED010C949204BD
:100110000C947B200C94D5010C949B1E0C940D2701
:100120000C948B030C947A150C9497220C949915CB
:100130000C9417030C9434100C94BD010C947A03A6
:100140000C94A71E0C9442150C94A9010C94B501B3
:100150000C94E2150C94DB010C94CF010C94C301B8
:100160000C94AD030C94B9010C94FE010C94F901AC
:100170000C94D1150C9448120C94AF010C941215E8
:100180000C944B150C94C3230C94F3017C3C3E5E01
:100190002B3D3F2F5B5D3B2C2A225C0000002200A0
:1001A000250028002B002E00310034000201000041
:1001B000050108010B0100000A0B02090C0D0E08D5
:1001C0000703040100000000000000000000000020
:1001D000000000000000000000000000000000001F
:1001E00000001211100000000000000000000000DC
:1001F00000000000000000000000000000002100DE
:10020000240027002A002D003000330001010000E7
:10021000040107010A0101021020200808102040F3
:1002200010204080020102010804020101020408BA
:100230001020408080402010080402018004020148
:100240008040201008040201080402010102040891
:10025000102040800102040810204080050505059B
:10026000070508080808020202020A0A080804042E
:10027000040401010101010101010303030303035C
:100280000303040707070C0C0C0C0C0C0C0C0202EB
:10029000020206060606060606060B0B0B0B0B0BE8
:1002A0000B0B0D2711241FBECFEFD1E2DEBFCDBF58
:1002B00000E00CBF17E0A0E0B2E0EAE0FBE500E000
:1002C0000BBF02C007900D92A634B107D9F72AE000
:1002D000A6E4B7E001C01D92A434B207E1F711E033
:1002E000C2E5D1E000E006C021970109802FFE01A0
:1002F0000E94F528C135D10780E00807A9F70E94C0
:1003000081270C94832D0C9400008150823108F0D9
:1003100075C0E82FF0E08827EF56FE4F8F4F0C9402
:10032000F528B501B901A301A901AF01FE01BD0185
:10033000C301C901CF01D501DB01E101E701FE01E4
:10034000ED01F301F901E0E8F0E080818F7780832F
:100350000895E0E8F0E080818F7D80830895E0E8F3
:10036000F0E08081877F8083089584B58F7784BD96
:10037000089584B58F7D84BD0895E0EBF0E0808121
:100380008F7780830895E0EBF0E080818F7D80831C
:100390000895E0E9F0E080818F7780830895E0E9B7
:1003A000F0E080818F7D80830895E0E9F0E0808136
:1003B000877F80830895E0EAF0E080818F778083F3
:1003C0000895E0EAF0E080818F7D80830895E0EA7F
:1003D000F0E08081877F80830895E0E2F1E0808112
:1003E0008F7780830895E0E2F1E080818F7D8083C4
:1003F0000895E0E2F1E08081877F808308951F9374
:10040000CF93DF93282F30E0F901EA54FE4F849117
:10041000F901EA5EFD4F1491F901E45AFD4FC491D0
:10042000CC23A9F0D62F811116C0EC2FF0E0EE0FEF
:10043000FF1FE456FE4FA591B4918FB7F894D111E8
:100440000DC09C91E12FE095E923EC938FBFDF91E4
:10045000CF911F9108950E948501E7CFEC91E12B88
:10046000EC93F4CFCF93DF9390E0FC01EA5EFD4F75
:100470002491845A9D4FFC018491882319F190E0C6
:10048000880F991FFC01E450FE4FA591B491FC0127
:10049000E456FE4FC591D491662349F06230A9F02D
:1004A0008FB7F894EC91E22BEC938FBF0BC09FB702
:1004B000F8948C91E22FE0958E238C938881E82329
:1004C000E8839FBFDF91CF9108959FB7F8943C9147
:1004D000822F809583238C93E881E22BE8839FBF52
:1004E000F1CFCF93CFB7F89480913F0A811123C009
:1004F000E1E9F2E08491EBE4F2E09491E82FF0E09E
:10050000EE0FFF1FE450FE4FA591B491EC91E9234B
:10051000D1F061E085E30E9432028CB580618CBD30
:100520008CB580648CBD61E084E30E94320261E09E
:1005300083E30E94320280913F0A8F5F80933F0ADB
:10054000CFBFCF91089561E085E30E94FF01E1CF25
:10055000789484B5826084BD84B5816084BD85B59E
:10056000826085BD85B5816085BDEEE6F0E0808165
:1005700081608083E1E8F0E0108280818260808386
:10058000808181608083E0E8F0E080818160808309
:10059000E1EBF0E0808184608083E0EBF0E080813B
:1005A00081608083E1E9F0E08081826080838081E6
:1005B00081608083E0E9F0E0808181608083E1EA0E
:1005C000F0E0808182608083808181608083E0EAC6
:1005D000F0E0808181608083E1E2F1E080818260EF
:1005E0008083808181608083E0E2F1E080818160AE
:1005F0008083EAE7F0E0808184608083808182608C
:100600008083808181608083808180688083109274
:10061000C10008952FB7F89460913B0A70913C0A8D
:1006200080913D0A90913E0A2FBF08950895CF9280
:10063000DF92EF92FF920F931F93CF93DF938C0182
:10064000DB01D0E0C0E07A0181E0E81AF108452B37
:10065000A1F0F80180819181FC01208131816D013F
:10066000FFEFCF1ADF0A6C91C801F9011995892BA8
:1006700021F02196A701D601E6CFCE01DF91CF91DF
:100680001F910F91FF90EF90DF90CF900895019709
:1006900009F008956F3F7F4FE1F7E9E9F9E0138230
:1006A000128288EE93E0A0E0B0E084839583A68375
:1006B000B78382E692E09183808385EC90E0958712
:1006C000848784EC90E09787868780EC90E0918B1C
:1006D000808B81EC90E0938B828B82EC90E0958B09
:1006E000848B86EC90E0978B868B118E128E138E06
:1006F000148ECFCFFC01938D848D981720F4891B25
:10070000990B019708952FE330E0291B3109820FDF
:10071000932F911D0895FC01918D828D981761F0A2
:10072000A28DAE0FBF2FB11D5D968C91928D9F5FF4
:100730009F73928F90E008958FEF9FEF0895FC01D3
:10074000918D828D981731F0828DE80FF11D858D86
:1007500090E008958FEF9FEF0895FC01218D30E028
:10076000205C3F4F828DA901481B5109CA018F733C
:100770009927089589E999E00E94AD0321E0892B2A
:1007800009F420E0822F0895CF92DF92EF92FF923A
:100790001F93CF93DF93EC016A017B01122F60E07E
:1007A00079E08DE390E0A70196010E94C4282150D2
:1007B0003109410951095695479537952795E8899B
:1007C000F98982E08083C11481EED806E104F10446
:1007D00021F0211580E1380798F0E889F989108225
:1007E00060E874E88EE190E0A70196010E94C428B9
:1007F000215031094109510956954795379527955B
:10080000EC85FD853083EE85FF852083188EEC898D
:10081000FD891083EA89FB89808180618083EA8970
:10082000FB89808188608083EA89FB898081806878
:100830008083EA89FB8980818F7D8083DF91CF91DE
:100840001F91FF90EF90DF90CF900895FC01A48D51
:10085000A80FB92FB11DA35ABF4F2C91848D90E0E2
:1008600001968F739078848FA689B7892C93A0897D
:10087000B1898C91837080648C93938D848D98134F
:1008800008950288F389E02D80818F7D8083F8CFE1
:100890000F931F93CF93DF93EC0181E0888F9B8DA3
:1008A0008C8D9817B1F0062F8B8D90E001968F7389
:1008B0009078182F8C8D81131EC00FB607FCFACFCD
:1008C000E889F989808185FFF5CFCE010E94260451
:1008D000F1CFE889F989808185FFE5CF9FB7F8944A
:1008E000EE89FF896083E889F9898081837080645B
:1008F00080839FBF10C0EB8DEC0FFD2FF11DE35ADD
:10090000FF4F00839FB7F8941B8FEA89FB89808192
:10091000806280839FBF81E090E0DF91CF911F9143
:100920000F910895CF93DF93EC01888D811104C05E
:100930000DC00FB607FE0DC0EA89FB89808185FDD9
:10094000F8CFA889B9898C9186FFF3CFDF91CF9139
:100950000895808185FFF0CFE889F989808185FF3E
:10096000EBCFCE010E942604E7CF80E090E0892BF8
:1009700021F00E94BA03811125C080E090E0892B0C
:1009800041F080E090E0892B21F00E94000081116D
:100990001CC080E090E0892B41F080E090E0892B42
:1009A00021F00E940000811113C080E090E0892BAB
:1009B00041F080E090E0892B21F00E94000081113D
:1009C0000AC008950E940000D8CF0E940000E1CF25
:1009D0000E940000EACF0E940000F3CFCF93DF9384
:1009E000DC0190E09B3038F4FB01E90FF11D20E2BF
:1009F00020839F5FF7CF40E057E020C0ECE8F1E0B4
:100A00009F012F5F3F4F8491882339F0F90198139C
:100A1000F7CF80E0DF91CF9108955417D8F391324A
:100A2000C8F39F37B8F78FE9890F8A3108F49052DD
:100A3000FB01E40FF11D90834F5FDE01ED01219674
:100A40009C91992339F09E32C9F65A3051F048E012
:100A50005AE0F3CFFB01908181E09032D9F680E03B
:100A6000D9CF80E0D7CF019709F008956F3F7F4F2E
:100A7000E1F7E0E9F7E080E580831182F6CF6730A7
:100A800078F4623021F188F0643079F138F1653022
:100A900099F582E5809390071092910781E008957F
:100AA00026E1FC01258380E00895662349F061304A
:100AB00019F580E58093900710929107862F08958D
:100AC00080E58093900781E080939107089581E508
:100AD0008093900781E080939107089581E580934A
:100AE00090071092910781E0089582E58093900726
:100AF00081E080939107089583E580939007109299
:100B0000910781E008958CBD9DBD089520918F07C8
:100B1000222331F060E0FC0184810E94FF010895EE
:100B200021E020938F0730919007209191073CBDE1
:100B30002DBDF0CF61E0FC0184810E94FF01809116
:100B40008F07811110928F0708958FEF8EBD0000DF
:100B50000DB407FEFDCF8EB508951F93CF93DF939D
:100B6000EC010E9486050E94A505182FCE010E9467
:100B70009A0581E01F3F21F0DF91CF911F910895E9
:100B800080E0FACF0F931F93CF93DF93EC010E9485
:100B90000A038B010E94A5058A878F3F91F40E946A
:100BA0000A03601B710B6D327140A0F38FE08D83DF
:100BB000CE010E949A0580E0DF91CF911F910F91A5
:100BC00008958E3F19F08DE08D83F2CF81E0F4CF50
:100BD0000F931F93CF93DF93EB010E940A038B01C6
:100BE0000E94A5058F3F49F00E940A03601B710B0C
:100BF0006C177D07A8F380E001C081E0DF91CF9101
:100C00001F910F910895CF93DF93EC018E8188237C
:100C100089F08F8198859C012F5F3F4F38872F8304
:100C20008230924018F40E94A505F3CFCE010E94B5
:100C30009A051E82DF91CF9108958EBD00000DB4FC
:100C400007FEFDCF8EB50895EF92FF920F931F938D
:100C5000CF93DF937C01862F8A010E941D06D0E08E
:100C6000C0E0C11582E0D80740F4F801EC0FFD1F89
:100C700080810E941D062196F4CF8FEF0E941D06F1
:100C80008FEF0E941D060E94A505F70182878F71D4
:100C9000853069F081E18583C7010E949A0580E073
:100CA000DF91CF911F910F91FF90EF90089581E018
:100CB000F7CFCF92DF92EF92FF920F931F93CF93D4
:100CC000DF938C01D62F69017A010E940306C801C7
:100CD0000E9486056CE271E0C8010E94E8058D2F34
:100CE00080640E941D06C8E1CC2374F0D701C601C0
:100CF0000C2E04C0B695A795979587950A94D2F7C0
:100D00000E941D06C850F0CFDD2381F08FEFD83050
:100D100079F00E941D06C0E00E94A505F8018287B7
:100D2000882344F4CF3F31F0CF5FF6CF85E9EFCF92
:100D300087E8EFCFDF91CF911F910F91FF90EF9058
:100D4000DF90CF900895EF92FF920F93CF93DF93B0
:100D5000EC017901411551056105710561F482E1EC
:100D60008D83CE010E949A0580E0DF91CF910F9193
:100D7000FF90EF9008958B85833049F0032E39E082
:100D8000440F551F661F771F3A95D1F7302D9A01F2
:100D9000AB0168E1CE010E945906882319F084E076
:100DA0008D83DFCFA7016EEFCE010E94240688233A
:100DB000C1F20023D1F068E572E0CE010E94E8059F
:100DC000811103C085E18D83CCCF20E030E0A90103
:100DD0006DE0CE010E945906882319F084E18D83CD
:100DE000C0CF0E94A5058111F9CFCE010E949A05BE
:100DF00081E0BBCF0F934091920750919307609190
:100E0000940770919507411551056105710519F415
:100E100081E00F910895082F27E937E08091970925
:100E2000909198090E94A306882399F31092920743
:100E300010929307109294071092950781E0E9CFE2
:100E40000F93CF9390919607911104C081E0CF91B9
:100E50000F910895C82F409116025091170260918A
:100E6000180270911902082F27E937E0809197093D
:100E7000909198090E94A306882349F3C11102C0EA
:100E800081E0E5CF8C2F0E94FA06882301F31092AF
:100E9000960781E0DCCFCF92DF92EF92FF926B0159
:100EA0007C0181E00E9420078823D1F090E080E05F
:100EB000811522E0920730F4FC01E956F84F1082C8
:100EC0000196F6CFC0921602D0921702E092180255
:100ED000F09219028091960781608093960781E0D5
:100EE000FF90EF90DF90CF900895AF92BF92CF9296
:100EF000DF92EF92FF920F931F93CF93DF93EC015A
:100F000069010115110509F46EC0C801820F931F14
:100F10008130924030F58E81882349F08881998113
:100F2000AA81BB8184179507A607B707F9F0488304
:100F300059836A837B838B85833049F0032E39E0A4
:100F4000440F551F661F771F3A95D1F7302D9A0130
:100F5000AB0161E1CE010E945906882369F083E06C
:100F60008D83CE010E949A0580E03EC08F819885D6
:100F7000C816D90650F4DBCFCE010E94C2058823E3
:100F800081F318861F8281E08E838F8198858C156E
:100F90009D0540F40E94A5058F819885019698874C
:100FA0008F83F3CFD12CC12CC016D10658F4570132
:100FB000AC0CBD1C0E94A505F5018083FFEFCF1A84
:100FC000DF0AF2CF8F819885080F191F18870F83CA
:100FD0008985882319F00115124088F0CE010E94FE
:100FE000030681E001C081E0DF91CF911F910F9155
:100FF000FF90EF90DF90CF90BF90AF90089581E089
:10100000F3CFEF92FF920F931F93790100E012E06C
:1010100030E020E00E9475071F910F91FF90EF9044
:101020000895CF92DF92EF92FF92CF936B017C01F4
:10103000C42F8091160290911702A0911802B091CE
:1010400019028C159D05AE05BF0561F44091960708
:101050004C2B4093960781E0CF91FF90EF90DF906B
:10106000CF90089581E00E9420078823A9F327E903
:1010700037E0B701A60180919709909198090E94E5
:101080000108882349F3C0921602D0921702E09219
:101090001802F0921902DACF4F925F926F927F920C
:1010A000AF92BF92CF92DF92EF92FF920F931F9376
:1010B000CF93DF938C01C42F7093980960939709A5
:1010C000442309F451C0453080F080E0DF91CF9196
:1010D0001F910F91FF90EF90DF90CF90BF90AF9056
:1010E0007F906F905F904F90089540E060E070E0D7
:1010F000CB010E941108882349F3C150DD0BFE018A
:10110000E295F295F07FFE27E07FFE27EB5AF64F3F
:1011100080818F7709F023C1FE01E295F295F07F7F
:10112000FE27E07FFE27EF59F64F80819181A28153
:10113000B38184369105A105B10508F412C1AE0151
:1011400042955295507F5427407F5427FA01E35A25
:10115000F64FC080D180E280F380C114D104E10455
:10116000F10429F480E0B2CFC12CD12C760140E00B
:10117000C701B6010E941108882309F4A7CF809106
:10118000A2079091A3078115924011F080E09ECFB5
:101190008091A707882309F499CF2091A507309162
:1011A000A607232B09F4DFC04091A407442309F4C8
:1011B000DCC0D80152968C93529714964C93149796
:1011C0001D961C92F8018585E82F21E030E0082E5D
:1011D00002C0220F331F0A94E2F74217130649F0A8
:1011E00091E0980FD8011D969C93883058F380E0C9
:1011F0006DCF2091AD073091AE072115310509F46F
:1012000091C050E040E0D80115962D933D934D9349
:101210005C9318970F2EF7E9AF2EF7E0BF2EF02D55
:10122000D5011E968D919C9126013701480E591EBD
:10123000611C711CD80153964D925D926D927C9207
:101240005697D5015196CD91DC91D8015996DC93F2
:10125000CE935897D50150968C91A82FB0E00E945C
:10126000B128460E571E681E791ED8015A964D9217
:101270005D926D927C925D97CE01880F991F829549
:101280009295907F9827807F982781509E4F892F35
:1012900099278695480E591E611C711C1E964D9209
:1012A0005D926D927C925197D50153968D919C9150
:1012B000009709F440C0B0E0A0E0C418D508E608E3
:1012C000F7088C0D9D1DAE1DBF1D6C017D0104C076
:1012D000F694E794D794C794EA95D2F7F801C186BB
:1012E000D286E386F486F5EFCF16FFE0DF06E10451
:1012F000F10450F1B5EFCB16BFEFDB06E104F104CA
:1013000048F18091C3079091C407A091C507B0919F
:10131000C607F801828F938FA48FB58F80E2878BE9
:1013200081E0D4CE2091BB073091BC074091BD072E
:101330005091BE0768CF8091B7079091B807A091F0
:10134000B907B091BA07B9CF8CE0D80157968C9302
:1013500081E0BCCE80E1F801878B81E0B7CE80E0F0
:10136000B5CE80E0B3CE80E0B1CE842FAFCE4F9229
:101370005F926F927F928F929F92AF92BF92CF9225
:10138000DF92EF92FF920F931F93CF93DF9300D0E2
:1013900000D0CDB7DEB7423051056105710508F4C4
:1013A00098C0DC011996CD90DD90ED90FC901C97D3
:1013B000BFEFCB1ADB0AEB0AFB0AC416D506E6061A
:1013C000F70608F49EC0FC01438854886588768837
:1013D000E789E03109F461C04A015B01689416F8BD
:1013E000B694A794979487941694D1F709831A8397
:1013F0002B833C836A017B019E838D83480C591C9F
:101400006A1C7B1C8091160290911702A091180211
:10141000B091190284159505A605B70509F042C0DB
:10142000AD81BE8157968C91803109F443C0B701DC
:10143000A6014F77552766277727440F551F440F7E
:10144000551F4956584F89819A81AB81BC81FA0159
:1014500080839183A283B383809196078160809378
:101460009607AD81BE8152968C915297823008F4D6
:101470004AC015968D919D910D90BC91A02D840D23
:10148000951DA61DB71D8093920790939307A09377
:101490009407B093950781E01DC0852E962EA72E48
:1014A000BB24A4CF40E0C301B2010E941108811106
:1014B000B7CF10C0B701A601552766277727440F7D
:1014C000551F4956584F89819A81FA01918380832B
:1014D000C3CF80E026960FB6F894DEBF0FBECDBF17
:1014E000DF91CF911F910F91FF90EF90DF90CF9000
:1014F000BF90AF909F908F907F906F905F904F9034
:10150000089580E0E7CF81E0E5CF8F929F92AF9280
:10151000BF92CF92DF92EF92FF920F931F93CF93E0
:10152000DF93FC01E90101851285238534850F5F76
:101530001F4F2F4F3F4F041715072607370708F493
:1015400062C083889488A588B68887898031D1F164
:10155000DB01CA01689416F8B695A795979587950B
:101560001694D1F76A017B018F01880D991DAA1D80
:10157000BB1D8090160290901702A0901802B090A8
:10158000190288169906AA06BB0609F5F80187898B
:10159000803129F1B701A6014F77552766277727B4
:1015A000440F551F440F551F4956584FFA0180816B
:1015B0009181A281B381BF7088839983AA83BB8301
:1015C00081E022C0BB27A72F962F852FCBCF40E0ED
:1015D000BC01CD010E9411088111D8CF15C0B701FF
:1015E000A601552766277727440F551F4956584FA0
:1015F000FA0180819181B0E0A0E088839983AA8379
:10160000BB8381E001C080E0DF91CF911F910F91FA
:10161000FF90EF90DF90CF90BF90AF909F908F9012
:101620000895AF92BF92CF92DF92EF92FF920F9305
:101630001F93CF93DF9300D01F92CDB7DEB75C012D
:101640006A017B0182E090E0A0E0B0E0F5018083D8
:101650009183A283B38309C088EF9FEFA0E0B0E03D
:10166000C816D906EA06FB0608F59E012F5F3F4F14
:10167000B701A601C5010E94850A8823C9F000E0D0
:1016800010E09801B701A601C5010E94B70988239F
:1016900079F0C980DA80EB80FC80F50187898031A0
:1016A000D9F288EF9FEFAFEFBFE0DACF81E001C062
:1016B00080E00F900F900F900F90DF91CF911F91CE
:1016C0000F91FF90EF90DF90CF90BF90AF90089573
:1016D0008F929F92AF92BF92EF92FF920F931F93C0
:1016E000CF93DF9300D01F92CDB7DEB78C01498333
:1016F0005A836B837C837901812C912C540109C01E
:1017000048EF5FEF60E070E084179507A607B70722
:1017100048F549815A816B817C819E012F5F3F4F43
:10172000C8010E94850A882319F1F801258580E007
:1017300092E0A0E0B0E004C0880F991FAA1FBB1F71
:101740002A95D2F7880E991EAA1EBB1E89819A81FE
:10175000AB81BC812789203199F248EF5FEF6FEFB1
:101760007FE0D2CFF70180829182A282B38281E0B2
:101770000F900F900F900F90DF91CF911F910F91CD
:10178000FF90EF90BF90AF909F908F9008950F9330
:101790001F93CF93DF93FC012581211145C08B015D
:1017A000EC01FB018789803121F0803251F180E02A
:1017B0003CC082E08D831F8A188E198E1A8E808D10
:1017C000918DB0E0A0E0689414F8880F991FAA1FCB
:1017D000BB1F1694D1F78B8B9C8BAD8BBE8B1C8F54
:1017E0000B8F81E08C831E821F82188619861A86D1
:1017F0001B861C861D861E861F86188A198A1A8AD1
:1018000014C083E08D83428D538D648D758D4F8B15
:10181000588F698F7A8F9E012D5E3F4FC8010E94BD
:10182000680B8111DCCF01C080E0DF91CF911F9167
:101830000F9108952F923F924F925F926F927F92F5
:101840008F929F92AF92BF92CF92DF92EF92FF92D0
:101850000F931F93CF93DF93CDB7DEB72F970FB6BC
:10186000F894DEBF0FBECDBF1C0149875A876B8736
:101870007C873E872D87D9014D905D906D907C903F
:101880004114510461047104D9F0BFEF4B1A5B0A93
:101890006B0A7B0A1F86F10181859285A385B48539
:1018A0009C01AD012F5F3F4F4F4F5F4F2D833E8314
:1018B0004F83588773016201812C912C54012FC0F2
:1018C000FC01408051806280738081E029853A85E7
:1018D0004B855C85213031054105510509F080E0DB
:1018E0008F87D9CFD701C60184199509A609B709F1
:1018F0000196A11DB11D29853A854B855C8582170E
:101900009307A407B50709F45CC03FEF831A930A55
:10191000A30AB30A4FEFC41AD40AE40AF40AF10185
:1019200081859285A385B48588169906AA06BB068B
:1019300070F52D813E814F8158852C153D054E0552
:101940005F0550F4C12CD12C76016894C1F8412C6C
:10195000512C3201689441F89E012F5F3F4FB7012F
:10196000A601C1010E94850A882389F089819A8194
:10197000AB81BC81892B8A2B8B2B09F4B3CF260139
:1019800037013FEF431A530A630A730ABECF80E060
:101990002F960FB6F894DEBF0FBECDBFDF91CF916B
:1019A0001F910F91FF90EF90DF90CF90BF90AF907D
:1019B0009F908F907F906F905F904F903F902F906F
:1019C00008950FEF1FEF2FEF3FE0B701A601C10110
:1019D0000E94B7098823E1F24C145D046E047F0471
:1019E00098F44601570151E0851A9108A108B10801
:1019F00097018601B501A401C1010E94B7097501D3
:101A000064018111E9CFC4CFAD85BE854D915D9153
:101A10006D917C914115510561057105B1F4ED851C
:101A2000FE854082518262827382FF85FF23A9F086
:101A30002FEF421A520A620A720AD1014D925D9248
:101A40006D927C92139781E0A3CF93018201C10133
:101A50000E94B7098111E3CF9BCF81E099CFCF934B
:101A6000DF93EC019C012A5F3F4F41E050E060E0D2
:101A700070E08B8D9C8D0E941A0C8823B9F08F89A1
:101A8000988DA98DBA8D892B8A2B8B2B59F48E8139
:101A90009F81A885B9858F8B988FA98FBA8F8C81EC
:101AA00080688C838C8180628C8381E0DF91CF9110
:101AB0000895CF92DF92EF92FF920F931F93CF93EF
:101AC0008C010E942F0D882309F451C0D8015B9628
:101AD000ED91FC915C971696CD90DD90ED90FC9089
:101AE000199786859785A089B18922E0C21AD10805
:101AF000E108F108258504C0CC0CDD1CEE1CFF1CA0
:101B00002A95D2F7C80ED91EEA1EFB1EC481CC232B
:101B100081F0C701B6016C0F711D811D911D6150CF
:101B20007109810991090E944B07882301F1C15075
:101B3000EECFD8015B96ED91FC91258580E092E097
:101B4000A0E0B0E004C0880F991FAA1FBB1F2A9510
:101B5000D2F7F8014389548965897689840F951FE6
:101B6000A61FB71F838B948BA58BB68B81E0CF917B
:101B70001F910F91FF90EF90DF90CF9008958F927B
:101B80009F92AF92BF92CF92DF92EF92FF920F930C
:101B90001F93CF93DF93FC012581222309F480C09A
:101BA000C388D488E588F688C416D506E606F70605
:101BB00008F484C0223009F458C04115510561056C
:101BC000710509F458C06A017B01EC010285138597
:101BD0002485358548015901F1E08F1A9108A10843
:101BE000B108EB8DFC8D858590E00996082E04C028
:101BF000B694A794979487940A94D2F741505109C8
:101C00006109710904C076956795579547958A953E
:101C1000D2F7481559056A057B0520F0012B022BE8
:101C2000032B99F58F89988DA98DBA8D8E839F830B
:101C3000A887B9874A015B0181E0881A9108A10849
:101C4000B108452B462B472B29F14E815F816885D2
:101C500079859E012A5F3F4F8B8D9C8D0E94850A5E
:101C6000B501A4018111E6CF1CC042875387648768
:101C7000758781E016C0168217821086118612863B
:101C800013861486158681E00CC0481959096A0923
:101C90007B09D0CFCA86DB86EC86FD8681E001C059
:101CA00080E0DF91CF911F910F91FF90EF90DF9037
:101CB000CF90BF90AF909F908F90089580E0F1CF2C
:101CC0002F923F924F925F926F927F928F929F924C
:101CD000AF92BF92CF92DF92EF92FF920F931F933A
:101CE000CF93DF934C016B011A01DC0115968C91A7
:101CF0001597882309F40CC114968C9180FF0BC1B1
:101D0000CA01B0E0A0E0F40103891489258936896D
:101D1000428553856485758528013901441A550A21
:101D2000660A770A481659066A067B0618F41801EF
:101D3000241A350A310189C05B96ED91FC91628DC0
:101D4000738D848D958D0F2EF9E036952795179517
:101D50000795FA95D1F7F02D600F711F821F931F21
:101D600035C0D40116964D915D916D917C91199776
:101D700094012A5F3F4FCF010E94850A882309F40E
:101D8000CDC0D4015B96ED91FC915C9716964D9178
:101D90005D916D917C91199786859785A089B18910
:101DA0004250510961097109258504C0440F551F2E
:101DB000661F771F2A95D2F7840F951FA61FB71F9E
:101DC000BC01CD016B0D711D811D911D20E032E024
:101DD0005901AC1ABD0AA614B70408F05301F40166
:101DE000248126FD05C0A114F2E0BF0609F065C0FC
:101DF00000911602109117022091180230911902D9
:101E0000061717072807390709F457C07601850117
:101E10009E01AB01BC0180919709909198090E94A5
:101E20007507882309F480C0CA0CDB1CF401828585
:101E30009385A485B5858A0D9B1DA11DB11D828743
:101E40009387A487B5876A187B086114710409F425
:101E50004AC0D4011A960D911D912D913C911D9768
:101E6000E801D17015968C911597823009F464CFF2
:101E70005B96ED91FC91B480BA94D901C801072E0C
:101E800079E0B695A795979587957A95D1F7702DB6
:101E9000B822209709F075CFB11073CF012B022B18
:101EA000032B09F05ECFF4018789908DA18DB28D4F
:101EB00086839783A087B18764CF40E00E94110892
:101EC000882379F1C956D84F9E012A0D3B1DC217B0
:101ED000D30709F4ABCF8881D6018C932196F60104
:101EE00031966F01F4CF822D932DDF91CF911F9109
:101EF0000F91FF90EF90DF90CF90BF90AF909F90A9
:101F00008F907F906F905F904F903F902F900895AB
:101F10008FEF9FEFEACF8FEF9FEFE7CF8FEF9FEF2E
:101F2000E4CF8FEF9FEFE1CF8FEF9FEFDECFFF92F8
:101F30000F931F93CF93DF931F92CDB7DEB7FC01B2
:101F400025812230A8F18C014285538564857585F1
:101F5000689414F876956795579547951694D1F738
:101F6000F42FFF70FF2E41E050E0BE016F5F7F4F06
:101F70000E94600E0197C9F4F80182859385A485BB
:101F8000B5854F96A11DB11D82879387A487B5871C
:101F9000F0E2FF9EC00111248956984F0F90DF9107
:101FA000CF911F910F91FF90089590E080E0F6CFC0
:101FB00090E080E0F3CFCF93DF93EC01462F6E8566
:101FC0007F85888999890E941108882351F08A8920
:101FD00020E2829FC00111248956984FDF91CF9152
:101FE000089590E080E0FACF1F93CF93DF93FC0138
:101FF00025812223A9F1162FEC018481882364F026
:10200000111103C08C818F7E8C83812F0E94200749
:10201000DF91CF911F91089561E0CF010E94DB0F06
:10202000009701F12D81223088F04F89588D698DFC
:102030007A8DFC01538F428F4F89588D698D7A8D2F
:10204000758B648B8C818F778C83DACF4B895C891D
:102050006D897E89FC01448F558F668F778FE5CF20
:1020600080E0D6CF80E0D4CFCF93DF93FC012581F1
:10207000213029F090E080E0DF91CF910895248114
:1020800021FF4CC0EC0122FF0DC082859385A48501
:10209000B585438954896589768984179507A6078C
:1020A000B70721F580919709909198090E94AD0595
:1020B000811137C08C8185FD21C0409192075091DC
:1020C00093076091940770919507452B462B472BFA
:1020D000F9F480618C838A859B85AC85BD859C01E4
:1020E000317080E092E0821B930BC6CFCF010E943B
:1020F000BF0D8111D7CF90E080E0BECF60E0CE0170
:102100000E94F40F8C818F7D8C8390E080E0B4CFAF
:1021100080E00E94FA0690E080E0AECF90E080E0A0
:10212000ABCF90E080E0A8CF2F923F924F925F928A
:102130006F927F928F929F92AF92BF92CF92DF92D7
:10214000EF92FF920F931F93CF93DF9300D01F92D4
:102150001F92CDB7DEB76C017B01342E252EDC013A
:1021600014969C911497892F82958F7021E0822775
:1021700081708D8315968C9115978130F9F081E0EF
:1021800090E0F6019383828380E090E00F900F90BF
:102190000F900F900F90DF91CF911F910F91FF90B3
:1021A000EF90DF90CF90BF90AF909F908F907F90F7
:1021B0006F905F904F903F902F90089591FFDFCFE9
:1021C00092FF10C01A968D919D910D90BC91A02DFB
:1021D000F601438954896589768984179507A6078E
:1021E000B70719F4832C922C67C0C6010E94BF0D5B
:1021F000882329F2F7CFC6010E942F0D81119CC0C0
:10220000BECF9E012F5F3F4FCF010E94850A8823DA
:10221000D1F0D6015B96ED91FC9189819A81AB81D9
:10222000BC812789203189F048EF5FEF6FEF7FE0B5
:1022300084179507A607B70768F4F6018683978386
:10224000A087B18779C090E0A1CF48EF5FEF60E051
:1022500070E0EECFC6010E942F0D81116DC08FCFAF
:102260008091160290911702A0911802B091190264
:1022700084159505A605B70509F4C3C00D8197011E
:10228000B301A20180919709909198090E94A30639
:10229000882309F474CF4EEFF41A8A189B08F601CC
:1022A00082859385A485B5858A0D9B1DA11DB11DD1
:1022B00082879387A487B5878114910409F4C1C0EC
:1022C000D6015B96ED91FC915C971A960D911D914C
:1022D0002D913C911D97D901C801072E79E0B69543
:1022E000A795979587957A95D1F7702D74807A94F4
:1022F00078221170711020C001151105E9F4D60182
:1023000016964D915D916D917C91199741155105EE
:102310006105710509F075CF57968D919D910D90CE
:10232000BC91A02D0097A105B10509F464CFF60179
:1023300086839783A087B18780E092E05C01A01A32
:10234000B10A8A149B0408F45401D6015B962D91BE
:102350003C915C9716968D919D910D90BC91A02D0E
:10236000F90146855785608971890297A109B109EC
:10237000258504C0880F991FAA1FBB1F2A95D2F775
:10238000840F951FA61FB71F9C01AD01270D311D9E
:10239000411D511D29013A01A11432E0B30609F48F
:1023A0005FCF0115110591F4D6011A964D915D91FB
:1023B0006D917C911D9753968D919D910D90BC913F
:1023C000A02D481759076A077B0738F541E0C3017C
:1023D000B2010E941108882309F4D1CEF801E95610
:1023E000F84F9F012A0D3B1DE217F30709F455CF63
:1023F000D7018C9180833196A7014F5F5F4F7A019F
:10240000F3CF8FEF9FEFDC018093160290931702BA
:10241000A0931802B093190231CF81E00E942007E7
:10242000882309F4ACCE40921602509217026092B3
:102430001802709219028091960781608093960726
:10244000CDCFF60182859385A485B58543895489CE
:1024500065897689481759076A077B0738F4838BA3
:10246000948BA58BB68B848180688483D601149667
:102470008C9183FD03C0832D922D88CE61E0C6012F
:102480000E94F40F882309F47ACE832D922D7ECEFC
:10249000CF93DF931F92CDB7DEB7698341E050E061
:1024A000BE016F5F7F4F0E9494100F90DF91CF911C
:1024B00008954F925F926F927F928F929F92AF9208
:1024C000BF92EF92FF920F931F93CF93DF9300D0B1
:1024D0001F92CDB7DEB7DC0115962C9115972130F0
:1024E000A1F080E00F900F900F900F90DF91CF91AF
:1024F0001F910F91FF90EF90BF90AF909F908F90A2
:102500007F906F905F904F90089514962C91149740
:1025100021FF95C053968D909D90AD90BC9056979D
:1025200084169506A606B70608F48BC089288A2863
:102530008B2809F488C01A968D909D90AD90BC9020
:102540001D97481559056A057B0510F44A015B0182
:102550002A013B017C010E94BF0D882319F241141E
:1025600051046104710469F5F7014789508D618D4B
:10257000728D838D948D0E94110B882309F4B2CF44
:10258000D70157961D921D921D921C925A97D70102
:1025900053964D925D926D927C92569714968C91C3
:1025A0001497806814968C9361E0C7010E94F40F21
:1025B000882309F497CFB501A401C7010E94BF0D7C
:1025C00091CFF70146815781608571859E012F5F0C
:1025D0003F4F838D948D0E94850A8823C9F0D701CF
:1025E0005B96ED91FC9149815A816B817C81878951
:1025F000803181F088EF9FEFAFEFBFE048175907B8
:102600006A077B0720F6CF010E94110B811107C0DA
:1026100080E068CF88EF9FEFA0E0B0E0EFCFF70158
:1026200046815781608571850FEF1FEF2FEF3FE0E7
:10263000838D948D0E94B7098111A9CFE9CF80E0E5
:1026400051CF80E04FCF81E04DCF1F93CF93DF93E9
:10265000EC0180E2689FF0011124E956F84F938560
:10266000917121F0842F827409F05DC0142F6A8B60
:102670008091160290911702A0911802B091190250
:102680008E879F87A88BB98B4489558970E060E05D
:10269000BA01552744274F8B588F698F7A8F828DC7
:1026A000938DB0E0A0E0842B952BA62BB72B8F8BBE
:1026B000988FA98FBA8F23852871C9F4848D958D41
:1026C000A68DB78D8B8B9C8BAD8BBE8B81E08D8364
:1026D000812F8F708C831E821F82188619861A861E
:1026E0001B861C861D8616FD17C081E003C02031A5
:1026F00029F080E0DF91CF911F9108959E012D5E1A
:102700003F4FAC01BD018B8D9C8D0E94680B8823CF
:1027100089F384E08D83DCCF40E050E0BA01CE0144
:102720000E945912E7CF80E0E5CFCF93DF93EC0111
:1027300061E00E94F40F882311F01D8281E0DF9197
:10274000CF910895CF93DF93EC0140E050E0BA01C0
:102750000E945912811103C0DF91CF91089561E069
:10276000CE010E94DB0F009741F025EEFC01208393
:102770001D8281E00E942007EFCF80E0EDCF8F9295
:102780009F92AF92BF92EF92FF920F931F93CF93BE
:10279000DF93EC01062F1B8619861E821D824C8357
:1027A0000E940A037B0161E08C810E94320261E099
:1027B0008C810E94FF010E94710282E58093900744
:1027C0001092910780919007909191070E94830544
:1027D00010E01A3028F48FEF0E941D061F5FF9CF1A
:1027E000CE010E94860520E030E0A90160E0CE0124
:1027F0000E9459068A878130C1F00E940A036E192F
:102800007F09613D774078F381E08D83CE010E949E
:102810009A0580E0DF91CF911F910F91FF90EF908B
:10282000BF90AF909F908F9008952AEA31E040E0EA
:1028300050E068E0CE010E94590682FF22C081E08C
:102840008B878B85823071F1812C912C540120E093
:1028500030E0A90167E3CE010E945906A501940169
:1028600069E2CE010E9459068A87882309F10E94F5
:102870000A036E197F09613D774048F388E08D8334
:10288000C5CF10E0143028F40E94A5058A871F5F89
:10289000F9CF8A858A3A19F082E08D83B7CF82E03A
:1028A0008B87CFCF812C912C54016894B6F8CFCF71
:1028B0008B85823041F0CE010E949A05602FCE01B7
:1028C0000E943F05A7CF20E030E0A9016AE3CE01D6
:1028D0000E945906182F882319F086E08D8396CF21
:1028E0000E94A505807C803C31F0133020F70E94C7
:1028F000A5051F5FFACF83E08B87F7CF019709F01B
:1029000008956F3F7F4FE1F7E6E4F7E01582168206
:102910001186138682E090E0A0E0B0E0848795877E
:10292000A687B78713A215A614A686E592E093A7FB
:1029300082A717A6E5CF0F931F93CF93DF93EC01E8
:10294000162F8FA581110DC0412F61E0CE010E948D
:10295000BF1381110BC080E0DF91CF911F910F91C8
:102960000895CE018A960E949513EECF8E01045FE2
:102970001F4F41E0BE01C8010E944C08882329F086
:1029800081E0811108C080E0E7CF40E0BE01C801CE
:102990000E944C08F6CFB801CE018A960E94C70B60
:1029A000811102C080E0D8CF81E0D6CFCF93DF93F2
:1029B000DC01EB01E881F981EC01CE0FDF1F88819A
:1029C0008F32A9F030E020E02C30310594F4ED0195
:1029D000CE0FDF1F98819F3261F0992351F031961D
:1029E000EA01C20FD31F98832F5F3F4FEDCF31967F
:1029F000E9CF420F531FEA011882ED01CE0FDF1F0E
:102A000088818F3269F0EB01F983E883EA0FFB1FBD
:102A1000908181E0911101C080E0DF91CF91089514
:102A20003196F1CF089590E080E00895DC01599649
:102A3000ED91FC91309731F0958181E0911103C0C7
:102A400080E0089580E00895DC015996ED91FC91B5
:102A5000309729F06389748985899689089560E0A3
:102A600070E0CB010895DC015996ED91FC9130970F
:102A700029F0628573858485958508956FEF7FEFD2
:102A8000CB010895FC01818D928D009719F061E0D2
:102A90000E94F40F0895CF92DF92EF92FF92CF93AE
:102AA000DF93FC01218D328D232B09F1EC010E9473
:102AB00024156B017C01CE010E943315A7019601FC
:102AC000261B370B480B590BDA01C901811530E879
:102AD0009307A105B10520F08FEF9FE7A0E0B0E0DC
:102AE000DF91CF91FF90EF90DF90CF90089590E02D
:102AF00080E0F6CFCF93DF931F92CDB7DEB7FC0116
:102B0000818D928D009791F041E050E0BE016F5FA2
:102B10007F4F0E94600E019731F08FEF9FEF0F9073
:102B2000DF91CF910895898190E0F9CF8FEF9FEFEA
:102B3000F6CFEF92FF920F931F93CF93DF931F92E5
:102B4000CDB7DEB7FC01818D928D009739F18F01F1
:102B500041E050E0BE016F5F7F4F0E94600E019721
:102B6000C9F4E980F12CF801818D928DFC01428538
:102B700053856485758541505109610971090E9429
:102B8000BF0DC7010F90DF91CF911F910F91FF9063
:102B9000EF900895EE24EA94FE2CF3CFF12CE12C73
:102BA000F0CFDC0159968D919C91009741F0DC01AA
:102BB000ED91FC910480F581E02D1995089590E048
:102BC00080E00895CF93DF93DC015996ED91FC915D
:102BD0005A973097A1F0EC0113821282898D9A8D59
:102BE0000E949410E98DFA8D22813381232B79F094
:102BF00081E090E09B838A8390E080E008C021E040
:102C000030E013963C932E93129790E080E0DF9192
:102C1000CF910895CF93DF931F92CDB7DEB769832D
:102C2000DC01ED91FC910280F381E02D41E050E068
:102C3000BE016F5F7F4F19950F90DF91CF9108957F
:102C4000FC011382128288EE93E0A0E0B0E084835E
:102C50009583A683B78388E392E091838083128E65
:102C6000118E14860895019709F008956F3F7F4FE4
:102C7000E1F780E1E4E2F2E0A0E0B2E001900D9241
:102C80008A95E1F7F2CF0895CF92DF92EF92FF920B
:102C90000F931F93CF93DF9300D000D01F92CDB737
:102CA000DEB78C017B016A01FC01108E128E118E41
:102CB0001D821F821E820E940A03F801638F748F97
:102CC000858F968FBE016F5F7F4FC601F701199503
:102CD0000E940A03F801678F70A381A392A387E083
:102CE000FE013196D801549601900D928A95E1F734
:102CF000C80127960FB6F894DEBF0FBECDBFDF9197
:102D0000CF911F910F91FF90EF90DF90CF9008959A
:102D10002F923F924F925F926F927F928F929F92EB
:102D2000AF92BF92CF92DF92EF92FF920F931F93D9
:102D3000CF93DF93CDB7DEB76A970FB6F894DEBFB7
:102D40000FBECDBFFC017A8369832D873E874F87F5
:102D5000588B412C512C32011B018D859E85AF85EE
:102D6000B889689414F8B695A795979587951694A1
:102D7000D1F7481659066A067B0608F0EDC0848034
:102D80009580A680B78089829A82AB82BC829501A9
:102D900084010F2EFFE03695279517950795FA9534
:102DA000D1F7F02D4085518562857385DB01CA011D
:102DB000072E71E1880F991FAA1FBB1F7A95D1F7C3
:102DC000702D58016901A82AB92ACA2ADB2AAD82C6
:102DD000BE82CF82D886DB01CA01689415F8B69509
:102DE000A795979587951694D1F70485158526851F
:102DF000378548015901072E7AE1880C991CAA1CD5
:102E0000BB1C7A95D1F7702D6C017D01C828D9289B
:102E1000EA28FB28C986DA86EB86FC864A015B0134
:102E2000072E75E1B694A794979487947A95D1F775
:102E3000702DD901C801072E7BE0880F991FAA1FAA
:102E4000BB1F7A95D1F7702D75016401C82AD92A64
:102E5000EA2AFB2ACB8ADC8AED8AFE8ADB01CA01D8
:102E6000072E7BE1B695A795979587957A95D1F72B
:102E7000702D68017901CC0CDD1CEE1CFF1CCC0C04
:102E8000DD1CEE1CFF1CCC0CDD1CEE1CFF1CCC0C56
:102E9000DD1CEE1CFF1CCC0CDD1CEE1CFF1C4601D7
:102EA0005701882A992AAA2ABB2A8F8A988EA98E26
:102EB000BA8E80819181A281B381AD80BE80CF80A6
:102EC000D8848A259B25AC25BD258B889C88AD8818
:102ED000BE88C984DA84EB84FC848C209D20AE20DB
:102EE000BF2080949094A094B09488259925AA2519
:102EF000BB25CF88D88CE98CFA8CC826D926EA263F
:102F0000FB26D201A370BB27AA0FBB1FAA0FBB1FB2
:102F1000A20DB31D8D909D90AD90BC90C824D92476
:102F2000EA24FB2489819A81AB81BC8180839183CF
:102F3000A283B38344835583668377830087118795
:102F400022873387C486D586E686F7869FEF491A9F
:102F5000590A690A790A01CF6A960FB6F894DEBF5A
:102F60000FBECDBFDF91CF911F910F91FF90EF90DA
:102F7000DF90CF90BF90AF909F908F907F906F9099
:102F80005F904F903F902F9008952F923F924F92D5
:102F90005F926F927F928F929F92AF92BF92CF92E9
:102FA000DF92EF92FF920F931F93CF93DF93CDB7F2
:102FB000DEB76A970FB6F894DEBF0FBECDBF4C01E7
:102FC0003B01E986FA860B871C872D873E874F8752
:102FD000588BDA8AC98A19821A821B821C821D8246
:102FE0001E821F82188629853A854B855C856D85F2
:102FF0007E858F85988902E00E94FF28A980BA808B
:10300000CB80DC80ED80FE800F8118850E94262910
:1030100009F008F444C0E989FA8984819581A68180
:10302000B781F0E38F27E989FA8984839583A683A2
:10303000B78320E832E040E050E0B401CF010E94C5
:103040008816E981FA81EE0FFF1FEE0FFF1FE60DD4
:10305000F71D4081518162817381E989FA898485F4
:103060009585A685B78584279527A627B7278487C2
:103070009587A687B78729813A814B815C816D81CD
:103080007E818F819885A1E00E941A2929833A8345
:103090004B835C836D837E838F839887A4CF398530
:1030A0003370532E212C312C412C232F30E040E063
:1030B00050E060E070E080E090E0A0E00E942F2906
:1030C000C9F46A960FB6F894DEBF0FBECDBFDF918C
:1030D000CF911F910F91FF90EF90DF90CF90BF9015
:1030E000AF909F908F907F906F905F904F903F90A8
:1030F0002F900895E989FA8984819581A681B78105
:10310000F0E38F27E989FA8984839583A683B783BF
:1031100020E832E040E050E0B401CF010E94881680
:10312000F0E0E0E029893A893A8F298F4F01B12CEC
:10313000A12CC12CD12C7601252D30E040E050E0AF
:1031400060E0722D832D942DE98B9A8AAB8ABC8A1C
:10315000CD8ADE8AEF8AF88EAE2EB92CC12CD12C06
:10316000E12CF12C00E010E00E942629D9F0D0F0EB
:10317000CF010C96A98DBA8D8A0F9B1FA981BA81A8
:10318000AA0FBB1FAA0FBB1FAE0FBF1FAD01460D7D
:10319000571DDC012C91DA013C912327DC012C9393
:1031A0003196C4CFE98DFA8DFA8BE98B89859A85A2
:1031B000AB85BC8583709927AA27BB27448155819D
:1031C0006681778184279527A627B72784839583EF
:1031D000A683B78376CFCF92DF92EF92FF920F93C1
:1031E0001F93CF93DF938C017B01EA0190E080E095
:1031F000843091056CF4FC01EE0FFF1FEE0FFF1FF2
:10320000EC0FFD1F10821182128213820196F0CF03
:1032100020E035E040E050E0B801CE010E94881681
:10322000D12CC12C23E0C216D1046CF58C819D8178
:10323000AE81BF8120E182278C839D83AE83BF83D3
:1032400020E832E040E050E0B801CE010E9488164C
:10325000F601EE0FFF1FEE0FFF1FEE0DFF1D408169
:103260005181628173818C859D85AE85BF85842760
:103270009527A627B7278C879D87AE87BF878FEFB7
:10328000C81AD80ACFCFDF91CF911F910F91FF902D
:10329000EF90DF90CF9008952F923F924F925F92E0
:1032A0006F927F928F929F92AF92BF92CF92DF9256
:1032B000EF92FF920F931F93CF93DF93CDB7DEB7BB
:1032C000E0970FB6F894DEBF0FBECDBF1C013B01E7
:1032D0002901A9A6BAA6CBA6DCA6EDA6FEA60FA735
:1032E00018AB9A8E898E2796EFAC27972896FFAC5D
:1032F000289729960FAD29972A961FAD2A972B96C6
:103300008FAC2B972C969FAC2C972D96AFAC2D970E
:103310002E96BFAC2E9729A53AA54C2D5D2D6DA5F7
:103320007EA58FA598A9A8EF0E941A29D3012C93F6
:1033300011963C93119712964C93129713965C93A7
:10334000139714966C93149715967C93159716966D
:103350008C93169717969C93AE01475F5F4F6096CC
:103360006EAD7FAD609762968EAD9FAD62970E9405
:10337000EB18FE0139966F01282D392D4A2D5B2D52
:10338000698D7A8D62968EAD9FAD62970E94C5174A
:10339000198E1A8E1B8E1C8E1D8E1E8E1F8E18A2CD
:1033A000D301EC9111963C91119712964C91129782
:1033B00013965C91139714966C91149715967C91C3
:1033C00015972E2F16968C91169717969C9102E0C2
:1033D0000E94FF28A98CBA8CCB8CDC8CED8CFE8CE7
:1033E0000F8D18A10E94262909F008F452C08D857E
:1033F0009E85AF85B889E0E58E278D879E87AF874C
:10340000B88B20E035E040E050E062966EAD7FADD5
:103410006297CE0109960E94881689899A89AB899C
:10342000BC89298D3A8D220F331F220F331FF201E1
:10343000E20FF31F4081518162817381220D331DA0
:1034400084279527A627B727F90180839183A28334
:10345000B3834D895E896F89788D84279527A62748
:10346000B7278D8B9E8BAF8BB88F298D3A8D4B8D67
:103470005C8D6D8D7E8D8F8D98A1A1E00E941A29A3
:10348000298F3A8F4B8F5C8F6D8F7E8F8F8F98A394
:1034900087CF2E2F237030E040E050E060E070E0F6
:1034A00080E090E0A0E00E942F2909F059C08D85AE
:1034B0009E85AF85B88950E785278D879E87AF8722
:1034C000B88B20E035E040E050E062966EAD7FAD15
:1034D0006297CE0109960E94881689899A89AB89DC
:1034E000BC8989839A83AB83BC838D859E85AF8598
:1034F000B889E0E78E278D879E87AF87B88B20E855
:1035000032E040E050E062966EAD7FAD6297CE0152
:1035100009960E94881689899A89AB89BC898D830E
:103520009E83AF83B88750E040E030E020E089A47C
:103530009AA42830310508F09AC0E1E0F0E0EC0FE1
:10354000FD1FE20FF31F8081F901E80DF91D389787
:10355000E40DF51D90818927482B2F5F3F4FE9CF60
:103560008D859E85AF85B889F0E58F278D879E87ED
:10357000AF87B88B20E035E040E050E062966EAD5A
:103580007FAD6297CE0109960E948816F0E0E0E0D8
:1035900023C0898D9A8D880F991F880F991F8E0FD0
:1035A0009F1FD201A80FB91F2C91DF01189649E087
:1035B00050E04C0F5D1FA40FB51F3C91D101A80F27
:1035C000B91F922F93279C93DF011C96A40FB51F60
:1035D0008C9198279C933196D301BC91B9A3D301C8
:1035E0001196BC91BAA3D3011296BC91BBA3D3018F
:1035F0001396BC91BCA3D3011496BC91BDA3D30177
:103600001596BC91BEA3D3011696BC91BFA3D3015E
:103610001796BC91B8A729A12370A22EAF012E2F17
:10362000352F40E050E060E070E080E090E0B12CA9
:10363000C12CD12CE12CF12C00E010E00E942629B5
:1036400008F4A7CF89A19AA1ABA1BCA18370992747
:10365000AA27BB274D855E856F85788984279527A6
:10366000A627B7278D879E87AF87B88B20CF452B9E
:10367000D9F490E080E0E0960FB6F894DEBF0FBE7C
:10368000CDBFDF91CF911F910F91FF90EF90DF9011
:10369000CF90BF90AF909F908F907F906F905F90F2
:1036A0004F903F902F9008958FEF9FEFE4CF2F9290
:1036B0003F924F925F926F927F928F929F92AF92C2
:1036C000BF92CF92DF92EF92FF920F931F93CF930F
:1036D000DF93CDB7DEB7E1970FB6F894DEBF0FBE2C
:1036E000CDBF4C013B011A01C9A2DAA2EBA2FCA298
:1036F0000DA31EA32FA338A72896EFAC28972996D1
:10370000FFAC29972A960FAD2A972B961FAD2B97C2
:103710002C964FAC2C972D965FAC2D972E962FADF7
:103720002E97298F2F964FAD2F9749A7AE01475F50
:103730005F4F63966EAD7FAD639765968EAD9FAD1F
:1037400065970E94EB18CE0109966C01242D352D4A
:10375000498D59A5B50165968EAD9FAD65970E94BF
:10376000C517198E1A8E1B8E1C8E1D8E1E8E1F8ED7
:1037700018A229A13AA14BA15CA16DA17EA18FA1A4
:1037800098A502E00E94FF28A98CBA8CCB8CDC8C17
:10379000ED8CFE8C0F8D18A10E94262909F008F4EB
:1037A00053C08D859E85AF85B889E0E58E278D87CE
:1037B0009E87AF87B88B20E035E040E050E065960B
:1037C0006EAD7FAD6597CE0109960E948816898DF2
:1037D0009A8D880F991F880F991FF101E80FF91F23
:1037E000C080D180E280F3800D891E892F89388DB9
:1037F0000C251D252E253F250D8B1E8B2F8B388FDD
:1038000049895A896B897C89880D991D4C255D25CC
:103810006E257F25DC014D935D936D937C9313970B
:10382000298D3A8D4B8D5C8D6D8D7E8D8F8D98A100
:10383000A1E00E941A29298F3A8F4B8F5C8F6D8FE0
:103840007E8F8F8F98A395CFB9A1B370B9AB412C60
:10385000512C2B2F30E040E050E060E070E080E041
:1038600090E0A0E00E942F2909F074C08D859E850C
:10387000AF85B889E0E78E278D879E87AF87B88BA5
:1038800020E035E040E050E065966EAD7FAD659795
:10389000CE0109960E94881689899A89AB89BC89CC
:1038A00089839A83AB83BC838D859E85AF85B889D8
:1038B000F0E78F278D879E87AF87B88B20E832E0AF
:1038C00040E050E065966EAD7FAD6597CE010996FC
:1038D0000E94881689899A89AB89BC898D839E83C9
:1038E000AF83B88729A13AA14BA15CA16DA17EA1AC
:1038F0008FA198A5A8E00E941A29D3012C931196B4
:103900003C93119712964C93129713965C931397CE
:1039100014966C93149715967C93159716968C9322
:10392000169717969C9390E080E0A9A0BAA08830E3
:10393000910508F088C0FC01EA0DFB1DE80DF91D9A
:10394000A1E0B0E0AC0FBD1FA80FB91F2C912083E0
:103950000196EDCF8D859E85AF85B889E0E58E27F0
:103960008D879E87AF87B88B20E035E040E050E040
:1039700065966EAD7FAD6597CE0109960E9488165B
:10398000F0E0E0E02AC09F01245F3F4F49E050E0B3
:103990004C0F5D1F240F351F898D9A8D880F991F3D
:1039A000880F991F8E0F9F1F8101080F191FD901C2
:1039B0006C91D8017C916727D9016C939F01285F96
:1039C0003F4F240F351FD9012C91D8013C91880D10
:1039D000991D2327DC012C9331965F01D12CC12C3A
:1039E000E12CF12C870129A930E040E050E060E0B3
:1039F000742D852D90E0E9A7BAA6CBA6DCA6EDA68E
:103A0000FEA60FA718ABC12CD12CE12CF12C00E0A5
:103A100010E00E94262911F008F0B5CF8D859E8513
:103A2000AF85B88949A15AA16BA17CA143705527E4
:103A30006627772784279527A627B7278D879E8710
:103A4000AF87B88B13CF90E080E0E1960FB6F89483
:103A5000DEBF0FBECDBFDF91CF911F910F91FF90C1
:103A6000EF90DF90CF90BF90AF909F908F907F901E
:103A70006F905F904F903F902F9008950E94602A22
:103A80000E943E1DCF92DF92EF92FF926B017C016C
:103A9000C114D104E104F10439F4C701B601FF9067
:103AA000EF90DF90CF9008950E943A28A7019601E9
:103AB0000E9492286B017C01F0CF6115710581F0A5
:103AC000FB0101900020E9F73197AF01461B570B2E
:103AD000DC01ED91FC910280F381E02D19950895B0
:103AE00090E080E00895DC01ED91FC910280F3818B
:103AF000E02D42E050E060E772E0199508950F93E1
:103B00001F93CF93DF93EC010E945D1D8C01CE01CA
:103B10000E94731D800F911FDF91CF911F910F9114
:103B20000895BF92CF92DF92EF92FF920F931F936F
:103B3000CF93DF9300D000D000D01F921F92CDB75B
:103B4000DEB7FC013581332391F0C12C8C2D2B96EF
:103B50000FB6F894DEBF0FBECDBFDF91CF911F919E
:103B60000F91FF90EF90DF90CF90BF900895B22E0D
:103B70008B017C01BE016F5F7F4FCA010E94EE0482
:103B8000C82E882319F3F801838D948DF701948F43
:103B9000838FF8011682178210861186128613868B
:103BA00014861586C12C16C0C11010C0F701D28A28
:103BB00040911602509117026091180270911902FB
:103BC00046875787608B718BCC24C394FC0180811E
:103BD0008823D9F1F80142855385648575858389E9
:103BE0009489A589B689481759076A077B0768F53C
:103BF000689414F876956795579547951694D1F77C
:103C0000F42FFF70DF2EC8010E94970F009709F470
:103C100066C0FC012081222339F2253E29F24BE0C7
:103C200050E0BC01CE0101960E947F2A892B91F6BB
:103C30008B2D8073803311F4C12C88CF4B2D6D2DCB
:103C4000C7010E942513C82E81CF8B2D827182312E
:103C500011F0C12C7BCFC11011C0F80185818230D9
:103C600009F474CFC8010E94590DC82E882309F4A5
:103C70006DCFF701128A87E997E006C061E0C701BE
:103C80000E94DB0F009769F120E2FC0111922A9556
:103C9000E9F72BE0FE013196DC0101900D922A95A7
:103CA000E1F721E238E2FC01318B208B40E058E063
:103CB00057874687338B228B318F208F578B468BCC
:103CC00081E00E942007C82E882309F43FCFF70126
:103CD00062894B2DC7010E942513C82E37CFC12CF6
:103CE00035CFC12C33CFCF93DF93CDB7DEB76D97F0
:103CF0000FB6F894DEBF0FBECDBFAB011C821B8296
:103D000026E532E03A8329831E8222E0BC01CE01FF
:103D100001960E94911D811109C06D960FB6F8940D
:103D2000DEBF0FBECDBFDF91CF910895CE010196CA
:103D30000E94A213F2CF411103C091E0892F089590
:103D40000E94731E91E08111F9CF90E0F7CF1F938D
:103D5000CF93DF93CDB7DEB76D970FB6F894DEBF84
:103D60000FBECDBFAB011C821B8226E532E03A8339
:103D700029831E8221E0BC01CE0101960E94911D83
:103D800011E0811101C010E081110BC0812F6D96EF
:103D90000FB6F894DEBF0FBECDBFDF91CF911F915C
:103DA0000895CE0101960E949513F0CF4F925F9235
:103DB0006F927F928F929F92AF92BF92CF92DF923B
:103DC000EF92FF920F931F93CF93DF93CDB7DEB7A0
:103DD000C954D1090FB6F894DEBF0FBECDBF4C0158
:103DE0006B013A0159011C821B8286E592E09A839D
:103DF00089831E8219A218A29F8F8E8F1BA22A96DA
:103E00001FAE1EAE2A978B01CE0101967C0115C014
:103E10008E01025E1F4F0CC00C151D05F1F1C8018B
:103E20000E9495133AC05520B9F10C151D0581F378
:103E3000902F812F8701E92EF82EAE01455C5F4F50
:103E4000BE01685B7F4FC4010E94D614582E41E02A
:103E500048279501BE01655C7F4FC801F3011995A4
:103E6000482E8823C9F2552081F021E0AE01455C3F
:103E70005F4FB801C7010E94911D582E0C151D05FA
:103E800091F2C8010E949513CECF0C151D0529F0A3
:103E9000C8010E94951301C0412C842DC75BDF4FE0
:103EA0000FB6F894DEBF0FBECDBFDF91CF911F914B
:103EB0000F91FF90EF90DF90CF90BF90AF909F90C9
:103EC0008F907F906F905F904F900895FB01BC01A1
:103ED000665D7F4F30E020E04BE95EE1CF010E945C
:103EE000D61E0895FB01BC01665D7F4F30E020E0E7
:103EF00047EA5EE1CF010E94D61E08954F925F927D
:103F00006F927F928F929F92AF92BF92CF92DF92E9
:103F1000EF92FF920F931F93CF93DF93CDB7DEB74E
:103F2000C754D1090FB6F894DEBF0FBECDBF4C0108
:103F30003A0129011C821B8286E592E09A838983DB
:103F40001E8219A218A29F8F8E8F1BA2645F7F4FC3
:103F5000CE0101960E94C70B73016E018EE1C80E5F
:103F6000D11CFE0131965F012AC0FFEFEF1AFF0A54
:103F700026C0082F10E0A801B701CE01CB960E9401
:103F80009E2AEBE3F0E0EC0FFD1FE00FF11F108223
:103F9000C6010E94951321E0AE01455C5F4FB5015B
:103FA000C6010E94911D8823D1F0E00EF11EC501CB
:103FB0000E9495139A2D8B2D5601C92ED82E6FE293
:103FC00070E0C7010E948C2A009791F0F7012081D0
:103FD0002F3259F28E198D3060F28CE0CACFF40185
:103FE0001382128286E592E091838083158258C005
:103FF000E618F708F201F182E0828AE492E0F40127
:1040000091838083F50182819381F401938382837C
:1040100086E592E091838083F5018481F4018483B5
:10402000F5018581F4018583F50186819781A0855D
:10403000B185F40186839783A087B187F5018285D6
:104040009385A485B585F40182879387A487B58776
:10405000F50186859785A089B189F40186879787C0
:10406000A08BB18BF5018289F401828BF5018389E4
:104070009489A589B689F401838B948BA58BB68B23
:10408000F5018789908DA18DB28DF401878B908F7A
:10409000A18FB28FF501838D948DF401948F838F5E
:1040A000C401C95BDF4F0FB6F894DEBF0FBECDBFB2
:1040B000DF91CF911F910F91FF90EF90DF90CF9004
:1040C000BF90AF909F908F907F906F905F904F9038
:1040D0000895CF93DF93EC01898D9A8D009741F07D
:1040E0000E949513898D9A8D0E94D7291A8E198E58
:1040F000DF91CF910895CF93DF93EC01888199816F
:104100000E94D7298A819B810E94D7298C819D8119
:104110000E94D729CE010E94D729DF91CF9108951F
:10412000EF92FF920F931F93CF93DF93EC017B01EC
:104130008A011B821A8288EE93E0A0E0B0E08C83B3
:104140009D83AE83BF8388E392E0998388838DE16A
:1041500090E00E943B299A8F898F009779F02DE19A
:10416000F701DC0101900D922A95E1F74CE050E057
:10417000B801CE010C960E949E2A188EDF91CF9135
:104180001F910F91FF90EF900895DF92EF92FF92B1
:104190000F931F93CF93DF93CDB7DEB7C657D109E7
:1041A0000FB6F894DEBF0FBECDBF7C018A01D22EC0
:1041B0001CAE1BAE9E01255C3F4FCE01CD960E94EA
:1041C0007E1F8BAD9CAD080F191FF80180818823DD
:1041D00009F47FC06E961FAE1EAE6E9786E592E024
:1041E0006C969FAF8EAF6C97A0961FAEA09723964C
:1041F0008FAD2397882309F4C3C02D2DA801BE01DC
:10420000635C7F4FCE01865A9F4F0E94911D882389
:1042100009F4C9C0CE01CD960E9495138D2D8670EC
:10422000863009F4C4C06E968EAD9FAD6E979C83A8
:104230008B8386E592E09A8389836F968FAD6F9723
:104240008D83A0968FADA0978E83A4968CAD9DADE7
:10425000AEADBFADA4978F839887A987BA87A8967C
:104260008CAD9DADAEADBFADA8978B879C87AD875C
:10427000BE87AC968CAD9DADAEADBFADAC978F8714
:10428000988BA98BBA8BAD968FADAD978B8BE19642
:104290008CAD9DADAEADBFADE1978C8B9D8BAE8BE4
:1042A000BF8BE5968CAD9DADAEADBFADE597888F6C
:1042B000998FAA8FBB8FE7968EAD9FADE7979D8FA5
:1042C0008C8FA801BE016F5F7F4FC7010E949020B5
:1042D0005AC021968EAD9FAD219799A388A386E5FC
:1042E00092E09F8F8E8F22968FAD22978AA323967E
:1042F0008FAD23978BA327968CAD9DADAEADBFAD93
:1043000027978CA39DA3AEA3BFA32B968CAD9DAD89
:10431000AEADBFAD2B9788A799A7AAA7BBA72F962D
:104320008CAD9DADAEADBFAD2F978CA79DA7AEA7B1
:10433000BFA760968FAD609788AB64968CAD9DAD3E
:10434000AEADBFAD649789AB9AABABABBCAB689677
:104350008CAD9DADAEADBFAD68978DAB9EABAFAB39
:10436000B8AF6A968EAD9FAD6A979AAF89AF43E7B3
:1043700052E0BE01625E7F4FC7010E94902003C0E1
:10438000C7010E942016C701CA58DF4F0FB6F89424
:10439000DEBF0FBECDBFDF91CF911F910F91FF9078
:1043A000EF90DF900895C7010E942016ECCFE196B0
:1043B0004CAD5DAD6EAD7FADE197CE01865A9F4F9E
:1043C0000E94BF0D30CF0F931F93CF93DF93CDB7D4
:1043D000DEB76B970FB6F894DEBF0FBECDBF8C0172
:1043E00065E772E089E999E00E945D1DB80189E9FD
:1043F00099E00E945D1D6DE972E089E999E00E94F3
:104400007F1D21E0A80166E477E0CE0101960E94BD
:10441000C520CE0101960E941615882359F1CE01C0
:1044200001960E944B15892B81F0CE0101960E94C6
:104430007A15E0919909F0919A090190F081E02DA7
:10444000682F89E999E01995EACFCE0101960E947B
:10445000692063EA72E089E999E00E947F1D6B960A
:104460000FB6F894DEBF0FBECDBFDF91CF911F9185
:104470000F91089566EC72E089E999E00E945D1D54
:10448000B80189E999E00E945D1D65ED72E089E956
:1044900099E00E947F1DE3CFEF92FF920F931F934D
:1044A000CF93DF937C010E943B298C01892B89F0FB
:1044B000D0E0C0E0CE15DF0564F46FEF70E080E07F
:1044C00090E00E94421DF801EC0FFD1F60832196D1
:1044D000F1CFC801DF91CF911F910F91FF90EF9025
:1044E00008950F931F93CF93DF938C01EB01CB01C2
:1044F00001960E943B29AC01892B99F030E020E025
:104500002C173D075CF4F801E20FF31F9081FA01CC
:10451000E20FF31F90832F5F3F4FF2CFC40FD51FE1
:104520001882CA01DF91CF911F910F910895EF92E8
:10453000FF920F931F93CF93DF937C0188E090E06D
:104540000E943B29EC01892B09F46BC080E290E0CA
:104550000E944C228C01009709F44BC060E270E08D
:104560000E94712299838883C8010E94D72980E123
:1045700090E00E944C228C01009709F440C060E159
:1045800070E00E9471229B838A83C8010E94D72910
:104590008CE090E00E944C228C010097B1F16CE01D
:1045A00070E00E9471229D838C83C8010E94D729EC
:1045B00088E090E00E944C228C01009761F168E055
:1045C00070E00E9471229F838E83C8010E94D729C8
:1045D00088819981F701938382838A819B8191836A
:1045E0008083CE01DF91CF911F910F91FF90EF90CB
:1045F0000895CE010E94D729D0E0C0E0F2CFCE01CD
:104600000E94D729D0E0C0E0ECCFCE010E94D7298C
:10461000D0E0C0E0E6CFCE010E94D729D0E0C0E0D4
:10462000E0CFD0E0C0E0DDCF2F923F924F925F927B
:104630006F927F928F929F92AF92BF92CF92DF92B2
:10464000EF92FF920F931F93CF93DF93CDB7DEB717
:10465000CA55D1090FB6F894DEBF0FBECDBF362EB6
:10466000272E942E852E6B963FAF2EAF6B97380179
:104670007F936F935F934F931F921F921F921F928E
:104680001F921F921F921F921F9228E02F936B96EA
:10469000AEACBFAC6B976894CC24C5F8D12CE12CA0
:1046A000F12C00E010E020E030E0AC01BE01675FDB
:1046B0007F4FCE0141960E94571B2C010E940A0396
:1046C000F301608371838283938380E590E00E948D
:1046D0003B29DC01F3019683858390E5FE01719609
:1046E00001900D929A95E1F7A984BA84CB84DC8479
:1046F000ED84FE840F8518892F923F928F929F92AE
:104700001F921F921F921F921F921F921F92F8E0FA
:10471000FF936B968EAC9FAC6B979E012F5E3F4FC5
:1047200050E040E0BE016F5F7F4FCE01C9960E940E
:104730004C190FB6F894DEBF0FBECDBF4816590610
:10474000E1F0F3011482C65ADF4F0FB6F894DEBFD2
:104750000FBECDBFDF91CF911F910F91FF90EF90D2
:10476000DF90CF90BF90AF909F908F907F906F9091
:104770005F904F903F902F900895892B11F781E023
:10478000F3018483E0CF0F931F93FC0126813781CF
:1047900044815581828193818B01BC01808191810B
:1047A0000E9414231F910F910895AF92BF92CF9250
:1047B000DF92EF92FF920F931F93CF93DF937C01D1
:1047C0008B016B01CC0CDD1CC60101960E943B29BC
:1047D0005C01892B21F1D0E0C0E0C017D107D8F4EB
:1047E000F701EC0FFD1F2081CE01880F991F1F924A
:1047F0002F9324EE32E03F932F938A0D9B1D9F93BE
:104800008F930E94AD2A21960F900F900F900F90DA
:104810000F900F90E2CFF501EC0DFD1D1082C50148
:10482000DF91CF911F910F91FF90EF90DF90CF908C
:10483000BF90AF9008952F923F924F925F926F92E8
:104840007F928F929F92AF92BF92CF92DF92EF9220
:10485000FF920F931F93CF93DF93CDB7DEB7C8506E
:10486000D4400FB6F894DEBF0FBECDBFC95FDB4F9B
:1048700099838883C750D4408B01FB01C78CD0A09B
:10488000E1A0F2A0438D548D658D768D2601370110
:10489000441A550A660A770A84899589A689B789D0
:1048A0004C015D01841A950AA60AB70AC81AD90AEA
:1048B000EA0AFB0A808D882309F413C189EE92E08D
:1048C000CB5FDB4F99838883C550D440F801818D3D
:1048D000928D009731F066857785161617060CF4D1
:1048E00009C184EF92E00E94652A1C01F8018289C7
:1048F0009389009731F062857385161617060CF4BC
:10490000FDC084EF92E00E94652ACF5FDB4F998360
:104910008883C150D440F80180899189009731F093
:1049200064857585161617060CF4F1C084EF92E0C5
:104930000E94652ACD5FDB4F99838883C350D440A2
:104940003F922F92CC5FDB4FF881C450D440FF934D
:10495000CD5FDB4F8881C350D4408F93CE5FDB4F58
:104960009881C250D4409F93CF5FDB4FE881C15004
:10497000D440EF93CA5FDB4FF881C650D440FF9319
:10498000CB5FDB4F8881C550D4408F937F926F926D
:104990005F924F92FF92EF92DF92CF92BF92AF92CF
:1049A0009F928F921F930F9388EF92E09F938F9324
:1049B000E1E0F0E0EC0FFD1FFF93EF930E94AD2AC2
:1049C0003F922F92CC5FDB4FF881C450D440FF93CD
:1049D000CD5FDB4F8881C350D4408F93CE5FDB4FD8
:1049E0009881C250D4409F93CF5FDB4FE881C15084
:1049F000D440EF93CA5FDB4FF881C650D440FF9399
:104A0000CB5FDB4F8881C550D4408F937F926F92EC
:104A10005F924F92FF92EF92DF92CF92BF92AF924E
:104A20009F928F921F930F9384E393E09F938F93B2
:104A3000CE018F5F9D4F9F938F930E94AD2A0FB63B
:104A4000F894DEBF0FBECDBFBE016F5F7F4F89E917
:104A500099E00E947F1DC95FDB4F88819981C75013
:104A6000D4400E94161581115BC02114310419F045
:104A7000C1010E94D729CF5FDB4F88819981C15046
:104A8000D440009711F00E94D729CD5FDB4FE88119
:104A9000F981C350D440309719F0CF010E94D72933
:104AA000F801818D928D009711F00E94D729C85F7F
:104AB000DB4F0FB6F894DEBF0FBECDBFDF91CF91B5
:104AC0001F910F91FF90EF90DF90CF90BF90AF902C
:104AD0009F908F907F906F905F904F903F902F901E
:104AE0000895EEEEF2E0CB5FDB4FF983E883C5502B
:104AF000D440ECCE0E94D5231C01F8CE0E94D523D1
:104B0000CF5FDB4F99838883C150D44004CF0E948C
:104B1000D523CD5FDB4F99838883C350D44010CF1A
:104B2000BE016F5F7D4FC95FDB4F88819981C750A0
:104B3000D4400E947F1D99CFAF92BF92CF92DF9257
:104B4000EF92FF920F931F93CF93DF93CDB7DEB712
:104B5000C654D1090FB6F894DEBF0FBECDBF26E014
:104B600040E855E260E070E089E999E00E94C40302
:104B70006FE473E089E999E00E945D1D65E386E4D6
:104B800097E00E949B14811119C06BE673E089E9DC
:104B900099E00E947F1D6DE773E089E999E00E942A
:104BA0007F1D64E973E089E999E00E947F1D6AEA4C
:104BB00073E089E999E00E947F1DFFCF6DEC73E0FF
:104BC00089E999E00E947F1D61ED73E089E999E030
:104BD0000E945D1D6BE074E086E497E00E94721F06
:104BE000882309F45EC06BE074E086E497E00E94DD
:104BF000661F882309F442C067E174E089E999E0FF
:104C00000E945D1D6BE074E089E999E00E945D1DE2
:104C100063E274E089E999E00E947F1D27E14BE09F
:104C200054E066E477E0CE0101960E94C5206EE470
:104C300074E089E999E00E947F1D64E774E089E9E6
:104C400099E00E947F1D6CE475E089E999E00E947B
:104C50007F1D67EC75E089E999E00E947F1DCE0118
:104C600001960E941615882379F162E476E0CE0160
:104C700001960E947F1DD12CC12C43C06EE274E0CE
:104C800089E999E00E945D1D6BE074E089E999E093
:104C90000E945D1D6FEC73E089E999E00E947F1D21
:104CA000BDCF6EE374E089E999E00E945D1D6BE081
:104CB00074E089E999E00E945D1D60E474E089E98F
:104CC00099E00E947F1DAACF68EA76E089E999E021
:104CD0000E947F1DD0CF69EF76E089E999E00E94BC
:104CE0005D1D86E1809FB001819F700D1124605091
:104CF0007E4F89E999E00E947F1D59C0BFEFCB1A12
:104D0000DB0A2AE0C216D1040CF054C010E000E027
:104D1000101611069CF325961FAE1EAE25972796FA
:104D20001FAE1EAE279786E1809FF001819FF00D98
:104D30001124E050FE4F0288F389E02DCE01CF967A
:104D400019955C01892B39F226E1209FC001219F32
:104D5000900D1124DC01A050BE4F7D0150966D9145
:104D60007C91A501CE014C960E94441680E1F7018A
:104D7000DE015C9601900D928A95E1F721968EAD49
:104D80009FAD21979DA78CA723968EAD9FAD2397AE
:104D90009FA78EA7BE01645E7F4FCE0101960E9441
:104DA0001B24D7015496ED91FC91C50119950F5F15
:104DB0001F4FAECF64EF74E089E999E00E947F1D38
:104DC000CE0101960E941615811116C08BE094E069
:104DD0000E94E321CA5BDF4F0FB6F894DEBF0FBE1F
:104DE000CDBFDF91CF911F910F91FF90EF90DF909A
:104DF000CF90BF90AF90089564EF74E0CE0101961C
:104E00000E947F1DCE0101960E94692069E177E032
:104E100089E999E00E947F1DD9CF6FEF7FEF81E094
:104E200090E00E9447036FEF7FEF81E090E00E94E7
:104E300033056FEF7FEF81E090E00E947E146FEF0B
:104E40007FEF81E090E00E94331608951F920F9249
:104E50000FB60F9211240F931F932F933F934F93ED
:104E60005F936F937F938F939F93AF93BF930091C3
:104E70003B0A10913C0A20913D0A30913E0A9091E4
:104E80003A0AB901A8014F5F5F4F6F4F7F4F83E030
:104E9000890F8D3740F086E8890FB901A8014E5F70
:104EA0005F4F6F4F7F4F80933A0A40933B0A509376
:104EB0003C0A60933D0A70933E0A8091360A9091B5
:104EC000370AA091380AB091390A0196A11DB11D87
:104ED0008093360A9093370AA093380AB093390A20
:104EE000BF91AF919F918F917F916F915F914F9102
:104EF0003F912F911F910F910F900FBE0F901F9018
:104F000018950E94A8020E949C250E94B504FDCF1E
:104F10001F920F920FB60F9211240BB60F922F9380
:104F20003F934F935F936F937F938F939F93AF9331
:104F3000BF93EF93FF9389E999E00E942604FF91C4
:104F4000EF91BF91AF919F918F917F916F915F9101
:104F50004F913F912F910F900BBE0F900FBE0F906E
:104F60001F9018951F920F920FB60F9211240BB637
:104F70000F922F938F939F93AF93BF93EF93FF93D2
:104F8000E091A909F091AA09808182FD14C0E9E9A4
:104F9000F9E0A689B7892C91818D8F5F8F73928DEF
:104FA000891771F0DF01E18DF0E0E756F64F258FAC
:104FB00059968C9305C0E091AF09F091B0098081BA
:104FC000FF91EF91BF91AF919F918F912F910F9092
:104FD0000BBE0F900FBE0F901F9018958F929F924F
:104FE000AF92BF92CF92DF92EF92FF92CF93DF9377
:104FF000EC01688179818A819B8161157105810548
:10500000910521F464E279ED8BE597E02DE133EF32
:1050100041E050E00E94922849015A019B01AC01F5
:10502000A7EAB1E40E94B1286B017C01ACEEB4EFB9
:10503000A50194010E94BF28C60ED71EE81EF91EC6
:10504000F7FE06C081E0C81AD108E10880E8F80A36
:10505000C882D982EA82FB82C701B6019F77DF91BD
:10506000CF91FF90EF90DF90CF90BF90AF909F9047
:105070008F9008958F929F92AF92BF92CF92DF92BE
:10508000EF92FF9260911A0270911B0280911C02B4
:1050900090911D02611571058105910521F464E26D
:1050A00079ED8BE597E02DE133EF41E050E00E9490
:1050B000922849015A019B01AC01A7EAB1E40E9480
:1050C000B1286B017C01ACEEB4EFA50194010E9404
:1050D000BF28C60ED71EE81EF91EF7FE06C081E0E7
:1050E000C81AD108E10880E8F80AC0921A02D092E2
:1050F0001B02E0921C02F0921D02C701B6019F77CD
:10510000FF90EF90DF90CF90BF90AF909F908F90E7
:10511000089560931A0270931B0280931C0290936F
:105120001D020895052E97FB1EF400940E94A928E5
:1051300057FD07D00E94C42807FC03D04EF40C94FE
:10514000A92850954095309521953F4F4F4F5F4F7F
:10515000089590958095709561957F4F8F4F9F4FE3
:1051600008950E94E628A59F900DB49F900DA49FDE
:10517000800D911D11240895B7FF0C94B1280E9451
:10518000B128821B930B0895A1E21A2EAA1BBB1B08
:10519000FD010DC0AA1FBB1FEE1FFF1FA217B30703
:1051A000E407F50720F0A21BB30BE40BF50B661F19
:1051B000771F881F991F1A9469F7609570958095DD
:1051C00090959B01AC01BD01CF010895A29FB00154
:1051D000B39FC001A39F700D811D1124911DB29F2B
:1051E000700D811D1124911D0895EE0FFF1F881F62
:1051F0008BBF0790F691E02D199497FD1094002E27
:10520000083098F00850232F342F452F562F672F42
:10521000782F892F912DF4CF1594979587957795B1
:10522000679557954795379527950A95AAF71124BD
:10523000002D08950024A7FD00942A0F301D401D65
:10524000501D601D701D801D901D08952A153B0581
:105250004C055D056E057F058007910708950024C4
:10526000A7FD00942A17300540055005600570051C
:105270008005900508950F931F93CF93DF9382309D
:10528000910510F482E090E0E091420AF091430A27
:1052900030E020E0B0E0A0E0309799F4211531052E
:1052A00009F44AC0281B390B24303105D8F58A810E
:1052B0009B816115710589F1FB0193838283FE0156
:1052C00011C0408151810281138148175907E0F0D4
:1052D0004817590799F4109761F012960C9312979A
:1052E00013961C933296CF01DF91CF911F910F91AE
:1052F00008950093420A1093430AF4CF2115310513
:1053000051F04217530738F0A901DB019A01BD01A2
:10531000DF01F801C1CFEF01F9CF9093430A8093E9
:10532000420ACDCFFE01E20FF31F819391932250E9
:10533000310939832883D7CF2091400A3091410A1F
:10534000232B41F420912002309121023093410A15
:105350002093400A20911E0230911F022115310531
:1053600041F42DB73EB74091220250912302241BF5
:10537000350BE091400AF091410AE217F307A0F4DF
:105380002E1B3F0B2817390778F0AC014E5F5F4F9B
:105390002417350748F04E0F5F1F5093410A409382
:1053A000400A819391939FCFF0E0E0E09CCFCF93B0
:1053B000DF930097E9F0FC01329713821282A091EB
:1053C000420AB091430AED0130E020E01097A1F4C9
:1053D00020813181820F931F2091400A3091410A30
:1053E0002817390709F061C0F093410AE093400A99
:1053F000DF91CF910895EA01CE17DF07E8F54A81E2
:105400005B819E0141155105B1F7E901FB83EA83F8
:1054100049915991C40FD51FEC17FD0761F48081A4
:1054200091810296840F951FE90199838883828177
:1054300093819B838A83F0E0E0E012968D919C91AA
:1054400013970097B9F52D913C911197CD010296D4
:10545000820F931F2091400A3091410A2817390783
:1054600039F6309751F51092430A1092420AB093E0
:10547000410AA093400ABCCFD383C28340815181AB
:10548000840F951FC817D90761F44E5F5F4F88815D
:105490009981480F591F518340838A819B8193834F
:1054A00082832115310509F0B0CFF093430AE093D0
:1054B000420A9ECFFD01DC01C0CF13821282D7CFFA
:1054C00081E090E0F8940C94832D0F931F93CF9379
:1054D000DF938C01FC0101900020E9F7CF01801BD4
:1054E000910B0E943B29EC01009719F0B8010E9432
:1054F000972ACE01DF91CF911F910F910895FB0163
:10550000DC0104C08D910190801921F4415050407C
:10551000C8F7881B990B0895FC018191861721F02B
:105520008823D9F7992708953197CF010895FB0172
:10553000DC0101900D920020E1F70895FB01DC01F0
:105540004150504048F001900D920020C9F701C031
:105550001D9241505040E0F708950F931F93CF9351
:10556000DF93CDB7DEB72E970FB6F894DEBF0FBE30
:10557000CDBF0E891F8986E08C831A8309838FEF44
:105580009FE79E838D83AE01465E5F4F688D798D68
:10559000CE0101960E94DD2A2F813885020F131F4C
:1055A000F80110822E960FB6F894DEBF0FBECDBF65
:1055B000DF91CF911F910F9108952F923F924F92BB
:1055C0005F926F927F928F929F92AF92BF92CF9293
:1055D000DF92EF92FF920F931F93CF93DF9300D050
:1055E00000D000D01F921F92CDB7DEB77C013B01E7
:1055F0008A01FC0117821682838181FFDDC1CE0101
:1056000001965C01F7019381F30193FD859193FF6E
:1056100081913F01882309F453C1853239F493FD08
:10562000859193FF81913F01853229F4B70190E084
:105630000E94F52CE7CF912C212C312CFFE1F315A2
:1056400038F08B3211F190F4803209F1833229F174
:1056500037FC3CC020ED280F2A3050F536FE20C024
:105660008AE0989E200D1124922E06C08D3291F072
:10567000803371F7689430F8F30193FD859193FFBF
:1056800081913F018111DACF21C0689431F868948B
:1056900032F8F2CF689433F8EFCF689434F8ECCF57
:1056A000EAE02E9E200D1124222E689435F8E4CFD6
:1056B0008E3229F436FC04C1689436F8DDCF8C367E
:1056C00019F4689437F8D8CF8836B1F2982F9F7DB7
:1056D00095549330E0F08336A1F18337C1F18335DF
:1056E00009F063C02801F2E04F0E511CF801C080A0
:1056F000D180692D70E036FC02C06FEF7FEFC601EC
:105700000E94DF2C4C01689437F882010AC00C5FBC
:105710001F4FFFE3F98388248394912C6501E8945B
:1057200037F833FE2DC0522C8114910471F55520A9
:1057300009F468CFB70180E290E00E94F52C5A94FA
:10574000F6CFF801808189830E5F1F4FE4CF2801D7
:10575000F2E04F0E511CF801C080D180692D70E03D
:1057600036FC02C06FEF7FEFC6010E94EA2C4C01AD
:105770008201D5CFB70180E290E00E94F52C2A94F7
:105780002814190409F0B0F7CECFF60137FC859143
:1057900037FE81916F01B70190E00E94F52C511006
:1057A0005A94F1E08F1A9108BFCF843619F08936E8
:1057B00009F077C0F80137FE6BC06081718182818A
:1057C00093810C5F1F4FF32DFF763F2E97FF09C08B
:1057D00090958095709561957F4F8F4F9F4F6894FE
:1057E00037F82AE030E0A5010E94252DC82ECA18FE
:1057F0008C2C432C36FE0CC0E89440F8C91440F4BD
:1058000034FE05C032FC03C0F32DFE7E4F2E892CE2
:1058100044FEAAC0FE01EC0DF11D8081803309F029
:105820009CC0242D297E422E842D8870582E43FC46
:10583000AAC040FEA4C09C2C821418F42C0C922CFC
:10584000981844FEA6C0B70180E390E00E94F52CB2
:1058500042FE09C088E790E041FE02C088E590E082
:10586000B7010E94F52CC91408F49FC0CA94D12C2A
:105870009FEFC91AD90ACA0CDB1CF60182916F018D
:10588000B70190E00E94F52CAC14BD04B1F74FCFE6
:1058900060817181072E000C880B990B0E5F1F4FE2
:1058A00092CFD32CE894D4F82AE030E08537E1F1A8
:1058B000232D297FD22E8F36A9F1F0F4883551F1AE
:1058C000F701868197812B960FB6F894DEBF0FBE45
:1058D000CDBFDF91CF911F910F91FF90EF90DF909F
:1058E000CF90BF90AF909F908F907F906F905F9080
:1058F0004F903F902F900895803749F0883701F7F7
:10590000D4FE02C06894D2F820E130E00DC0689463
:10591000D4F8F6CF34FE03C0822F8660D82E20E163
:1059200032E002C028E030E0F801D7FE0FC060810D
:105930007181828193810C5F1F4FA5010E94252DEB
:10594000C82ECA183D2CE89437F852CF6081718177
:1059500090E080E00E5F1F4FF0CF42FC02C08394C6
:1059600063CF8394839460CF842D867809F45CCFD1
:10597000F6CFB70180E290E00E94F52C8394821468
:10598000C0F3512C5ECF522C5818821408F459CF12
:10599000F8CF842D867809F466CF8BE241FE80E251
:1059A00047FC8DE2B70190E05CCFB70180E390E067
:1059B0000E94F52C9A9457CF8FEF9FEF84CFFC0174
:1059C0000590615070400110D8F7809590958E0F2A
:1059D0009F1F0895FC016150704001900110D8F79D
:1059E000809590958E0F9F1F08950F931F93CF93CF
:1059F000DF93182F092FEB018B8181FD09C01FEF69
:105A00000FEF812F902FDF91CF911F910F9108956C
:105A100082FF14C02E813F818C819D812817390718
:105A20003CF4E881F981CF01019699838883108342
:105A30008E819F8101969F838E83E3CFE885F985D0
:105A4000812F1995892BA1F3DACFFA01AA272830E3
:105A500051F1203181F1E8946F936E7F6E5F7F4F3B
:105A60008F4F9F4FAF4FB1E03ED0B4E03CD0670FB7
:105A7000781F891F9A1FA11D680F791F8A1F911D0A
:105A8000A11D6A0F711D811D911DA11D20D009F45A
:105A900068943F912AE0269F11243019305D31939C
:105AA000DEF6CF010895462F4770405D4193B3E085
:105AB0000FD0C9F7F6CF462F4F70405D4A3318F02C
:105AC000495D31FD4052419302D0A9F7EACFB4E0DD
:105AD000A6959795879577956795BA95C9F7009795
